{"contracts/QuantumLock2050.sol":{"QuantumLock2050":{"abi":[{"inputs":[{"internalType":"address","name":"_ecoCoinContract","type":"address"}],"stateMutability":"nonpayable","type":"constructor"},{"inputs":[],"name":"AlreadyClaimed","type":"error"},{"inputs":[],"name":"NotEcoCoinContract","type":"error"},{"inputs":[],"name":"NotTopHolder","type":"error"},{"inputs":[{"internalType":"uint256","name":"unlockTime","type":"uint256"},{"internalType":"uint256","name":"currentTime","type":"uint256"}],"name":"StillLocked","type":"error"},{"inputs":[],"name":"TransferFailed","type":"error"},{"inputs":[],"name":"ZeroAddress","type":"error"},{"anonymous":false,"inputs":[{"indexed":true,"internalType":"address","name":"from","type":"address"},{"indexed":false,"internalType":"uint256","name":"amount","type":"uint256"},{"indexed":false,"internalType":"uint256","name":"totalAccumulated","type":"uint256"}],"name":"EndowmentReceived","type":"event"},{"anonymous":false,"inputs":[{"indexed":true,"internalType":"address","name":"winner","type":"address"},{"indexed":false,"internalType":"uint256","name":"amount","type":"uint256"},{"indexed":false,"internalType":"uint256","name":"unlockedAt","type":"uint256"}],"name":"FundUnlocked","type":"event"},{"anonymous":false,"inputs":[{"indexed":true,"internalType":"address","name":"user","type":"address"},{"indexed":false,"internalType":"uint256","name":"newScore","type":"uint256"},{"indexed":false,"internalType":"bool","name":"isNewTopHolder","type":"bool"}],"name":"ProofOfPlanetUpdated","type":"event"},{"anonymous":false,"inputs":[{"indexed":false,"internalType":"string","name":"message","type":"string"}],"name":"TimeCapsuleMessage","type":"event"},{"inputs":[],"name":"BPS_DENOMINATOR","outputs":[{"internalType":"uint256","name":"","type":"uint256"}],"stateMutability":"view","type":"function"},{"inputs":[],"name":"ENDOWMENT_RATE_BPS","outputs":[{"internalType":"uint256","name":"","type":"uint256"}],"stateMutability":"view","type":"function"},{"inputs":[],"name":"UNLOCK_TIMESTAMP","outputs":[{"internalType":"uint256","name":"","type":"uint256"}],"stateMutability":"view","type":"function"},{"inputs":[],"name":"claimed","outputs":[{"internalType":"bool","name":"","type":"bool"}],"stateMutability":"view","type":"function"},{"inputs":[],"name":"currentTopHolder","outputs":[{"internalType":"address","name":"","type":"address"}],"stateMutability":"view","type":"function"},{"inputs":[],"name":"currentTopScore","outputs":[{"internalType":"uint256","name":"","type":"uint256"}],"stateMutability":"view","type":"function"},{"inputs":[],"name":"ecoCoinContract","outputs":[{"internalType":"address","name":"","type":"address"}],"stateMutability":"view","type":"function"},{"inputs":[],"name":"getFundStatus","outputs":[{"internalType":"bool","name":"locked","type":"bool"},{"internalType":"uint256","name":"secondsRemaining","type":"uint256"},{"internalType":"uint256","name":"accumulated","type":"uint256"},{"internalType":"address","name":"topHolder","type":"address"},{"internalType":"uint256","name":"topScore","type":"uint256"},{"internalType":"bool","name":"isClaimed","type":"bool"}],"stateMutability":"view","type":"function"},{"inputs":[],"name":"getTimeRemaining","outputs":[{"internalType":"uint256","name":"","type":"uint256"}],"stateMutability":"view","type":"function"},{"inputs":[],"name":"getTopHolder","outputs":[{"internalType":"address","name":"","type":"address"},{"internalType":"uint256","name":"","type":"uint256"}],"stateMutability":"view","type":"function"},{"inputs":[],"name":"getUnlockDate","outputs":[{"internalType":"string","name":"","type":"string"}],"stateMutability":"pure","type":"function"},{"inputs":[],"name":"isLocked","outputs":[{"internalType":"bool","name":"","type":"bool"}],"stateMutability":"view","type":"function"},{"inputs":[],"name":"owner","outputs":[{"internalType":"address","name":"","type":"address"}],"stateMutability":"view","type":"function"},{"inputs":[{"internalType":"address","name":"","type":"address"}],"name":"proofOfPlanetScore","outputs":[{"internalType":"uint256","name":"","type":"uint256"}],"stateMutability":"view","type":"function"},{"inputs":[{"internalType":"address","name":"user","type":"address"},{"internalType":"uint256","name":"mintAmount","type":"uint256"},{"internalType":"uint256","name":"co2NanoGrams","type":"uint256"}],"name":"recordContribution","outputs":[],"stateMutability":"nonpayable","type":"function"},{"inputs":[],"name":"totalAccumulated","outputs":[{"internalType":"uint256","name":"","type":"uint256"}],"stateMutability":"view","type":"function"},{"inputs":[],"name":"unlockEndowment","outputs":[],"stateMutability":"nonpayable","type":"function"},{"stateMutability":"payable","type":"receive"}],"evm":{"bytecode":{"linkReferences":{},"object":"60a060405234801561001057600080fd5b50604051610bb9380380610bb983398101604081905261002f916101b9565b6001600160a01b0381166100565760405163d92e233d60e01b815260040160405180910390fd5b6001600160a01b038116608052600080546001600160a01b031916331790556040517f84bab708d340bec5771017fbd5077e22ad1faedce0becb5855a401a0fba1f13f906101ab90602080825260cd908201527f546f2077686f65766572207265616473207468697320696e20323035303a205460408201527f6869732066756e64207761732063726561746564206f6e204d61792033312c2060608201527f323032362c2062792070656f706c652077686f2062656c69657665642074686560808201527f20706c616e65742077617320776f72746820736176696e672e2045766572792060a08201527f6672616374696f6e206f662045434f58206865726520726570726573656e747360c08201527f2061207265616c20616374696f6e2e20557365207468697320776973656c792e60e08201526c10169022b1b7ac16101918191b60991b6101008201526101200190565b60405180910390a1506101e9565b6000602082840312156101cb57600080fd5b81516001600160a01b03811681146101e257600080fd5b9392505050565b6080516109a0610219600039600081816101f20152818161041d0152818161065b01526106f501526109a06000f3fe6080604052600436106101025760003560e01c80639494f08e11610095578063c594c91611610064578063c594c9161461030b578063dac6270d14610357578063e1a452181461036c578063e834a83414610382578063ecd52b8f146103a357600080fd5b80639494f08e1461028c5780639e02cf4e146102a15780639e4a4f45146102b9578063a4e2d634146102e657600080fd5b8063604f78b3116100d1578063604f78b3146101e0578063783659471461021457806385e8865a146102295780638da5cb5b1461026c57600080fd5b806307eac9bc1461010e57806312f0900d146101625780634107d9cb1461019a5780635867b788146101be57600080fd5b3661010957005b600080fd5b34801561011a57600080fd5b506101236103b9565b6040805196151587526020870195909552938501929092526001600160a01b031660608401526080830152151560a082015260c0015b60405180910390f35b34801561016e57600080fd5b50600254610182906001600160a01b031681565b6040516001600160a01b039091168152602001610159565b3480156101a657600080fd5b506101b060045481565b604051908152602001610159565b3480156101ca57600080fd5b506101de6101d9366004610811565b610412565b005b3480156101ec57600080fd5b506101827f000000000000000000000000000000000000000000000000000000000000000081565b34801561022057600080fd5b506101b0606481565b34801561023557600080fd5b5061024d6002546003546001600160a01b0390911691565b604080516001600160a01b039093168352602083019190915201610159565b34801561027857600080fd5b50600054610182906001600160a01b031681565b34801561029857600080fd5b506101de6105a0565b3480156102ad57600080fd5b506101b063967a760081565b3480156102c557600080fd5b506101b06102d4366004610844565b60016020526000908152604090205481565b3480156102f257600080fd5b5063967a760042105b6040519015158152602001610159565b34801561031757600080fd5b50604080518082018252601c81527f4a616e7561727920312c20323035302030303a30303a30302055544300000000602082015290516101599190610866565b34801561036357600080fd5b506101b06107cf565b34801561037857600080fd5b506101b061271081565b34801561038e57600080fd5b506000546102fb90600160a01b900460ff1681565b3480156103af57600080fd5b506101b060035481565b63967a76004210600080808080856103d25760006103e0565b6103e04263967a76006108ca565b600454600254600354600054999a93999298506001600160a01b0390911696509450600160a01b900460ff1692509050565b336001600160a01b037f0000000000000000000000000000000000000000000000000000000000000000161461045b5760405163ae24af1960e01b815260040160405180910390fd5b600061271061046b6064856108e3565b61047591906108fa565b90508060046000828254610489919061091c565b90915550506001600160a01b038416600090815260016020526040812080548492906104b690849061091c565b90915550506001600160a01b03841660009081526001602052604081205460035490919082111561050557506003819055600280546001600160a01b0319166001600160a01b03871617905560015b856001600160a01b03167f3eb1bee204720f4f9f80763bb8d745d9895ebaf66b7ebca03348da76a26ba22b8460045460405161054b929190918252602082015260400190565b60405180910390a26040805183815282151560208201526001600160a01b038816917f15edfb85674432073d141a290940360359808ddb6617d3106459124f57a48509910160405180910390a2505050505050565b63967a76004210156105d55760405163104d109160e21b815263967a7600600482015242602482015260440160405180910390fd5b600054600160a01b900460ff161561060057604051630c8d9eab60e31b815260040160405180910390fd5b6002546001600160a01b0316331461062b576040516319e59e1560e01b815260040160405180910390fd5b6000805460ff60a01b1916600160a01b1781556040516370a0823160e01b81523060048201526001600160a01b037f000000000000000000000000000000000000000000000000000000000000000016906370a0823190602401602060405180830381865afa1580156106a2573d6000803e3d6000fd5b505050506040513d601f19601f820116820180604052508101906106c6919061092f565b60025460405163a9059cbb60e01b81526001600160a01b039182166004820152602481018390529192506000917f00000000000000000000000000000000000000000000000000000000000000009091169063a9059cbb906044016020604051808303816000875af1158015610740573d6000803e3d6000fd5b505050506040513d601f19601f820116820180604052508101906107649190610948565b905080610784576040516312171d8360e31b815260040160405180910390fd5b600254604080518481524260208201526001600160a01b03909216917f5c73a8e48188652f2f66ba53f675f11e0d00b7cc7a821167b642c4bf63b4c093910160405180910390a25050565b600063967a760042106107e25750600090565b6107f04263967a76006108ca565b905090565b80356001600160a01b038116811461080c57600080fd5b919050565b60008060006060848603121561082657600080fd5b61082f846107f5565b95602085013595506040909401359392505050565b60006020828403121561085657600080fd5b61085f826107f5565b9392505050565b600060208083528351808285015260005b8181101561089357858101830151858201604001528201610877565b506000604082860101526040601f19601f8301168501019250505092915050565b634e487b7160e01b600052601160045260246000fd5b818103818111156108dd576108dd6108b4565b92915050565b80820281158282048414176108dd576108dd6108b4565b60008261091757634e487b7160e01b600052601260045260246000fd5b500490565b808201808211156108dd576108dd6108b4565b60006020828403121561094157600080fd5b5051919050565b60006020828403121561095a57600080fd5b8151801515811461085f57600080fdfea26469706673582212204f8236476ed6a88bb99f0c3c16caca68ad02f8c0736428738424130b3c69b73664736f6c63430008140033","opcodes":"PUSH1 0xA0 PUSH1 0x40 MSTORE CALLVALUE DUP1 ISZERO PUSH2 0x10 JUMPI PUSH1 0x0 DUP1 REVERT JUMPDEST POP PUSH1 0x40 MLOAD PUSH2 0xBB9 CODESIZE SUB DUP1 PUSH2 0xBB9 DUP4 CODECOPY DUP2 ADD PUSH1 0x40 DUP2 SWAP1 MSTORE PUSH2 0x2F SWAP2 PUSH2 0x1B9 JUMP JUMPDEST PUSH1 0x1 PUSH1 0x1 PUSH1 0xA0 SHL SUB DUP2 AND PUSH2 0x56 JUMPI PUSH1 0x40 MLOAD PUSH4 0xD92E233D PUSH1 0xE0 SHL DUP2 MSTORE PUSH1 0x4 ADD PUSH1 0x40 MLOAD DUP1 SWAP2 SUB SWAP1 REVERT JUMPDEST PUSH1 0x1 PUSH1 0x1 PUSH1 0xA0 SHL SUB DUP2 AND PUSH1 0x80 MSTORE PUSH1 0x0 DUP1 SLOAD PUSH1 0x1 PUSH1 0x1 PUSH1 0xA0 SHL SUB NOT AND CALLER OR SWAP1 SSTORE PUSH1 0x40 MLOAD PUSH32 0x84BAB708D340BEC5771017FBD5077E22AD1FAEDCE0BECB5855A401A0FBA1F13F SWAP1 PUSH2 0x1AB SWAP1 PUSH1 0x20 DUP1 DUP3 MSTORE PUSH1 0xCD SWAP1 DUP3 ADD MSTORE PUSH32 0x546F2077686F65766572207265616473207468697320696E20323035303A2054 PUSH1 0x40 DUP3 ADD MSTORE PUSH32 0x6869732066756E64207761732063726561746564206F6E204D61792033312C20 PUSH1 0x60 DUP3 ADD MSTORE PUSH32 0x323032362C2062792070656F706C652077686F2062656C696576656420746865 PUSH1 0x80 DUP3 ADD MSTORE PUSH32 0x20706C616E65742077617320776F72746820736176696E672E20457665727920 PUSH1 0xA0 DUP3 ADD MSTORE PUSH32 0x6672616374696F6E206F662045434F58206865726520726570726573656E7473 PUSH1 0xC0 DUP3 ADD MSTORE PUSH32 0x2061207265616C20616374696F6E2E20557365207468697320776973656C792E PUSH1 0xE0 DUP3 ADD MSTORE PUSH13 0x10169022B1B7AC16101918191B PUSH1 0x99 SHL PUSH2 0x100 DUP3 ADD MSTORE PUSH2 0x120 ADD SWAP1 JUMP JUMPDEST PUSH1 0x40 MLOAD DUP1 SWAP2 SUB SWAP1 LOG1 POP PUSH2 0x1E9 JUMP JUMPDEST PUSH1 0x0 PUSH1 0x20 DUP3 DUP5 SUB SLT ISZERO PUSH2 0x1CB JUMPI PUSH1 0x0 DUP1 REVERT JUMPDEST DUP2 MLOAD PUSH1 0x1 PUSH1 0x1 PUSH1 0xA0 SHL SUB DUP2 AND DUP2 EQ PUSH2 0x1E2 JUMPI PUSH1 0x0 DUP1 REVERT JUMPDEST SWAP4 SWAP3 POP POP POP JUMP JUMPDEST PUSH1 0x80 MLOAD PUSH2 0x9A0 PUSH2 0x219 PUSH1 0x0 CODECOPY PUSH1 0x0 DUP2 DUP2 PUSH2 0x1F2 ADD MSTORE DUP2 DUP2 PUSH2 0x41D ADD MSTORE DUP2 DUP2 PUSH2 0x65B ADD MSTORE PUSH2 0x6F5 ADD MSTORE PUSH2 0x9A0 PUSH1 0x0 RETURN INVALID PUSH1 0x80 PUSH1 0x40 MSTORE PUSH1 0x4 CALLDATASIZE LT PUSH2 0x102 JUMPI PUSH1 0x0 CALLDATALOAD PUSH1 0xE0 SHR DUP1 PUSH4 0x9494F08E GT PUSH2 0x95 JUMPI DUP1 PUSH4 0xC594C916 GT PUSH2 0x64 JUMPI DUP1 PUSH4 0xC594C916 EQ PUSH2 0x30B JUMPI DUP1 PUSH4 0xDAC6270D EQ PUSH2 0x357 JUMPI DUP1 PUSH4 0xE1A45218 EQ PUSH2 0x36C JUMPI DUP1 PUSH4 0xE834A834 EQ PUSH2 0x382 JUMPI DUP1 PUSH4 0xECD52B8F EQ PUSH2 0x3A3 JUMPI PUSH1 0x0 DUP1 REVERT JUMPDEST DUP1 PUSH4 0x9494F08E EQ PUSH2 0x28C JUMPI DUP1 PUSH4 0x9E02CF4E EQ PUSH2 0x2A1 JUMPI DUP1 PUSH4 0x9E4A4F45 EQ PUSH2 0x2B9 JUMPI DUP1 PUSH4 0xA4E2D634 EQ PUSH2 0x2E6 JUMPI PUSH1 0x0 DUP1 REVERT JUMPDEST DUP1 PUSH4 0x604F78B3 GT PUSH2 0xD1 JUMPI DUP1 PUSH4 0x604F78B3 EQ PUSH2 0x1E0 JUMPI DUP1 PUSH4 0x78365947 EQ PUSH2 0x214 JUMPI DUP1 PUSH4 0x85E8865A EQ PUSH2 0x229 JUMPI DUP1 PUSH4 0x8DA5CB5B EQ PUSH2 0x26C JUMPI PUSH1 0x0 DUP1 REVERT JUMPDEST DUP1 PUSH4 0x7EAC9BC EQ PUSH2 0x10E JUMPI DUP1 PUSH4 0x12F0900D EQ PUSH2 0x162 JUMPI DUP1 PUSH4 0x4107D9CB EQ PUSH2 0x19A JUMPI DUP1 PUSH4 0x5867B788 EQ PUSH2 0x1BE JUMPI PUSH1 0x0 DUP1 REVERT JUMPDEST CALLDATASIZE PUSH2 0x109 JUMPI STOP JUMPDEST PUSH1 0x0 DUP1 REVERT JUMPDEST CALLVALUE DUP1 ISZERO PUSH2 0x11A JUMPI PUSH1 0x0 DUP1 REVERT JUMPDEST POP PUSH2 0x123 PUSH2 0x3B9 JUMP JUMPDEST PUSH1 0x40 DUP1 MLOAD SWAP7 ISZERO ISZERO DUP8 MSTORE PUSH1 0x20 DUP8 ADD SWAP6 SWAP1 SWAP6 MSTORE SWAP4 DUP6 ADD SWAP3 SWAP1 SWAP3 MSTORE PUSH1 0x1 PUSH1 0x1 PUSH1 0xA0 SHL SUB AND PUSH1 0x60 DUP5 ADD MSTORE PUSH1 0x80 DUP4 ADD MSTORE ISZERO ISZERO PUSH1 0xA0 DUP3 ADD MSTORE PUSH1 0xC0 ADD JUMPDEST PUSH1 0x40 MLOAD DUP1 SWAP2 SUB SWAP1 RETURN JUMPDEST CALLVALUE DUP1 ISZERO PUSH2 0x16E JUMPI PUSH1 0x0 DUP1 REVERT JUMPDEST POP PUSH1 0x2 SLOAD PUSH2 0x182 SWAP1 PUSH1 0x1 PUSH1 0x1 PUSH1 0xA0 SHL SUB AND DUP2 JUMP JUMPDEST PUSH1 0x40 MLOAD PUSH1 0x1 PUSH1 0x1 PUSH1 0xA0 SHL SUB SWAP1 SWAP2 AND DUP2 MSTORE PUSH1 0x20 ADD PUSH2 0x159 JUMP JUMPDEST CALLVALUE DUP1 ISZERO PUSH2 0x1A6 JUMPI PUSH1 0x0 DUP1 REVERT JUMPDEST POP PUSH2 0x1B0 PUSH1 0x4 SLOAD DUP2 JUMP JUMPDEST PUSH1 0x40 MLOAD SWAP1 DUP2 MSTORE PUSH1 0x20 ADD PUSH2 0x159 JUMP JUMPDEST CALLVALUE DUP1 ISZERO PUSH2 0x1CA JUMPI PUSH1 0x0 DUP1 REVERT JUMPDEST POP PUSH2 0x1DE PUSH2 0x1D9 CALLDATASIZE PUSH1 0x4 PUSH2 0x811 JUMP JUMPDEST PUSH2 0x412 JUMP JUMPDEST STOP JUMPDEST CALLVALUE DUP1 ISZERO PUSH2 0x1EC JUMPI PUSH1 0x0 DUP1 REVERT JUMPDEST POP PUSH2 0x182 PUSH32 0x0 DUP2 JUMP JUMPDEST CALLVALUE DUP1 ISZERO PUSH2 0x220 JUMPI PUSH1 0x0 DUP1 REVERT JUMPDEST POP PUSH2 0x1B0 PUSH1 0x64 DUP2 JUMP JUMPDEST CALLVALUE DUP1 ISZERO PUSH2 0x235 JUMPI PUSH1 0x0 DUP1 REVERT JUMPDEST POP PUSH2 0x24D PUSH1 0x2 SLOAD PUSH1 0x3 SLOAD PUSH1 0x1 PUSH1 0x1 PUSH1 0xA0 SHL SUB SWAP1 SWAP2 AND SWAP2 JUMP JUMPDEST PUSH1 0x40 DUP1 MLOAD PUSH1 0x1 PUSH1 0x1 PUSH1 0xA0 SHL SUB SWAP1 SWAP4 AND DUP4 MSTORE PUSH1 0x20 DUP4 ADD SWAP2 SWAP1 SWAP2 MSTORE ADD PUSH2 0x159 JUMP JUMPDEST CALLVALUE DUP1 ISZERO PUSH2 0x278 JUMPI PUSH1 0x0 DUP1 REVERT JUMPDEST POP PUSH1 0x0 SLOAD PUSH2 0x182 SWAP1 PUSH1 0x1 PUSH1 0x1 PUSH1 0xA0 SHL SUB AND DUP2 JUMP JUMPDEST CALLVALUE DUP1 ISZERO PUSH2 0x298 JUMPI PUSH1 0x0 DUP1 REVERT JUMPDEST POP PUSH2 0x1DE PUSH2 0x5A0 JUMP JUMPDEST CALLVALUE DUP1 ISZERO PUSH2 0x2AD JUMPI PUSH1 0x0 DUP1 REVERT JUMPDEST POP PUSH2 0x1B0 PUSH4 0x967A7600 DUP2 JUMP JUMPDEST CALLVALUE DUP1 ISZERO PUSH2 0x2C5 JUMPI PUSH1 0x0 DUP1 REVERT JUMPDEST POP PUSH2 0x1B0 PUSH2 0x2D4 CALLDATASIZE PUSH1 0x4 PUSH2 0x844 JUMP JUMPDEST PUSH1 0x1 PUSH1 0x20 MSTORE PUSH1 0x0 SWAP1 DUP2 MSTORE PUSH1 0x40 SWAP1 KECCAK256 SLOAD DUP2 JUMP JUMPDEST CALLVALUE DUP1 ISZERO PUSH2 0x2F2 JUMPI PUSH1 0x0 DUP1 REVERT JUMPDEST POP PUSH4 0x967A7600 TIMESTAMP LT JUMPDEST PUSH1 0x40 MLOAD SWAP1 ISZERO ISZERO DUP2 MSTORE PUSH1 0x20 ADD PUSH2 0x159 JUMP JUMPDEST CALLVALUE DUP1 ISZERO PUSH2 0x317 JUMPI PUSH1 0x0 DUP1 REVERT JUMPDEST POP PUSH1 0x40 DUP1 MLOAD DUP1 DUP3 ADD DUP3 MSTORE PUSH1 0x1C DUP2 MSTORE PUSH32 0x4A616E7561727920312C20323035302030303A30303A30302055544300000000 PUSH1 0x20 DUP3 ADD MSTORE SWAP1 MLOAD PUSH2 0x159 SWAP2 SWAP1 PUSH2 0x866 JUMP JUMPDEST CALLVALUE DUP1 ISZERO PUSH2 0x363 JUMPI PUSH1 0x0 DUP1 REVERT JUMPDEST POP PUSH2 0x1B0 PUSH2 0x7CF JUMP JUMPDEST CALLVALUE DUP1 ISZERO PUSH2 0x378 JUMPI PUSH1 0x0 DUP1 REVERT JUMPDEST POP PUSH2 0x1B0 PUSH2 0x2710 DUP2 JUMP JUMPDEST CALLVALUE DUP1 ISZERO PUSH2 0x38E JUMPI PUSH1 0x0 DUP1 REVERT JUMPDEST POP PUSH1 0x0 SLOAD PUSH2 0x2FB SWAP1 PUSH1 0x1 PUSH1 0xA0 SHL SWAP1 DIV PUSH1 0xFF AND DUP2 JUMP JUMPDEST CALLVALUE DUP1 ISZERO PUSH2 0x3AF JUMPI PUSH1 0x0 DUP1 REVERT JUMPDEST POP PUSH2 0x1B0 PUSH1 0x3 SLOAD DUP2 JUMP JUMPDEST PUSH4 0x967A7600 TIMESTAMP LT PUSH1 0x0 DUP1 DUP1 DUP1 DUP1 DUP6 PUSH2 0x3D2 JUMPI PUSH1 0x0 PUSH2 0x3E0 JUMP JUMPDEST PUSH2 0x3E0 TIMESTAMP PUSH4 0x967A7600 PUSH2 0x8CA JUMP JUMPDEST PUSH1 0x4 SLOAD PUSH1 0x2 SLOAD PUSH1 0x3 SLOAD PUSH1 0x0 SLOAD SWAP10 SWAP11 SWAP4 SWAP10 SWAP3 SWAP9 POP PUSH1 0x1 PUSH1 0x1 PUSH1 0xA0 SHL SUB SWAP1 SWAP2 AND SWAP7 POP SWAP5 POP PUSH1 0x1 PUSH1 0xA0 SHL SWAP1 DIV PUSH1 0xFF AND SWAP3 POP SWAP1 POP JUMP JUMPDEST CALLER PUSH1 0x1 PUSH1 0x1 PUSH1 0xA0 SHL SUB PUSH32 0x0 AND EQ PUSH2 0x45B JUMPI PUSH1 0x40 MLOAD PUSH4 0xAE24AF19 PUSH1 0xE0 SHL DUP2 MSTORE PUSH1 0x4 ADD PUSH1 0x40 MLOAD DUP1 SWAP2 SUB SWAP1 REVERT JUMPDEST PUSH1 0x0 PUSH2 0x2710 PUSH2 0x46B PUSH1 0x64 DUP6 PUSH2 0x8E3 JUMP JUMPDEST PUSH2 0x475 SWAP2 SWAP1 PUSH2 0x8FA JUMP JUMPDEST SWAP1 POP DUP1 PUSH1 0x4 PUSH1 0x0 DUP3 DUP3 SLOAD PUSH2 0x489 SWAP2 SWAP1 PUSH2 0x91C JUMP JUMPDEST SWAP1 SWAP2 SSTORE POP POP PUSH1 0x1 PUSH1 0x1 PUSH1 0xA0 SHL SUB DUP5 AND PUSH1 0x0 SWAP1 DUP2 MSTORE PUSH1 0x1 PUSH1 0x20 MSTORE PUSH1 0x40 DUP2 KECCAK256 DUP1 SLOAD DUP5 SWAP3 SWAP1 PUSH2 0x4B6 SWAP1 DUP5 SWAP1 PUSH2 0x91C JUMP JUMPDEST SWAP1 SWAP2 SSTORE POP POP PUSH1 0x1 PUSH1 0x1 PUSH1 0xA0 SHL SUB DUP5 AND PUSH1 0x0 SWAP1 DUP2 MSTORE PUSH1 0x1 PUSH1 0x20 MSTORE PUSH1 0x40 DUP2 KECCAK256 SLOAD PUSH1 0x3 SLOAD SWAP1 SWAP2 SWAP1 DUP3 GT ISZERO PUSH2 0x505 JUMPI POP PUSH1 0x3 DUP2 SWAP1 SSTORE PUSH1 0x2 DUP1 SLOAD PUSH1 0x1 PUSH1 0x1 PUSH1 0xA0 SHL SUB NOT AND PUSH1 0x1 PUSH1 0x1 PUSH1 0xA0 SHL SUB DUP8 AND OR SWAP1 SSTORE PUSH1 0x1 JUMPDEST DUP6 PUSH1 0x1 PUSH1 0x1 PUSH1 0xA0 SHL SUB AND PUSH32 0x3EB1BEE204720F4F9F80763BB8D745D9895EBAF66B7EBCA03348DA76A26BA22B DUP5 PUSH1 0x4 SLOAD PUSH1 0x40 MLOAD PUSH2 0x54B SWAP3 SWAP2 SWAP1 SWAP2 DUP3 MSTORE PUSH1 0x20 DUP3 ADD MSTORE PUSH1 0x40 ADD SWAP1 JUMP JUMPDEST PUSH1 0x40 MLOAD DUP1 SWAP2 SUB SWAP1 LOG2 PUSH1 0x40 DUP1 MLOAD DUP4 DUP2 MSTORE DUP3 ISZERO ISZERO PUSH1 0x20 DUP3 ADD MSTORE PUSH1 0x1 PUSH1 0x1 PUSH1 0xA0 SHL SUB DUP9 AND SWAP2 PUSH32 0x15EDFB85674432073D141A290940360359808DDB6617D3106459124F57A48509 SWAP2 ADD PUSH1 0x40 MLOAD DUP1 SWAP2 SUB SWAP1 LOG2 POP POP POP POP POP POP JUMP JUMPDEST PUSH4 0x967A7600 TIMESTAMP LT ISZERO PUSH2 0x5D5 JUMPI PUSH1 0x40 MLOAD PUSH4 0x104D1091 PUSH1 0xE2 SHL DUP2 MSTORE PUSH4 0x967A7600 PUSH1 0x4 DUP3 ADD MSTORE TIMESTAMP PUSH1 0x24 DUP3 ADD MSTORE PUSH1 0x44 ADD PUSH1 0x40 MLOAD DUP1 SWAP2 SUB SWAP1 REVERT JUMPDEST PUSH1 0x0 SLOAD PUSH1 0x1 PUSH1 0xA0 SHL SWAP1 DIV PUSH1 0xFF AND ISZERO PUSH2 0x600 JUMPI PUSH1 0x40 MLOAD PUSH4 0xC8D9EAB PUSH1 0xE3 SHL DUP2 MSTORE PUSH1 0x4 ADD PUSH1 0x40 MLOAD DUP1 SWAP2 SUB SWAP1 REVERT JUMPDEST PUSH1 0x2 SLOAD PUSH1 0x1 PUSH1 0x1 PUSH1 0xA0 SHL SUB AND CALLER EQ PUSH2 0x62B JUMPI PUSH1 0x40 MLOAD PUSH4 0x19E59E15 PUSH1 0xE0 SHL DUP2 MSTORE PUSH1 0x4 ADD PUSH1 0x40 MLOAD DUP1 SWAP2 SUB SWAP1 REVERT JUMPDEST PUSH1 0x0 DUP1 SLOAD PUSH1 0xFF PUSH1 0xA0 SHL NOT AND PUSH1 0x1 PUSH1 0xA0 SHL OR DUP2 SSTORE PUSH1 0x40 MLOAD PUSH4 0x70A08231 PUSH1 0xE0 SHL DUP2 MSTORE ADDRESS PUSH1 0x4 DUP3 ADD MSTORE PUSH1 0x1 PUSH1 0x1 PUSH1 0xA0 SHL SUB PUSH32 0x0 AND SWAP1 PUSH4 0x70A08231 SWAP1 PUSH1 0x24 ADD PUSH1 0x20 PUSH1 0x40 MLOAD DUP1 DUP4 SUB DUP2 DUP7 GAS STATICCALL ISZERO DUP1 ISZERO PUSH2 0x6A2 JUMPI RETURNDATASIZE PUSH1 0x0 DUP1 RETURNDATACOPY RETURNDATASIZE PUSH1 0x0 REVERT JUMPDEST POP POP POP POP PUSH1 0x40 MLOAD RETURNDATASIZE PUSH1 0x1F NOT PUSH1 0x1F DUP3 ADD AND DUP3 ADD DUP1 PUSH1 0x40 MSTORE POP DUP2 ADD SWAP1 PUSH2 0x6C6 SWAP2 SWAP1 PUSH2 0x92F JUMP JUMPDEST PUSH1 0x2 SLOAD PUSH1 0x40 MLOAD PUSH4 0xA9059CBB PUSH1 0xE0 SHL DUP2 MSTORE PUSH1 0x1 PUSH1 0x1 PUSH1 0xA0 SHL SUB SWAP2 DUP3 AND PUSH1 0x4 DUP3 ADD MSTORE PUSH1 0x24 DUP2 ADD DUP4 SWAP1 MSTORE SWAP2 SWAP3 POP PUSH1 0x0 SWAP2 PUSH32 0x0 SWAP1 SWAP2 AND SWAP1 PUSH4 0xA9059CBB SWAP1 PUSH1 0x44 ADD PUSH1 0x20 PUSH1 0x40 MLOAD DUP1 DUP4 SUB DUP2 PUSH1 0x0 DUP8 GAS CALL ISZERO DUP1 ISZERO PUSH2 0x740 JUMPI RETURNDATASIZE PUSH1 0x0 DUP1 RETURNDATACOPY RETURNDATASIZE PUSH1 0x0 REVERT JUMPDEST POP POP POP POP PUSH1 0x40 MLOAD RETURNDATASIZE PUSH1 0x1F NOT PUSH1 0x1F DUP3 ADD AND DUP3 ADD DUP1 PUSH1 0x40 MSTORE POP DUP2 ADD SWAP1 PUSH2 0x764 SWAP2 SWAP1 PUSH2 0x948 JUMP JUMPDEST SWAP1 POP DUP1 PUSH2 0x784 JUMPI PUSH1 0x40 MLOAD PUSH4 0x12171D83 PUSH1 0xE3 SHL DUP2 MSTORE PUSH1 0x4 ADD PUSH1 0x40 MLOAD DUP1 SWAP2 SUB SWAP1 REVERT JUMPDEST PUSH1 0x2 SLOAD PUSH1 0x40 DUP1 MLOAD DUP5 DUP2 MSTORE TIMESTAMP PUSH1 0x20 DUP3 ADD MSTORE PUSH1 0x1 PUSH1 0x1 PUSH1 0xA0 SHL SUB SWAP1 SWAP3 AND SWAP2 PUSH32 0x5C73A8E48188652F2F66BA53F675F11E0D00B7CC7A821167B642C4BF63B4C093 SWAP2 ADD PUSH1 0x40 MLOAD DUP1 SWAP2 SUB SWAP1 LOG2 POP POP JUMP JUMPDEST PUSH1 0x0 PUSH4 0x967A7600 TIMESTAMP LT PUSH2 0x7E2 JUMPI POP PUSH1 0x0 SWAP1 JUMP JUMPDEST PUSH2 0x7F0 TIMESTAMP PUSH4 0x967A7600 PUSH2 0x8CA JUMP JUMPDEST SWAP1 POP SWAP1 JUMP JUMPDEST DUP1 CALLDATALOAD PUSH1 0x1 PUSH1 0x1 PUSH1 0xA0 SHL SUB DUP2 AND DUP2 EQ PUSH2 0x80C JUMPI PUSH1 0x0 DUP1 REVERT JUMPDEST SWAP2 SWAP1 POP JUMP JUMPDEST PUSH1 0x0 DUP1 PUSH1 0x0 PUSH1 0x60 DUP5 DUP7 SUB SLT ISZERO PUSH2 0x826 JUMPI PUSH1 0x0 DUP1 REVERT JUMPDEST PUSH2 0x82F DUP5 PUSH2 0x7F5 JUMP JUMPDEST SWAP6 PUSH1 0x20 DUP6 ADD CALLDATALOAD SWAP6 POP PUSH1 0x40 SWAP1 SWAP5 ADD CALLDATALOAD SWAP4 SWAP3 POP POP POP JUMP JUMPDEST PUSH1 0x0 PUSH1 0x20 DUP3 DUP5 SUB SLT ISZERO PUSH2 0x856 JUMPI PUSH1 0x0 DUP1 REVERT JUMPDEST PUSH2 0x85F DUP3 PUSH2 0x7F5 JUMP JUMPDEST SWAP4 SWAP3 POP POP POP JUMP JUMPDEST PUSH1 0x0 PUSH1 0x20 DUP1 DUP4 MSTORE DUP4 MLOAD DUP1 DUP3 DUP6 ADD MSTORE PUSH1 0x0 JUMPDEST DUP2 DUP2 LT ISZERO PUSH2 0x893 JUMPI DUP6 DUP2 ADD DUP4 ADD MLOAD DUP6 DUP3 ADD PUSH1 0x40 ADD MSTORE DUP3 ADD PUSH2 0x877 JUMP JUMPDEST POP PUSH1 0x0 PUSH1 0x40 DUP3 DUP7 ADD ADD MSTORE PUSH1 0x40 PUSH1 0x1F NOT PUSH1 0x1F DUP4 ADD AND DUP6 ADD ADD SWAP3 POP POP POP SWAP3 SWAP2 POP POP JUMP JUMPDEST PUSH4 0x4E487B71 PUSH1 0xE0 SHL PUSH1 0x0 MSTORE PUSH1 0x11 PUSH1 0x4 MSTORE PUSH1 0x24 PUSH1 0x0 REVERT JUMPDEST DUP2 DUP2 SUB DUP2 DUP2 GT ISZERO PUSH2 0x8DD JUMPI PUSH2 0x8DD PUSH2 0x8B4 JUMP JUMPDEST SWAP3 SWAP2 POP POP JUMP JUMPDEST DUP1 DUP3 MUL DUP2 ISZERO DUP3 DUP3 DIV DUP5 EQ OR PUSH2 0x8DD JUMPI PUSH2 0x8DD PUSH2 0x8B4 JUMP JUMPDEST PUSH1 0x0 DUP3 PUSH2 0x917 JUMPI PUSH4 0x4E487B71 PUSH1 0xE0 SHL PUSH1 0x0 MSTORE PUSH1 0x12 PUSH1 0x4 MSTORE PUSH1 0x24 PUSH1 0x0 REVERT JUMPDEST POP DIV SWAP1 JUMP JUMPDEST DUP1 DUP3 ADD DUP1 DUP3 GT ISZERO PUSH2 0x8DD JUMPI PUSH2 0x8DD PUSH2 0x8B4 JUMP JUMPDEST PUSH1 0x0 PUSH1 0x20 DUP3 DUP5 SUB SLT ISZERO PUSH2 0x941 JUMPI PUSH1 0x0 DUP1 REVERT JUMPDEST POP MLOAD SWAP2 SWAP1 POP JUMP JUMPDEST PUSH1 0x0 PUSH1 0x20 DUP3 DUP5 SUB SLT ISZERO PUSH2 0x95A JUMPI PUSH1 0x0 DUP1 REVERT JUMPDEST DUP2 MLOAD DUP1 ISZERO ISZERO DUP2 EQ PUSH2 0x85F JUMPI PUSH1 0x0 DUP1 REVERT INVALID LOG2 PUSH5 0x6970667358 0x22 SLT KECCAK256 0x4F DUP3 CALLDATASIZE SELFBALANCE PUSH15 0xD6A88BB99F0C3C16CACA68AD02F8C0 PUSH20 0x6428738424130B3C69B73664736F6C6343000814 STOP CALLER "},"methodIdentifiers":{"BPS_DENOMINATOR()":"e1a45218","ENDOWMENT_RATE_BPS()":"78365947","UNLOCK_TIMESTAMP()":"9e02cf4e","claimed()":"e834a834","currentTopHolder()":"12f0900d","currentTopScore()":"ecd52b8f","ecoCoinContract()":"604f78b3","getFundStatus()":"07eac9bc","getTimeRemaining()":"dac6270d","getTopHolder()":"85e8865a","getUnlockDate()":"c594c916","isLocked()":"a4e2d634","owner()":"8da5cb5b","proofOfPlanetScore(address)":"9e4a4f45","recordContribution(address,uint256,uint256)":"5867b788","totalAccumulated()":"4107d9cb","unlockEndowment()":"9494f08e"}}}}}