{"contracts/EcoCoin.sol":{"EcoCoin":{"abi":[{"inputs":[{"internalType":"address","name":"initialOwner","type":"address"}],"stateMutability":"nonpayable","type":"constructor"},{"inputs":[],"name":"ApprovalExpiredError","type":"error"},{"inputs":[{"internalType":"uint256","name":"score","type":"uint256"},{"internalType":"uint256","name":"minimum","type":"uint256"}],"name":"ConfidenceScoreTooLow","type":"error"},{"inputs":[],"name":"DuplicateActionHash","type":"error"},{"inputs":[{"internalType":"address","name":"spender","type":"address"},{"internalType":"uint256","name":"allowance","type":"uint256"},{"internalType":"uint256","name":"needed","type":"uint256"}],"name":"ERC20InsufficientAllowance","type":"error"},{"inputs":[{"internalType":"address","name":"sender","type":"address"},{"internalType":"uint256","name":"balance","type":"uint256"},{"internalType":"uint256","name":"needed","type":"uint256"}],"name":"ERC20InsufficientBalance","type":"error"},{"inputs":[{"internalType":"address","name":"approver","type":"address"}],"name":"ERC20InvalidApprover","type":"error"},{"inputs":[{"internalType":"address","name":"receiver","type":"address"}],"name":"ERC20InvalidReceiver","type":"error"},{"inputs":[{"internalType":"address","name":"sender","type":"address"}],"name":"ERC20InvalidSender","type":"error"},{"inputs":[{"internalType":"address","name":"spender","type":"address"}],"name":"ERC20InvalidSpender","type":"error"},{"inputs":[],"name":"EnforcedPause","type":"error"},{"inputs":[],"name":"ExceedsMaxPerMintLimit","type":"error"},{"inputs":[],"name":"ExceedsMaxSupplyCeiling","type":"error"},{"inputs":[],"name":"ExpectedPause","type":"error"},{"inputs":[{"internalType":"uint256","name":"got","type":"uint256"},{"internalType":"uint256","name":"needed","type":"uint256"}],"name":"InsufficientMultisigApprovals","type":"error"},{"inputs":[],"name":"InvalidZeroKnowledgeProof","type":"error"},{"inputs":[],"name":"MultisigRequired","type":"error"},{"inputs":[{"internalType":"address","name":"owner","type":"address"}],"name":"OwnableInvalidOwner","type":"error"},{"inputs":[{"internalType":"address","name":"account","type":"address"}],"name":"OwnableUnauthorizedAccount","type":"error"},{"inputs":[{"internalType":"address","name":"wallet","type":"address"},{"internalType":"uint256","name":"dailyCount","type":"uint256"}],"name":"RateLimitExceeded","type":"error"},{"inputs":[],"name":"ReentrancyGuardReentrantCall","type":"error"},{"inputs":[],"name":"UnauthorizedOracle","type":"error"},{"inputs":[],"name":"ZeroAddressForbidden","type":"error"},{"anonymous":false,"inputs":[{"indexed":true,"internalType":"address","name":"owner","type":"address"},{"indexed":true,"internalType":"address","name":"spender","type":"address"},{"indexed":false,"internalType":"uint256","name":"value","type":"uint256"}],"name":"Approval","type":"event"},{"anonymous":false,"inputs":[{"indexed":true,"internalType":"bytes32","name":"actionId","type":"bytes32"}],"name":"ApprovalExpired","type":"event"},{"anonymous":false,"inputs":[{"indexed":true,"internalType":"address","name":"user","type":"address"},{"indexed":false,"internalType":"uint256","name":"amount","type":"uint256"},{"indexed":false,"internalType":"uint256","name":"co2","type":"uint256"}],"name":"ContributionSentToQuantumLock","type":"event"},{"anonymous":false,"inputs":[{"indexed":true,"internalType":"address","name":"recipient","type":"address"},{"indexed":false,"internalType":"uint256","name":"amount","type":"uint256"},{"indexed":true,"internalType":"bytes32","name":"imageHash","type":"bytes32"},{"indexed":false,"internalType":"uint256","name":"confidenceScore","type":"uint256"}],"name":"EcoRewardMinted","type":"event"},{"anonymous":false,"inputs":[{"indexed":true,"internalType":"bytes32","name":"actionHash","type":"bytes32"}],"name":"GovernanceActionExecuted","type":"event"},{"anonymous":false,"inputs":[{"indexed":true,"internalType":"bytes32","name":"actionHash","type":"bytes32"}],"name":"GovernanceActionProposed","type":"event"},{"anonymous":false,"inputs":[{"indexed":false,"internalType":"uint256","name":"oldMin","type":"uint256"},{"indexed":false,"internalType":"uint256","name":"newMin","type":"uint256"}],"name":"MinConfidenceUpdated","type":"event"},{"anonymous":false,"inputs":[{"indexed":true,"internalType":"bytes32","name":"actionId","type":"bytes32"},{"indexed":true,"internalType":"address","name":"oracle","type":"address"},{"indexed":false,"internalType":"uint256","name":"approvals","type":"uint256"}],"name":"MintApproved","type":"event"},{"anonymous":false,"inputs":[{"indexed":true,"internalType":"address","name":"oracle","type":"address"}],"name":"OracleAdded","type":"event"},{"anonymous":false,"inputs":[{"indexed":true,"internalType":"address","name":"oracle","type":"address"}],"name":"OracleRemoved","type":"event"},{"anonymous":false,"inputs":[{"indexed":true,"internalType":"address","name":"previousOwner","type":"address"},{"indexed":true,"internalType":"address","name":"newOwner","type":"address"}],"name":"OwnershipTransferStarted","type":"event"},{"anonymous":false,"inputs":[{"indexed":true,"internalType":"address","name":"previousOwner","type":"address"},{"indexed":true,"internalType":"address","name":"newOwner","type":"address"}],"name":"OwnershipTransferred","type":"event"},{"anonymous":false,"inputs":[{"indexed":false,"internalType":"address","name":"account","type":"address"}],"name":"Paused","type":"event"},{"anonymous":false,"inputs":[{"indexed":true,"internalType":"address","name":"oldAddr","type":"address"},{"indexed":true,"internalType":"address","name":"newAddr","type":"address"}],"name":"QuantumLockUpdated","type":"event"},{"anonymous":false,"inputs":[{"indexed":true,"internalType":"address","name":"wallet","type":"address"},{"indexed":false,"internalType":"uint256","name":"dailyCount","type":"uint256"}],"name":"RateLimitHit","type":"event"},{"anonymous":false,"inputs":[{"indexed":true,"internalType":"address","name":"from","type":"address"},{"indexed":true,"internalType":"address","name":"to","type":"address"},{"indexed":false,"internalType":"uint256","name":"value","type":"uint256"}],"name":"Transfer","type":"event"},{"anonymous":false,"inputs":[{"indexed":false,"internalType":"address","name":"account","type":"address"}],"name":"Unpaused","type":"event"},{"anonymous":false,"inputs":[{"indexed":true,"internalType":"address","name":"oldVerifier","type":"address"},{"indexed":true,"internalType":"address","name":"newVerifier","type":"address"}],"name":"ZkVerifierUpdated","type":"event"},{"inputs":[],"name":"APPROVAL_TIMEOUT","outputs":[{"internalType":"uint256","name":"","type":"uint256"}],"stateMutability":"view","type":"function"},{"inputs":[],"name":"BPS_DENOMINATOR","outputs":[{"internalType":"uint256","name":"","type":"uint256"}],"stateMutability":"view","type":"function"},{"inputs":[],"name":"BURN_TAX_BPS","outputs":[{"internalType":"uint256","name":"","type":"uint256"}],"stateMutability":"view","type":"function"},{"inputs":[],"name":"DAY_IN_SECONDS","outputs":[{"internalType":"uint256","name":"","type":"uint256"}],"stateMutability":"view","type":"function"},{"inputs":[],"name":"MAX_MINTS_PER_DAY","outputs":[{"internalType":"uint256","name":"","type":"uint256"}],"stateMutability":"view","type":"function"},{"inputs":[],"name":"MAX_PER_MINT","outputs":[{"internalType":"uint256","name":"","type":"uint256"}],"stateMutability":"view","type":"function"},{"inputs":[],"name":"MAX_SUPPLY","outputs":[{"internalType":"uint256","name":"","type":"uint256"}],"stateMutability":"view","type":"function"},{"inputs":[],"name":"MIN_CONFIDENCE_BPS","outputs":[{"internalType":"uint256","name":"","type":"uint256"}],"stateMutability":"view","type":"function"},{"inputs":[],"name":"MULTISIG_THRESHOLD","outputs":[{"internalType":"uint256","name":"","type":"uint256"}],"stateMutability":"view","type":"function"},{"inputs":[],"name":"REQUIRED_APPROVALS","outputs":[{"internalType":"uint256","name":"","type":"uint256"}],"stateMutability":"view","type":"function"},{"inputs":[],"name":"acceptOwnership","outputs":[],"stateMutability":"nonpayable","type":"function"},{"inputs":[{"internalType":"bytes32","name":"","type":"bytes32"}],"name":"actionCO2NanoGrams","outputs":[{"internalType":"uint256","name":"","type":"uint256"}],"stateMutability":"view","type":"function"},{"inputs":[{"internalType":"bytes32","name":"","type":"bytes32"}],"name":"actionConfidenceScore","outputs":[{"internalType":"uint256","name":"","type":"uint256"}],"stateMutability":"view","type":"function"},{"inputs":[{"internalType":"address","name":"oracle","type":"address"}],"name":"addOracle","outputs":[],"stateMutability":"nonpayable","type":"function"},{"inputs":[{"internalType":"address","name":"owner","type":"address"},{"internalType":"address","name":"spender","type":"address"}],"name":"allowance","outputs":[{"internalType":"uint256","name":"","type":"uint256"}],"stateMutability":"view","type":"function"},{"inputs":[{"internalType":"address","name":"spender","type":"address"},{"internalType":"uint256","name":"value","type":"uint256"}],"name":"approve","outputs":[{"internalType":"bool","name":"","type":"bool"}],"stateMutability":"nonpayable","type":"function"},{"inputs":[{"internalType":"address","name":"recipient","type":"address"},{"internalType":"uint256","name":"amount","type":"uint256"},{"internalType":"bytes32","name":"actionId","type":"bytes32"}],"name":"approveMint","outputs":[],"stateMutability":"nonpayable","type":"function"},{"inputs":[{"internalType":"address","name":"","type":"address"}],"name":"authorizedOracles","outputs":[{"internalType":"bool","name":"","type":"bool"}],"stateMutability":"view","type":"function"},{"inputs":[{"internalType":"address","name":"account","type":"address"}],"name":"balanceOf","outputs":[{"internalType":"uint256","name":"","type":"uint256"}],"stateMutability":"view","type":"function"},{"inputs":[{"internalType":"uint256","name":"value","type":"uint256"}],"name":"burn","outputs":[],"stateMutability":"nonpayable","type":"function"},{"inputs":[{"internalType":"address","name":"account","type":"address"},{"internalType":"uint256","name":"value","type":"uint256"}],"name":"burnFrom","outputs":[],"stateMutability":"nonpayable","type":"function"},{"inputs":[],"name":"decimals","outputs":[{"internalType":"uint8","name":"","type":"uint8"}],"stateMutability":"view","type":"function"},{"inputs":[{"internalType":"address","name":"wallet","type":"address"}],"name":"getDailyMintCount","outputs":[{"internalType":"uint256","name":"","type":"uint256"}],"stateMutability":"view","type":"function"},{"inputs":[],"name":"minConfidenceBps","outputs":[{"internalType":"uint256","name":"","type":"uint256"}],"stateMutability":"view","type":"function"},{"inputs":[{"internalType":"address","name":"recipient","type":"address"},{"internalType":"uint256","name":"amount","type":"uint256"},{"internalType":"bytes32","name":"imageHash","type":"bytes32"},{"internalType":"bytes32","name":"nullifier","type":"bytes32"},{"components":[{"internalType":"uint256[2]","name":"a","type":"uint256[2]"},{"internalType":"uint256[2][2]","name":"b","type":"uint256[2][2]"},{"internalType":"uint256[2]","name":"c","type":"uint256[2]"}],"internalType":"struct EcoCoin.ZkProof","name":"proof","type":"tuple"},{"internalType":"uint256","name":"confidenceBps","type":"uint256"}],"name":"mintEcoRewardWithZkProof","outputs":[],"stateMutability":"nonpayable","type":"function"},{"inputs":[{"internalType":"address","name":"recipient","type":"address"},{"internalType":"uint256","name":"amount","type":"uint256"},{"internalType":"bytes32","name":"actionId","type":"bytes32"},{"internalType":"uint256","name":"confidenceBps","type":"uint256"}],"name":"mintFromAI","outputs":[],"stateMutability":"nonpayable","type":"function"},{"inputs":[],"name":"name","outputs":[{"internalType":"string","name":"","type":"string"}],"stateMutability":"view","type":"function"},{"inputs":[],"name":"oracleCount","outputs":[{"internalType":"uint256","name":"","type":"uint256"}],"stateMutability":"view","type":"function"},{"inputs":[],"name":"owner","outputs":[{"internalType":"address","name":"","type":"address"}],"stateMutability":"view","type":"function"},{"inputs":[],"name":"pause","outputs":[],"stateMutability":"nonpayable","type":"function"},{"inputs":[],"name":"paused","outputs":[{"internalType":"bool","name":"","type":"bool"}],"stateMutability":"view","type":"function"},{"inputs":[],"name":"pendingOwner","outputs":[{"internalType":"address","name":"","type":"address"}],"stateMutability":"view","type":"function"},{"inputs":[{"internalType":"uint256","name":"newMinBps","type":"uint256"}],"name":"proposeMinConfidenceUpdate","outputs":[],"stateMutability":"nonpayable","type":"function"},{"inputs":[],"name":"proposePause","outputs":[],"stateMutability":"nonpayable","type":"function"},{"inputs":[],"name":"quantumLockAddress","outputs":[{"internalType":"address","name":"","type":"address"}],"stateMutability":"view","type":"function"},{"inputs":[{"internalType":"address","name":"oracle","type":"address"}],"name":"removeOracle","outputs":[],"stateMutability":"nonpayable","type":"function"},{"inputs":[],"name":"renounceOwnership","outputs":[],"stateMutability":"nonpayable","type":"function"},{"inputs":[{"internalType":"address","name":"_quantumLock","type":"address"}],"name":"setQuantumLock","outputs":[],"stateMutability":"nonpayable","type":"function"},{"inputs":[{"internalType":"address","name":"newVerifier","type":"address"}],"name":"setZkVerifier","outputs":[],"stateMutability":"nonpayable","type":"function"},{"inputs":[],"name":"symbol","outputs":[{"internalType":"string","name":"","type":"string"}],"stateMutability":"view","type":"function"},{"inputs":[],"name":"totalSupply","outputs":[{"internalType":"uint256","name":"","type":"uint256"}],"stateMutability":"view","type":"function"},{"inputs":[{"internalType":"address","name":"to","type":"address"},{"internalType":"uint256","name":"value","type":"uint256"}],"name":"transfer","outputs":[{"internalType":"bool","name":"","type":"bool"}],"stateMutability":"nonpayable","type":"function"},{"inputs":[{"internalType":"address","name":"from","type":"address"},{"internalType":"address","name":"to","type":"address"},{"internalType":"uint256","name":"value","type":"uint256"}],"name":"transferFrom","outputs":[{"internalType":"bool","name":"","type":"bool"}],"stateMutability":"nonpayable","type":"function"},{"inputs":[{"internalType":"address","name":"newOwner","type":"address"}],"name":"transferOwnership","outputs":[],"stateMutability":"nonpayable","type":"function"},{"inputs":[],"name":"unpause","outputs":[],"stateMutability":"nonpayable","type":"function"},{"inputs":[],"name":"zkVerifierAddress","outputs":[{"internalType":"address","name":"","type":"address"}],"stateMutability":"view","type":"function"}],"evm":{"bytecode":{"linkReferences":{},"object":"60806040526123286008553480156200001757600080fd5b50604051620023c3380380620023c38339810160408190526200003a9162000171565b806040518060400160405280600781526020016622b1b7a1b7b4b760c91b8152506040518060400160405280600481526020016308a869eb60e31b815250816003908162000089919062000248565b50600462000098828262000248565b5050506001600160a01b038116620000ca57604051631e4fbdf760e01b81526000600482015260240160405180910390fd5b620000d58162000101565b5060017f9b779b17422d0df92223018b32b4d1fa46e071723d6817e2486d003becc55f00555062000314565b600680546001600160a01b03191690556200011c816200011f565b50565b600580546001600160a01b038381166001600160a01b0319831681179093556040519116919082907f8be0079c531659141344cd1fd0a4f28419497f9722a3daafe3b4186f6b6457e090600090a35050565b6000602082840312156200018457600080fd5b81516001600160a01b03811681146200019c57600080fd5b9392505050565b634e487b7160e01b600052604160045260246000fd5b600181811c90821680620001ce57607f821691505b602082108103620001ef57634e487b7160e01b600052602260045260246000fd5b50919050565b601f8211156200024357600081815260208120601f850160051c810160208610156200021e5750805b601f850160051c820191505b818110156200023f578281556001016200022a565b5050505b505050565b81516001600160401b03811115620002645762000264620001a3565b6200027c81620002758454620001b9565b84620001f5565b602080601f831160018114620002b457600084156200029b5750858301515b600019600386901b1c1916600185901b1785556200023f565b600085815260208120601f198616915b82811015620002e557888601518255948401946001909101908401620002c4565b5085821015620003045787850151600019600388901b60f8161c191681555b5050505050600190811b01905550565b61209f80620003246000396000f3fe608060405234801561001057600080fd5b506004361061028a5760003560e01c806379ba50971161015c578063c182a0f2116100ce578063f2fde38b11610087578063f2fde38b1461057e578063f368342814610591578063f854909a1461059a578063fcee2eb2146105ad578063fdc85fc4146105c0578063fffa080a146105d357600080fd5b8063c182a0f2146104fc578063ce3604e91461050f578063dd62ed3e14610518578063df5dd1a514610551578063e1a4521814610564578063e30c39781461056d57600080fd5b80638da5cb5b116101205780638da5cb5b1461048a5780638dec29291461049b57806395d89b41146104ae57806396913528146104b6578063a9059cbb146104c9578063bd7e729e146104dc57600080fd5b806379ba50971461044b57806379cc6790146104535780637ad05083146104665780638456cb59146104795780638aa67b751461048157600080fd5b806332cb6b0c116102005780635fdc6281116101b95780635fdc6281146103dc578063613d8fcc146103e657806361c992a3146103ef57806370a0823114610412578063715018a61461043b57806377cf2c741461044357600080fd5b806332cb6b0c146103895780633f4ba83a1461039c57806342966c68146103a45780635636dec1146103b7578063599c55331461035f5780635c975abb146103ca57600080fd5b806316d3c4a11161025257806316d3c4a11461030c57806318160ddd1461032c5780631fdc461c1461033457806321fe53141461035f57806323b872dd14610367578063313ce5671461037a57600080fd5b8063067e3ac41461028f57806306fdde03146102a457806308de7af4146102c2578063095ea7b3146102d857806309d42b30146102fb575b600080fd5b6102a261029d366004611cc9565b6105db565b005b6102ac61079c565b6040516102b99190611ce2565b60405180910390f35b6102ca600a81565b6040519081526020016102b9565b6102eb6102e6366004611d4c565b61082e565b60405190151581526020016102b9565b6102ca690a968163f0a57b40000081565b6102ca61031a366004611cc9565b60096020526000908152604090205481565b6002546102ca565b600d54610347906001600160a01b031681565b6040516001600160a01b0390911681526020016102b9565b6102ca600281565b6102eb610375366004611d76565b610848565b604051601281526020016102b9565b6102ca6b019d971e4fe8401e7400000081565b6102a261086c565b6102a26103b2366004611cc9565b61087e565b6102ca6103c5366004611db2565b61088b565b600654600160a01b900460ff166102eb565b6102ca6201518081565b6102ca600c5481565b6102eb6103fd366004611db2565b600b6020526000908152604090205460ff1681565b6102ca610420366004611db2565b6001600160a01b031660009081526020819052604090205490565b6102a26108c8565b6102ca606481565b6102a26108da565b6102a2610461366004611d4c565b610920565b6102a2610474366004611dd4565b610939565b6102a2610c45565b6102ca61232881565b6005546001600160a01b0316610347565b6102a26104a9366004611db2565b610c55565b6102ac610cd6565b6102a26104c4366004611db2565b610ce5565b6102eb6104d7366004611d4c565b610d66565b6102ca6104ea366004611cc9565b600e6020526000908152604090205481565b6102a261050a366004611e07565b610d74565b6102ca60085481565b6102ca610526366004611e6e565b6001600160a01b03918216600090815260016020908152604080832093909416825291909152205490565b6102a261055f366004611db2565b610fed565b6102ca61271081565b6006546001600160a01b0316610347565b6102a261058c366004611db2565b6110bf565b6102ca610e1081565b6102a26105a8366004611ea1565b611130565b600f54610347906001600160a01b031681565b6102a26105ce366004611db2565b6112e7565b6102a261138e565b336000908152600b602052604090205460ff1661060b5760405163db8d1fb760e01b815260040160405180910390fd5b60008161061b6201518042611ef0565b6040516f7365744d696e436f6e666964656e636560801b60208201526030810192909252605082015260700160408051601f1981840301815291815281516020928301206000818152600a909352908220600281015491935091036106af5781815542600282015560405182907f111defae6c79c7fc3bda191bf3ef31b1449467973a03f018d7326e782d5d546690600090a25b33600090815260048201602052604090205460ff166106fb573360009081526004820160205260408120805460ff1916600190811790915582018054916106f583611f12565b91905055505b60028160010154101580156107155750600381015460ff16155b156107975760038101805460ff19166001179055600880549084905560408051828152602081018690527fa6fa6a45e10eab7dc61f6f159d3081a5cc1673bbcabd17c47274f0696f69dc05910160405180910390a160405183907fef761d944d8275728eea44fec662aa15179c4c40db60b218d7a39cd7cf7cee7890600090a2505b505050565b6060600380546107ab90611f2b565b80601f01602080910402602001604051908101604052809291908181526020018280546107d790611f2b565b80156108245780601f106107f957610100808354040283529160200191610824565b820191906000526020600020905b81548152906001019060200180831161080757829003601f168201915b5050505050905090565b60003361083c8185856114fe565b60019150505b92915050565b60003361085685828561150b565b610861858585611584565b506001949350505050565b6108746115e3565b61087c611610565b565b6108883382611665565b50565b60008061089b6201518042611ef0565b6001600160a01b039093166000908152600760209081526040808320958352949052929092205492915050565b6108d06115e3565b61087c600061169b565b60065433906001600160a01b031681146109175760405163118cdaa760e01b81526001600160a01b03821660048201526024015b60405180910390fd5b6108888161169b565b61092b82338361150b565b6109358282611665565b5050565b6109416116b4565b6109496116d0565b336000908152600b602052604090205460ff166109795760405163db8d1fb760e01b815260040160405180910390fd5b6001600160a01b0383166109a057604051636315db1160e01b815260040160405180910390fd5b690a968163f0a57b4000008211156109cb57604051631e3674ef60e11b815260040160405180910390fd5b60008181526011602052604090205460ff16156109fb57604051638db6027560e01b815260040160405180910390fd5b600081815260136020908152604080832033845290915290205460ff16610c2e5760008181526014602052604090205415801590610a46575060008181526014602052604090205442115b15610a9157600081815260126020908152604080832083905560149091528082208290555182917f75a2c8634a6613c7f2264338827d1098104d61159c1ea1425a21afd1ca7aba8d91a25b6000818152601260205260408120549003610ac257610ab2610e1042611f65565b6000828152601460205260409020555b60008181526013602090815260408083203384528252808320805460ff1916600117905583835260129091528120805491610afc83611f12565b9091555050600081815260126020908152604091829020549151918252339183917f67e1828bee8aa442008e492aac52df6c528a83a89adc973b8aeef8544c95053d910160405180910390a3600081815260126020526040902054600211610c2e576b019d971e4fe8401e7400000082610b7560025490565b610b7f9190611f65565b1115610b9e5760405163010a2ed560e71b815260040160405180910390fd5b610ba7836116fb565b6000818152601160205260409020805460ff19166001179055610bca83836117e0565b6000818152600e6020526040902054610be69084908490611816565b60408051838152612710602082015282916001600160a01b038616917fa905402d89ca15a3d3f8abb9fc7bab85e6c95752df87312dce2ecb65af4e2435910160405180910390a35b610797600160008051602061204a83398151915255565b610c4d6115e3565b61087c6118df565b610c5d6115e3565b6001600160a01b038116610c8457604051636315db1160e01b815260040160405180910390fd5b600d80546001600160a01b038381166001600160a01b0319831681179093556040519116919082907f819c589634abcca9e9978f4da3f8a184ddaf6d0010dd8adbe08757a5eb684c0890600090a35050565b6060600480546107ab90611f2b565b610ced6115e3565b6001600160a01b038116610d1457604051636315db1160e01b815260040160405180910390fd5b600f80546001600160a01b038381166001600160a01b0319831681179093556040519116919082907ff335fdec5c467dfdc8bca7991b97cb3bc62c88c8467dedce3044baff0527cad690600090a35050565b60003361083c818585611584565b610d7c6116b4565b610d846116d0565b336000908152600b602052604090205460ff16610db45760405163db8d1fb760e01b815260040160405180910390fd5b6001600160a01b038616610ddb57604051636315db1160e01b815260040160405180910390fd5b690a968163f0a57b400000851115610e0657604051631e3674ef60e11b815260040160405180910390fd5b6b019d971e4fe8401e7400000085610e1d60025490565b610e279190611f65565b1115610e465760405163010a2ed560e71b815260040160405180910390fd5b60008481526011602052604090205460ff1615610e7657604051638db6027560e01b815260040160405180910390fd5b610e808482611922565b610e89866116fb565b600f546001600160a01b031615610f4f5760408051808201825285815260208101859052600f548251637ae4eb4f60e11b815291926000926001600160a01b039092169163f5c9d69e91610eeb91889182019060c08301908890600401611f78565b602060405180830381865afa158015610f08573d6000803e3d6000fd5b505050506040513d601f19601f82011682018060405250810190610f2c9190611fe6565b905080610f4c5760405163c301df2960e01b815260040160405180910390fd5b50505b6000848152601160205260409020805460ff19166001179055610f7286866117e0565b610f888686610f836103e882611ef0565b611816565b604080518681526020810183905285916001600160a01b038916917fa905402d89ca15a3d3f8abb9fc7bab85e6c95752df87312dce2ecb65af4e2435910160405180910390a3610fe5600160008051602061204a83398151915255565b505050505050565b610ff56115e3565b6001600160a01b03811661101c57604051636315db1160e01b815260040160405180910390fd5b6001600160a01b0381166000908152600b602052604090205460ff16610888576001600160a01b0381166000908152600b602090815260408083208054600160ff19918216811790925560109093529083208054909216179055600c80549161108483611f12565b90915550506040516001600160a01b038216907e47706786c922d17b39285dc59d696bafea72c0b003d3841ae1202076f4c2e490600090a250565b6110c76115e3565b600680546001600160a01b0383166001600160a01b031990911681179091556110f86005546001600160a01b031690565b6001600160a01b03167f38d16b8cac22d99fc7c124b9cd0de2d3fa1faef420bfe791d8c362d765e2270060405160405180910390a350565b6111386116b4565b6111406116d0565b336000908152600b602052604090205460ff166111705760405163db8d1fb760e01b815260040160405180910390fd5b6001600160a01b03841661119757604051636315db1160e01b815260040160405180910390fd5b690a968163f0a57b4000008311156111c257604051631e3674ef60e11b815260040160405180910390fd5b6b019d971e4fe8401e74000000836111d960025490565b6111e39190611f65565b11156112025760405163010a2ed560e71b815260040160405180910390fd5b60008281526011602052604090205460ff161561123257604051638db6027560e01b815260040160405180910390fd5b61123c8282611922565b611245846116fb565b6000828152601160205260409020805460ff1916600117905561126884846117e0565b60006112766103e885611ef0565b9050611283858583611816565b604080518581526020810184905284916001600160a01b038816917fa905402d89ca15a3d3f8abb9fc7bab85e6c95752df87312dce2ecb65af4e2435910160405180910390a3506112e1600160008051602061204a83398151915255565b50505050565b6112ef6115e3565b6001600160a01b0381166000908152600b602052604090205460ff1615610888576001600160a01b0381166000908152600b60209081526040808320805460ff199081169091556010909252822080549091169055600c80549161135283612008565b90915550506040516001600160a01b038216907f9c8e7d83025bef8a04c664b2f753f64b8814bdb7e27291d7e50935f18cc3c71290600090a250565b336000908152600b602052604090205460ff166113be5760405163db8d1fb760e01b815260040160405180910390fd5b60006113cc610e1042611ef0565b60405164706175736560d81b6020820152602581019190915260450160408051601f1981840301815291815281516020928301206000818152600a9093529082206002810154919350910361144d5742600282015560405182907f111defae6c79c7fc3bda191bf3ef31b1449467973a03f018d7326e782d5d546690600090a25b33600090815260048201602052604090205460ff16611499573360009081526004820160205260408120805460ff19166001908117909155820180549161149383611f12565b91905055505b60028160010154101580156114b35750600381015460ff16155b156109355760038101805460ff191660011790556114cf6118df565b60405182907fef761d944d8275728eea44fec662aa15179c4c40db60b218d7a39cd7cf7cee7890600090a25050565b6107978383836001611965565b6001600160a01b038381166000908152600160209081526040808320938616835292905220546000198110156112e1578181101561157557604051637dc7a0d960e11b81526001600160a01b0384166004820152602481018290526044810183905260640161090e565b6112e184848484036000611965565b6001600160a01b0383166115ae57604051634b637e8f60e11b81526000600482015260240161090e565b6001600160a01b0382166115d85760405163ec442f0560e01b81526000600482015260240161090e565b610797838383611a3a565b6005546001600160a01b0316331461087c5760405163118cdaa760e01b815233600482015260240161090e565b611618611af3565b6006805460ff60a01b191690557f5db9ee0a495bf2e6ff9c91a7834c1ba4fdd244a5e8aa4e537bd38aeae4b073aa335b6040516001600160a01b03909116815260200160405180910390a1565b6001600160a01b03821661168f57604051634b637e8f60e11b81526000600482015260240161090e565b61093582600083611a3a565b600680546001600160a01b031916905561088881611b1d565b6116bc611b6f565b600260008051602061204a83398151915255565b600654600160a01b900460ff161561087c5760405163d93c066560e01b815260040160405180910390fd5b600061170a6201518042611ef0565b6001600160a01b0383166000908152600760209081526040808320848452909152902054909150600a81106117a757826001600160a01b03167fd4669018ec120023a55a64c4eb585368d50758f9e4a417e0d4b1ce900fb38a148260405161177491815260200190565b60405180910390a260405163a7382e9b60e01b81526001600160a01b03841660048201526024810182905260440161090e565b6001600160a01b038316600090815260076020908152604080832085845290915281208054916117d683611f12565b9190505550505050565b6001600160a01b03821661180a5760405163ec442f0560e01b81526000600482015260240161090e565b61093560008383611a3a565b600d546001600160a01b031661182b57505050565b600d54604051630b0cf6f160e31b81526001600160a01b038581166004830152602482018590526044820184905290911690635867b78890606401600060405180830381600087803b15801561188057600080fd5b505af1925050508015611891575060015b156107975760408051838152602081018390526001600160a01b038516917fdb671e26a6ddfeaa0bbe304ba420fff1e33dfc440699975bd67954574c5eabce910160405180910390a2505050565b6118e76116d0565b6006805460ff60a01b1916600160a01b1790557f62e78cea01bee320cd4e420270b5ea74000d11b0c9f74754ebdbfc544b05a2586116483390565b6008548110156119535760085460405163159c926560e21b815261090e918391600401918252602082015260400190565b60009182526009602052604090912055565b6001600160a01b03841661198f5760405163e602df0560e01b81526000600482015260240161090e565b6001600160a01b0383166119b957604051634a1406b160e11b81526000600482015260240161090e565b6001600160a01b03808516600090815260016020908152604080832093871683529290522082905580156112e157826001600160a01b0316846001600160a01b03167f8c5be1e5ebec7d5bd14f71427d1e84f3dd0314c0f7b2291e5b200ac8c7c3b92584604051611a2c91815260200190565b60405180910390a350505050565b6001600160a01b0383161580611a5757506001600160a01b038216155b80611a7a57506001600160a01b03831660009081526010602052604090205460ff165b80611a9d57506001600160a01b03821660009081526010602052604090205460ff165b15611aad57610797838383611b9f565b6000612710611abd60648461201f565b611ac79190611ef0565b90506000611ad58284612036565b9050611ae18583611665565b611aec858583611b9f565b5050505050565b600654600160a01b900460ff1661087c57604051638dfc202b60e01b815260040160405180910390fd5b600580546001600160a01b038381166001600160a01b0319831681179093556040519116919082907f8be0079c531659141344cd1fd0a4f28419497f9722a3daafe3b4186f6b6457e090600090a35050565b60008051602061204a8339815191525460020361087c57604051633ee5aeb560e01b815260040160405180910390fd5b6001600160a01b038316611bca578060026000828254611bbf9190611f65565b90915550611c3c9050565b6001600160a01b03831660009081526020819052604090205481811015611c1d5760405163391434e360e21b81526001600160a01b0385166004820152602481018290526044810183905260640161090e565b6001600160a01b03841660009081526020819052604090209082900390555b6001600160a01b038216611c5857600280548290039055611c77565b6001600160a01b03821660009081526020819052604090208054820190555b816001600160a01b0316836001600160a01b03167fddf252ad1be2c89b69c2b068fc378daa952ba7f163c4a11628f55a4df523b3ef83604051611cbc91815260200190565b60405180910390a3505050565b600060208284031215611cdb57600080fd5b5035919050565b600060208083528351808285015260005b81811015611d0f57858101830151858201604001528201611cf3565b506000604082860101526040601f19601f8301168501019250505092915050565b80356001600160a01b0381168114611d4757600080fd5b919050565b60008060408385031215611d5f57600080fd5b611d6883611d30565b946020939093013593505050565b600080600060608486031215611d8b57600080fd5b611d9484611d30565b9250611da260208501611d30565b9150604084013590509250925092565b600060208284031215611dc457600080fd5b611dcd82611d30565b9392505050565b600080600060608486031215611de957600080fd5b611df284611d30565b95602085013595506040909401359392505050565b6000806000806000808688036101a0811215611e2257600080fd5b611e2b88611d30565b9650602088013595506040880135945060608801359350610100607f1982011215611e5557600080fd5b5060808701915061018087013590509295509295509295565b60008060408385031215611e8157600080fd5b611e8a83611d30565b9150611e9860208401611d30565b90509250929050565b60008060008060808587031215611eb757600080fd5b611ec085611d30565b966020860135965060408601359560600135945092505050565b634e487b7160e01b600052601160045260246000fd5b600082611f0d57634e487b7160e01b600052601260045260246000fd5b500490565b600060018201611f2457611f24611eda565b5060010190565b600181811c90821680611f3f57607f821691505b602082108103611f5f57634e487b7160e01b600052602260045260246000fd5b50919050565b8082018082111561084257610842611eda565b61014081016040808784378083018660005b6002811015611fa757838284379183019190830190600101611f8a565b505050808560c08501375061010082018360005b6002811015611fda578151835260209283019290910190600101611fbb565b50505095945050505050565b600060208284031215611ff857600080fd5b81518015158114611dcd57600080fd5b60008161201757612017611eda565b506000190190565b808202811582820484141761084257610842611eda565b8181038181111561084257610842611eda56fe9b779b17422d0df92223018b32b4d1fa46e071723d6817e2486d003becc55f00a2646970667358221220f8864f3086e6cb3a3d6ca6f12cd0d1aec36a933ca6ba1e8825c0eaae1e52d02e64736f6c63430008140033","opcodes":"PUSH1 0x80 PUSH1 0x40 MSTORE PUSH2 0x2328 PUSH1 0x8 SSTORE CALLVALUE DUP1 ISZERO PUSH3 0x17 JUMPI PUSH1 0x0 DUP1 REVERT JUMPDEST POP PUSH1 0x40 MLOAD PUSH3 0x23C3 CODESIZE SUB DUP1 PUSH3 0x23C3 DUP4 CODECOPY DUP2 ADD PUSH1 0x40 DUP2 SWAP1 MSTORE PUSH3 0x3A SWAP2 PUSH3 0x171 JUMP JUMPDEST DUP1 PUSH1 0x40 MLOAD DUP1 PUSH1 0x40 ADD PUSH1 0x40 MSTORE DUP1 PUSH1 0x7 DUP2 MSTORE PUSH1 0x20 ADD PUSH7 0x22B1B7A1B7B4B7 PUSH1 0xC9 SHL DUP2 MSTORE POP PUSH1 0x40 MLOAD DUP1 PUSH1 0x40 ADD PUSH1 0x40 MSTORE DUP1 PUSH1 0x4 DUP2 MSTORE PUSH1 0x20 ADD PUSH4 0x8A869EB PUSH1 0xE3 SHL DUP2 MSTORE POP DUP2 PUSH1 0x3 SWAP1 DUP2 PUSH3 0x89 SWAP2 SWAP1 PUSH3 0x248 JUMP JUMPDEST POP PUSH1 0x4 PUSH3 0x98 DUP3 DUP3 PUSH3 0x248 JUMP JUMPDEST POP POP POP PUSH1 0x1 PUSH1 0x1 PUSH1 0xA0 SHL SUB DUP2 AND PUSH3 0xCA JUMPI PUSH1 0x40 MLOAD PUSH4 0x1E4FBDF7 PUSH1 0xE0 SHL DUP2 MSTORE PUSH1 0x0 PUSH1 0x4 DUP3 ADD MSTORE PUSH1 0x24 ADD PUSH1 0x40 MLOAD DUP1 SWAP2 SUB SWAP1 REVERT JUMPDEST PUSH3 0xD5 DUP2 PUSH3 0x101 JUMP JUMPDEST POP PUSH1 0x1 PUSH32 0x9B779B17422D0DF92223018B32B4D1FA46E071723D6817E2486D003BECC55F00 SSTORE POP PUSH3 0x314 JUMP JUMPDEST PUSH1 0x6 DUP1 SLOAD PUSH1 0x1 PUSH1 0x1 PUSH1 0xA0 SHL SUB NOT AND SWAP1 SSTORE PUSH3 0x11C DUP2 PUSH3 0x11F JUMP JUMPDEST POP JUMP JUMPDEST PUSH1 0x5 DUP1 SLOAD PUSH1 0x1 PUSH1 0x1 PUSH1 0xA0 SHL SUB DUP4 DUP2 AND PUSH1 0x1 PUSH1 0x1 PUSH1 0xA0 SHL SUB NOT DUP4 AND DUP2 OR SWAP1 SWAP4 SSTORE PUSH1 0x40 MLOAD SWAP2 AND SWAP2 SWAP1 DUP3 SWAP1 PUSH32 0x8BE0079C531659141344CD1FD0A4F28419497F9722A3DAAFE3B4186F6B6457E0 SWAP1 PUSH1 0x0 SWAP1 LOG3 POP POP JUMP JUMPDEST PUSH1 0x0 PUSH1 0x20 DUP3 DUP5 SUB SLT ISZERO PUSH3 0x184 JUMPI PUSH1 0x0 DUP1 REVERT JUMPDEST DUP2 MLOAD PUSH1 0x1 PUSH1 0x1 PUSH1 0xA0 SHL SUB DUP2 AND DUP2 EQ PUSH3 0x19C JUMPI PUSH1 0x0 DUP1 REVERT JUMPDEST SWAP4 SWAP3 POP POP POP JUMP JUMPDEST PUSH4 0x4E487B71 PUSH1 0xE0 SHL PUSH1 0x0 MSTORE PUSH1 0x41 PUSH1 0x4 MSTORE PUSH1 0x24 PUSH1 0x0 REVERT JUMPDEST PUSH1 0x1 DUP2 DUP2 SHR SWAP1 DUP3 AND DUP1 PUSH3 0x1CE JUMPI PUSH1 0x7F DUP3 AND SWAP2 POP JUMPDEST PUSH1 0x20 DUP3 LT DUP2 SUB PUSH3 0x1EF JUMPI PUSH4 0x4E487B71 PUSH1 0xE0 SHL PUSH1 0x0 MSTORE PUSH1 0x22 PUSH1 0x4 MSTORE PUSH1 0x24 PUSH1 0x0 REVERT JUMPDEST POP SWAP2 SWAP1 POP JUMP JUMPDEST PUSH1 0x1F DUP3 GT ISZERO PUSH3 0x243 JUMPI PUSH1 0x0 DUP2 DUP2 MSTORE PUSH1 0x20 DUP2 KECCAK256 PUSH1 0x1F DUP6 ADD PUSH1 0x5 SHR DUP2 ADD PUSH1 0x20 DUP7 LT ISZERO PUSH3 0x21E JUMPI POP DUP1 JUMPDEST PUSH1 0x1F DUP6 ADD PUSH1 0x5 SHR DUP3 ADD SWAP2 POP JUMPDEST DUP2 DUP2 LT ISZERO PUSH3 0x23F JUMPI DUP3 DUP2 SSTORE PUSH1 0x1 ADD PUSH3 0x22A JUMP JUMPDEST POP POP POP JUMPDEST POP POP POP JUMP JUMPDEST DUP2 MLOAD PUSH1 0x1 PUSH1 0x1 PUSH1 0x40 SHL SUB DUP2 GT ISZERO PUSH3 0x264 JUMPI PUSH3 0x264 PUSH3 0x1A3 JUMP JUMPDEST PUSH3 0x27C DUP2 PUSH3 0x275 DUP5 SLOAD PUSH3 0x1B9 JUMP JUMPDEST DUP5 PUSH3 0x1F5 JUMP JUMPDEST PUSH1 0x20 DUP1 PUSH1 0x1F DUP4 GT PUSH1 0x1 DUP2 EQ PUSH3 0x2B4 JUMPI PUSH1 0x0 DUP5 ISZERO PUSH3 0x29B JUMPI POP DUP6 DUP4 ADD MLOAD JUMPDEST PUSH1 0x0 NOT PUSH1 0x3 DUP7 SWAP1 SHL SHR NOT AND PUSH1 0x1 DUP6 SWAP1 SHL OR DUP6 SSTORE PUSH3 0x23F JUMP JUMPDEST PUSH1 0x0 DUP6 DUP2 MSTORE PUSH1 0x20 DUP2 KECCAK256 PUSH1 0x1F NOT DUP7 AND SWAP2 JUMPDEST DUP3 DUP2 LT ISZERO PUSH3 0x2E5 JUMPI DUP9 DUP7 ADD MLOAD DUP3 SSTORE SWAP5 DUP5 ADD SWAP5 PUSH1 0x1 SWAP1 SWAP2 ADD SWAP1 DUP5 ADD PUSH3 0x2C4 JUMP JUMPDEST POP DUP6 DUP3 LT ISZERO PUSH3 0x304 JUMPI DUP8 DUP6 ADD MLOAD PUSH1 0x0 NOT PUSH1 0x3 DUP9 SWAP1 SHL PUSH1 0xF8 AND SHR NOT AND DUP2 SSTORE JUMPDEST POP POP POP POP POP PUSH1 0x1 SWAP1 DUP2 SHL ADD SWAP1 SSTORE POP JUMP JUMPDEST PUSH2 0x209F DUP1 PUSH3 0x324 PUSH1 0x0 CODECOPY PUSH1 0x0 RETURN INVALID PUSH1 0x80 PUSH1 0x40 MSTORE CALLVALUE DUP1 ISZERO PUSH2 0x10 JUMPI PUSH1 0x0 DUP1 REVERT JUMPDEST POP PUSH1 0x4 CALLDATASIZE LT PUSH2 0x28A JUMPI PUSH1 0x0 CALLDATALOAD PUSH1 0xE0 SHR DUP1 PUSH4 0x79BA5097 GT PUSH2 0x15C JUMPI DUP1 PUSH4 0xC182A0F2 GT PUSH2 0xCE JUMPI DUP1 PUSH4 0xF2FDE38B GT PUSH2 0x87 JUMPI DUP1 PUSH4 0xF2FDE38B EQ PUSH2 0x57E JUMPI DUP1 PUSH4 0xF3683428 EQ PUSH2 0x591 JUMPI DUP1 PUSH4 0xF854909A EQ PUSH2 0x59A JUMPI DUP1 PUSH4 0xFCEE2EB2 EQ PUSH2 0x5AD JUMPI DUP1 PUSH4 0xFDC85FC4 EQ PUSH2 0x5C0 JUMPI DUP1 PUSH4 0xFFFA080A EQ PUSH2 0x5D3 JUMPI PUSH1 0x0 DUP1 REVERT JUMPDEST DUP1 PUSH4 0xC182A0F2 EQ PUSH2 0x4FC JUMPI DUP1 PUSH4 0xCE3604E9 EQ PUSH2 0x50F JUMPI DUP1 PUSH4 0xDD62ED3E EQ PUSH2 0x518 JUMPI DUP1 PUSH4 0xDF5DD1A5 EQ PUSH2 0x551 JUMPI DUP1 PUSH4 0xE1A45218 EQ PUSH2 0x564 JUMPI DUP1 PUSH4 0xE30C3978 EQ PUSH2 0x56D JUMPI PUSH1 0x0 DUP1 REVERT JUMPDEST DUP1 PUSH4 0x8DA5CB5B GT PUSH2 0x120 JUMPI DUP1 PUSH4 0x8DA5CB5B EQ PUSH2 0x48A JUMPI DUP1 PUSH4 0x8DEC2929 EQ PUSH2 0x49B JUMPI DUP1 PUSH4 0x95D89B41 EQ PUSH2 0x4AE JUMPI DUP1 PUSH4 0x96913528 EQ PUSH2 0x4B6 JUMPI DUP1 PUSH4 0xA9059CBB EQ PUSH2 0x4C9 JUMPI DUP1 PUSH4 0xBD7E729E EQ PUSH2 0x4DC JUMPI PUSH1 0x0 DUP1 REVERT JUMPDEST DUP1 PUSH4 0x79BA5097 EQ PUSH2 0x44B JUMPI DUP1 PUSH4 0x79CC6790 EQ PUSH2 0x453 JUMPI DUP1 PUSH4 0x7AD05083 EQ PUSH2 0x466 JUMPI DUP1 PUSH4 0x8456CB59 EQ PUSH2 0x479 JUMPI DUP1 PUSH4 0x8AA67B75 EQ PUSH2 0x481 JUMPI PUSH1 0x0 DUP1 REVERT JUMPDEST DUP1 PUSH4 0x32CB6B0C GT PUSH2 0x200 JUMPI DUP1 PUSH4 0x5FDC6281 GT PUSH2 0x1B9 JUMPI DUP1 PUSH4 0x5FDC6281 EQ PUSH2 0x3DC JUMPI DUP1 PUSH4 0x613D8FCC EQ PUSH2 0x3E6 JUMPI DUP1 PUSH4 0x61C992A3 EQ PUSH2 0x3EF JUMPI DUP1 PUSH4 0x70A08231 EQ PUSH2 0x412 JUMPI DUP1 PUSH4 0x715018A6 EQ PUSH2 0x43B JUMPI DUP1 PUSH4 0x77CF2C74 EQ PUSH2 0x443 JUMPI PUSH1 0x0 DUP1 REVERT JUMPDEST DUP1 PUSH4 0x32CB6B0C EQ PUSH2 0x389 JUMPI DUP1 PUSH4 0x3F4BA83A EQ PUSH2 0x39C JUMPI DUP1 PUSH4 0x42966C68 EQ PUSH2 0x3A4 JUMPI DUP1 PUSH4 0x5636DEC1 EQ PUSH2 0x3B7 JUMPI DUP1 PUSH4 0x599C5533 EQ PUSH2 0x35F JUMPI DUP1 PUSH4 0x5C975ABB EQ PUSH2 0x3CA JUMPI PUSH1 0x0 DUP1 REVERT JUMPDEST DUP1 PUSH4 0x16D3C4A1 GT PUSH2 0x252 JUMPI DUP1 PUSH4 0x16D3C4A1 EQ PUSH2 0x30C JUMPI DUP1 PUSH4 0x18160DDD EQ PUSH2 0x32C JUMPI DUP1 PUSH4 0x1FDC461C EQ PUSH2 0x334 JUMPI DUP1 PUSH4 0x21FE5314 EQ PUSH2 0x35F JUMPI DUP1 PUSH4 0x23B872DD EQ PUSH2 0x367 JUMPI DUP1 PUSH4 0x313CE567 EQ PUSH2 0x37A JUMPI PUSH1 0x0 DUP1 REVERT JUMPDEST DUP1 PUSH4 0x67E3AC4 EQ PUSH2 0x28F JUMPI DUP1 PUSH4 0x6FDDE03 EQ PUSH2 0x2A4 JUMPI DUP1 PUSH4 0x8DE7AF4 EQ PUSH2 0x2C2 JUMPI DUP1 PUSH4 0x95EA7B3 EQ PUSH2 0x2D8 JUMPI DUP1 PUSH4 0x9D42B30 EQ PUSH2 0x2FB JUMPI JUMPDEST PUSH1 0x0 DUP1 REVERT JUMPDEST PUSH2 0x2A2 PUSH2 0x29D CALLDATASIZE PUSH1 0x4 PUSH2 0x1CC9 JUMP JUMPDEST PUSH2 0x5DB JUMP JUMPDEST STOP JUMPDEST PUSH2 0x2AC PUSH2 0x79C JUMP JUMPDEST PUSH1 0x40 MLOAD PUSH2 0x2B9 SWAP2 SWAP1 PUSH2 0x1CE2 JUMP JUMPDEST PUSH1 0x40 MLOAD DUP1 SWAP2 SUB SWAP1 RETURN JUMPDEST PUSH2 0x2CA PUSH1 0xA DUP2 JUMP JUMPDEST PUSH1 0x40 MLOAD SWAP1 DUP2 MSTORE PUSH1 0x20 ADD PUSH2 0x2B9 JUMP JUMPDEST PUSH2 0x2EB PUSH2 0x2E6 CALLDATASIZE PUSH1 0x4 PUSH2 0x1D4C JUMP JUMPDEST PUSH2 0x82E JUMP JUMPDEST PUSH1 0x40 MLOAD SWAP1 ISZERO ISZERO DUP2 MSTORE PUSH1 0x20 ADD PUSH2 0x2B9 JUMP JUMPDEST PUSH2 0x2CA PUSH10 0xA968163F0A57B400000 DUP2 JUMP JUMPDEST PUSH2 0x2CA PUSH2 0x31A CALLDATASIZE PUSH1 0x4 PUSH2 0x1CC9 JUMP JUMPDEST PUSH1 0x9 PUSH1 0x20 MSTORE PUSH1 0x0 SWAP1 DUP2 MSTORE PUSH1 0x40 SWAP1 KECCAK256 SLOAD DUP2 JUMP JUMPDEST PUSH1 0x2 SLOAD PUSH2 0x2CA JUMP JUMPDEST PUSH1 0xD SLOAD PUSH2 0x347 SWAP1 PUSH1 0x1 PUSH1 0x1 PUSH1 0xA0 SHL SUB AND DUP2 JUMP JUMPDEST PUSH1 0x40 MLOAD PUSH1 0x1 PUSH1 0x1 PUSH1 0xA0 SHL SUB SWAP1 SWAP2 AND DUP2 MSTORE PUSH1 0x20 ADD PUSH2 0x2B9 JUMP JUMPDEST PUSH2 0x2CA PUSH1 0x2 DUP2 JUMP JUMPDEST PUSH2 0x2EB PUSH2 0x375 CALLDATASIZE PUSH1 0x4 PUSH2 0x1D76 JUMP JUMPDEST PUSH2 0x848 JUMP JUMPDEST PUSH1 0x40 MLOAD PUSH1 0x12 DUP2 MSTORE PUSH1 0x20 ADD PUSH2 0x2B9 JUMP JUMPDEST PUSH2 0x2CA PUSH12 0x19D971E4FE8401E74000000 DUP2 JUMP JUMPDEST PUSH2 0x2A2 PUSH2 0x86C JUMP JUMPDEST PUSH2 0x2A2 PUSH2 0x3B2 CALLDATASIZE PUSH1 0x4 PUSH2 0x1CC9 JUMP JUMPDEST PUSH2 0x87E JUMP JUMPDEST PUSH2 0x2CA PUSH2 0x3C5 CALLDATASIZE PUSH1 0x4 PUSH2 0x1DB2 JUMP JUMPDEST PUSH2 0x88B JUMP JUMPDEST PUSH1 0x6 SLOAD PUSH1 0x1 PUSH1 0xA0 SHL SWAP1 DIV PUSH1 0xFF AND PUSH2 0x2EB JUMP JUMPDEST PUSH2 0x2CA PUSH3 0x15180 DUP2 JUMP JUMPDEST PUSH2 0x2CA PUSH1 0xC SLOAD DUP2 JUMP JUMPDEST PUSH2 0x2EB PUSH2 0x3FD CALLDATASIZE PUSH1 0x4 PUSH2 0x1DB2 JUMP JUMPDEST PUSH1 0xB PUSH1 0x20 MSTORE PUSH1 0x0 SWAP1 DUP2 MSTORE PUSH1 0x40 SWAP1 KECCAK256 SLOAD PUSH1 0xFF AND DUP2 JUMP JUMPDEST PUSH2 0x2CA PUSH2 0x420 CALLDATASIZE PUSH1 0x4 PUSH2 0x1DB2 JUMP JUMPDEST PUSH1 0x1 PUSH1 0x1 PUSH1 0xA0 SHL SUB AND PUSH1 0x0 SWAP1 DUP2 MSTORE PUSH1 0x20 DUP2 SWAP1 MSTORE PUSH1 0x40 SWAP1 KECCAK256 SLOAD SWAP1 JUMP JUMPDEST PUSH2 0x2A2 PUSH2 0x8C8 JUMP JUMPDEST PUSH2 0x2CA PUSH1 0x64 DUP2 JUMP JUMPDEST PUSH2 0x2A2 PUSH2 0x8DA JUMP JUMPDEST PUSH2 0x2A2 PUSH2 0x461 CALLDATASIZE PUSH1 0x4 PUSH2 0x1D4C JUMP JUMPDEST PUSH2 0x920 JUMP JUMPDEST PUSH2 0x2A2 PUSH2 0x474 CALLDATASIZE PUSH1 0x4 PUSH2 0x1DD4 JUMP JUMPDEST PUSH2 0x939 JUMP JUMPDEST PUSH2 0x2A2 PUSH2 0xC45 JUMP JUMPDEST PUSH2 0x2CA PUSH2 0x2328 DUP2 JUMP JUMPDEST PUSH1 0x5 SLOAD PUSH1 0x1 PUSH1 0x1 PUSH1 0xA0 SHL SUB AND PUSH2 0x347 JUMP JUMPDEST PUSH2 0x2A2 PUSH2 0x4A9 CALLDATASIZE PUSH1 0x4 PUSH2 0x1DB2 JUMP JUMPDEST PUSH2 0xC55 JUMP JUMPDEST PUSH2 0x2AC PUSH2 0xCD6 JUMP JUMPDEST PUSH2 0x2A2 PUSH2 0x4C4 CALLDATASIZE PUSH1 0x4 PUSH2 0x1DB2 JUMP JUMPDEST PUSH2 0xCE5 JUMP JUMPDEST PUSH2 0x2EB PUSH2 0x4D7 CALLDATASIZE PUSH1 0x4 PUSH2 0x1D4C JUMP JUMPDEST PUSH2 0xD66 JUMP JUMPDEST PUSH2 0x2CA PUSH2 0x4EA CALLDATASIZE PUSH1 0x4 PUSH2 0x1CC9 JUMP JUMPDEST PUSH1 0xE PUSH1 0x20 MSTORE PUSH1 0x0 SWAP1 DUP2 MSTORE PUSH1 0x40 SWAP1 KECCAK256 SLOAD DUP2 JUMP JUMPDEST PUSH2 0x2A2 PUSH2 0x50A CALLDATASIZE PUSH1 0x4 PUSH2 0x1E07 JUMP JUMPDEST PUSH2 0xD74 JUMP JUMPDEST PUSH2 0x2CA PUSH1 0x8 SLOAD DUP2 JUMP JUMPDEST PUSH2 0x2CA PUSH2 0x526 CALLDATASIZE PUSH1 0x4 PUSH2 0x1E6E JUMP JUMPDEST PUSH1 0x1 PUSH1 0x1 PUSH1 0xA0 SHL SUB SWAP2 DUP3 AND PUSH1 0x0 SWAP1 DUP2 MSTORE PUSH1 0x1 PUSH1 0x20 SWAP1 DUP2 MSTORE PUSH1 0x40 DUP1 DUP4 KECCAK256 SWAP4 SWAP1 SWAP5 AND DUP3 MSTORE SWAP2 SWAP1 SWAP2 MSTORE KECCAK256 SLOAD SWAP1 JUMP JUMPDEST PUSH2 0x2A2 PUSH2 0x55F CALLDATASIZE PUSH1 0x4 PUSH2 0x1DB2 JUMP JUMPDEST PUSH2 0xFED JUMP JUMPDEST PUSH2 0x2CA PUSH2 0x2710 DUP2 JUMP JUMPDEST PUSH1 0x6 SLOAD PUSH1 0x1 PUSH1 0x1 PUSH1 0xA0 SHL SUB AND PUSH2 0x347 JUMP JUMPDEST PUSH2 0x2A2 PUSH2 0x58C CALLDATASIZE PUSH1 0x4 PUSH2 0x1DB2 JUMP JUMPDEST PUSH2 0x10BF JUMP JUMPDEST PUSH2 0x2CA PUSH2 0xE10 DUP2 JUMP JUMPDEST PUSH2 0x2A2 PUSH2 0x5A8 CALLDATASIZE PUSH1 0x4 PUSH2 0x1EA1 JUMP JUMPDEST PUSH2 0x1130 JUMP JUMPDEST PUSH1 0xF SLOAD PUSH2 0x347 SWAP1 PUSH1 0x1 PUSH1 0x1 PUSH1 0xA0 SHL SUB AND DUP2 JUMP JUMPDEST PUSH2 0x2A2 PUSH2 0x5CE CALLDATASIZE PUSH1 0x4 PUSH2 0x1DB2 JUMP JUMPDEST PUSH2 0x12E7 JUMP JUMPDEST PUSH2 0x2A2 PUSH2 0x138E JUMP JUMPDEST CALLER PUSH1 0x0 SWAP1 DUP2 MSTORE PUSH1 0xB PUSH1 0x20 MSTORE PUSH1 0x40 SWAP1 KECCAK256 SLOAD PUSH1 0xFF AND PUSH2 0x60B JUMPI PUSH1 0x40 MLOAD PUSH4 0xDB8D1FB7 PUSH1 0xE0 SHL DUP2 MSTORE PUSH1 0x4 ADD PUSH1 0x40 MLOAD DUP1 SWAP2 SUB SWAP1 REVERT JUMPDEST PUSH1 0x0 DUP2 PUSH2 0x61B PUSH3 0x15180 TIMESTAMP PUSH2 0x1EF0 JUMP JUMPDEST PUSH1 0x40 MLOAD PUSH16 0x7365744D696E436F6E666964656E6365 PUSH1 0x80 SHL PUSH1 0x20 DUP3 ADD MSTORE PUSH1 0x30 DUP2 ADD SWAP3 SWAP1 SWAP3 MSTORE PUSH1 0x50 DUP3 ADD MSTORE PUSH1 0x70 ADD PUSH1 0x40 DUP1 MLOAD PUSH1 0x1F NOT DUP2 DUP5 SUB ADD DUP2 MSTORE SWAP2 DUP2 MSTORE DUP2 MLOAD PUSH1 0x20 SWAP3 DUP4 ADD KECCAK256 PUSH1 0x0 DUP2 DUP2 MSTORE PUSH1 0xA SWAP1 SWAP4 MSTORE SWAP1 DUP3 KECCAK256 PUSH1 0x2 DUP2 ADD SLOAD SWAP2 SWAP4 POP SWAP2 SUB PUSH2 0x6AF JUMPI DUP2 DUP2 SSTORE TIMESTAMP PUSH1 0x2 DUP3 ADD SSTORE PUSH1 0x40 MLOAD DUP3 SWAP1 PUSH32 0x111DEFAE6C79C7FC3BDA191BF3EF31B1449467973A03F018D7326E782D5D5466 SWAP1 PUSH1 0x0 SWAP1 LOG2 JUMPDEST CALLER PUSH1 0x0 SWAP1 DUP2 MSTORE PUSH1 0x4 DUP3 ADD PUSH1 0x20 MSTORE PUSH1 0x40 SWAP1 KECCAK256 SLOAD PUSH1 0xFF AND PUSH2 0x6FB JUMPI CALLER PUSH1 0x0 SWAP1 DUP2 MSTORE PUSH1 0x4 DUP3 ADD PUSH1 0x20 MSTORE PUSH1 0x40 DUP2 KECCAK256 DUP1 SLOAD PUSH1 0xFF NOT AND PUSH1 0x1 SWAP1 DUP2 OR SWAP1 SWAP2 SSTORE DUP3 ADD DUP1 SLOAD SWAP2 PUSH2 0x6F5 DUP4 PUSH2 0x1F12 JUMP JUMPDEST SWAP2 SWAP1 POP SSTORE POP JUMPDEST PUSH1 0x2 DUP2 PUSH1 0x1 ADD SLOAD LT ISZERO DUP1 ISZERO PUSH2 0x715 JUMPI POP PUSH1 0x3 DUP2 ADD SLOAD PUSH1 0xFF AND ISZERO JUMPDEST ISZERO PUSH2 0x797 JUMPI PUSH1 0x3 DUP2 ADD DUP1 SLOAD PUSH1 0xFF NOT AND PUSH1 0x1 OR SWAP1 SSTORE PUSH1 0x8 DUP1 SLOAD SWAP1 DUP5 SWAP1 SSTORE PUSH1 0x40 DUP1 MLOAD DUP3 DUP2 MSTORE PUSH1 0x20 DUP2 ADD DUP7 SWAP1 MSTORE PUSH32 0xA6FA6A45E10EAB7DC61F6F159D3081A5CC1673BBCABD17C47274F0696F69DC05 SWAP2 ADD PUSH1 0x40 MLOAD DUP1 SWAP2 SUB SWAP1 LOG1 PUSH1 0x40 MLOAD DUP4 SWAP1 PUSH32 0xEF761D944D8275728EEA44FEC662AA15179C4C40DB60B218D7A39CD7CF7CEE78 SWAP1 PUSH1 0x0 SWAP1 LOG2 POP JUMPDEST POP POP POP JUMP JUMPDEST PUSH1 0x60 PUSH1 0x3 DUP1 SLOAD PUSH2 0x7AB SWAP1 PUSH2 0x1F2B JUMP JUMPDEST DUP1 PUSH1 0x1F ADD PUSH1 0x20 DUP1 SWAP2 DIV MUL PUSH1 0x20 ADD PUSH1 0x40 MLOAD SWAP1 DUP2 ADD PUSH1 0x40 MSTORE DUP1 SWAP3 SWAP2 SWAP1 DUP2 DUP2 MSTORE PUSH1 0x20 ADD DUP3 DUP1 SLOAD PUSH2 0x7D7 SWAP1 PUSH2 0x1F2B JUMP JUMPDEST DUP1 ISZERO PUSH2 0x824 JUMPI DUP1 PUSH1 0x1F LT PUSH2 0x7F9 JUMPI PUSH2 0x100 DUP1 DUP4 SLOAD DIV MUL DUP4 MSTORE SWAP2 PUSH1 0x20 ADD SWAP2 PUSH2 0x824 JUMP JUMPDEST DUP3 ADD SWAP2 SWAP1 PUSH1 0x0 MSTORE PUSH1 0x20 PUSH1 0x0 KECCAK256 SWAP1 JUMPDEST DUP2 SLOAD DUP2 MSTORE SWAP1 PUSH1 0x1 ADD SWAP1 PUSH1 0x20 ADD DUP1 DUP4 GT PUSH2 0x807 JUMPI DUP3 SWAP1 SUB PUSH1 0x1F AND DUP3 ADD SWAP2 JUMPDEST POP POP POP POP POP SWAP1 POP SWAP1 JUMP JUMPDEST PUSH1 0x0 CALLER PUSH2 0x83C DUP2 DUP6 DUP6 PUSH2 0x14FE JUMP JUMPDEST PUSH1 0x1 SWAP2 POP POP JUMPDEST SWAP3 SWAP2 POP POP JUMP JUMPDEST PUSH1 0x0 CALLER PUSH2 0x856 DUP6 DUP3 DUP6 PUSH2 0x150B JUMP JUMPDEST PUSH2 0x861 DUP6 DUP6 DUP6 PUSH2 0x1584 JUMP JUMPDEST POP PUSH1 0x1 SWAP5 SWAP4 POP POP POP POP JUMP JUMPDEST PUSH2 0x874 PUSH2 0x15E3 JUMP JUMPDEST PUSH2 0x87C PUSH2 0x1610 JUMP JUMPDEST JUMP JUMPDEST PUSH2 0x888 CALLER DUP3 PUSH2 0x1665 JUMP JUMPDEST POP JUMP JUMPDEST PUSH1 0x0 DUP1 PUSH2 0x89B PUSH3 0x15180 TIMESTAMP PUSH2 0x1EF0 JUMP JUMPDEST PUSH1 0x1 PUSH1 0x1 PUSH1 0xA0 SHL SUB SWAP1 SWAP4 AND PUSH1 0x0 SWAP1 DUP2 MSTORE PUSH1 0x7 PUSH1 0x20 SWAP1 DUP2 MSTORE PUSH1 0x40 DUP1 DUP4 KECCAK256 SWAP6 DUP4 MSTORE SWAP5 SWAP1 MSTORE SWAP3 SWAP1 SWAP3 KECCAK256 SLOAD SWAP3 SWAP2 POP POP JUMP JUMPDEST PUSH2 0x8D0 PUSH2 0x15E3 JUMP JUMPDEST PUSH2 0x87C PUSH1 0x0 PUSH2 0x169B JUMP JUMPDEST PUSH1 0x6 SLOAD CALLER SWAP1 PUSH1 0x1 PUSH1 0x1 PUSH1 0xA0 SHL SUB AND DUP2 EQ PUSH2 0x917 JUMPI PUSH1 0x40 MLOAD PUSH4 0x118CDAA7 PUSH1 0xE0 SHL DUP2 MSTORE PUSH1 0x1 PUSH1 0x1 PUSH1 0xA0 SHL SUB DUP3 AND PUSH1 0x4 DUP3 ADD MSTORE PUSH1 0x24 ADD JUMPDEST PUSH1 0x40 MLOAD DUP1 SWAP2 SUB SWAP1 REVERT JUMPDEST PUSH2 0x888 DUP2 PUSH2 0x169B JUMP JUMPDEST PUSH2 0x92B DUP3 CALLER DUP4 PUSH2 0x150B JUMP JUMPDEST PUSH2 0x935 DUP3 DUP3 PUSH2 0x1665 JUMP JUMPDEST POP POP JUMP JUMPDEST PUSH2 0x941 PUSH2 0x16B4 JUMP JUMPDEST PUSH2 0x949 PUSH2 0x16D0 JUMP JUMPDEST CALLER PUSH1 0x0 SWAP1 DUP2 MSTORE PUSH1 0xB PUSH1 0x20 MSTORE PUSH1 0x40 SWAP1 KECCAK256 SLOAD PUSH1 0xFF AND PUSH2 0x979 JUMPI PUSH1 0x40 MLOAD PUSH4 0xDB8D1FB7 PUSH1 0xE0 SHL DUP2 MSTORE PUSH1 0x4 ADD PUSH1 0x40 MLOAD DUP1 SWAP2 SUB SWAP1 REVERT JUMPDEST PUSH1 0x1 PUSH1 0x1 PUSH1 0xA0 SHL SUB DUP4 AND PUSH2 0x9A0 JUMPI PUSH1 0x40 MLOAD PUSH4 0x6315DB11 PUSH1 0xE0 SHL DUP2 MSTORE PUSH1 0x4 ADD PUSH1 0x40 MLOAD DUP1 SWAP2 SUB SWAP1 REVERT JUMPDEST PUSH10 0xA968163F0A57B400000 DUP3 GT ISZERO PUSH2 0x9CB JUMPI PUSH1 0x40 MLOAD PUSH4 0x1E3674EF PUSH1 0xE1 SHL DUP2 MSTORE PUSH1 0x4 ADD PUSH1 0x40 MLOAD DUP1 SWAP2 SUB SWAP1 REVERT JUMPDEST PUSH1 0x0 DUP2 DUP2 MSTORE PUSH1 0x11 PUSH1 0x20 MSTORE PUSH1 0x40 SWAP1 KECCAK256 SLOAD PUSH1 0xFF AND ISZERO PUSH2 0x9FB JUMPI PUSH1 0x40 MLOAD PUSH4 0x8DB60275 PUSH1 0xE0 SHL DUP2 MSTORE PUSH1 0x4 ADD PUSH1 0x40 MLOAD DUP1 SWAP2 SUB SWAP1 REVERT JUMPDEST PUSH1 0x0 DUP2 DUP2 MSTORE PUSH1 0x13 PUSH1 0x20 SWAP1 DUP2 MSTORE PUSH1 0x40 DUP1 DUP4 KECCAK256 CALLER DUP5 MSTORE SWAP1 SWAP2 MSTORE SWAP1 KECCAK256 SLOAD PUSH1 0xFF AND PUSH2 0xC2E JUMPI PUSH1 0x0 DUP2 DUP2 MSTORE PUSH1 0x14 PUSH1 0x20 MSTORE PUSH1 0x40 SWAP1 KECCAK256 SLOAD ISZERO DUP1 ISZERO SWAP1 PUSH2 0xA46 JUMPI POP PUSH1 0x0 DUP2 DUP2 MSTORE PUSH1 0x14 PUSH1 0x20 MSTORE PUSH1 0x40 SWAP1 KECCAK256 SLOAD TIMESTAMP GT JUMPDEST ISZERO PUSH2 0xA91 JUMPI PUSH1 0x0 DUP2 DUP2 MSTORE PUSH1 0x12 PUSH1 0x20 SWAP1 DUP2 MSTORE PUSH1 0x40 DUP1 DUP4 KECCAK256 DUP4 SWAP1 SSTORE PUSH1 0x14 SWAP1 SWAP2 MSTORE DUP1 DUP3 KECCAK256 DUP3 SWAP1 SSTORE MLOAD DUP3 SWAP2 PUSH32 0x75A2C8634A6613C7F2264338827D1098104D61159C1EA1425A21AFD1CA7ABA8D SWAP2 LOG2 JUMPDEST PUSH1 0x0 DUP2 DUP2 MSTORE PUSH1 0x12 PUSH1 0x20 MSTORE PUSH1 0x40 DUP2 KECCAK256 SLOAD SWAP1 SUB PUSH2 0xAC2 JUMPI PUSH2 0xAB2 PUSH2 0xE10 TIMESTAMP PUSH2 0x1F65 JUMP JUMPDEST PUSH1 0x0 DUP3 DUP2 MSTORE PUSH1 0x14 PUSH1 0x20 MSTORE PUSH1 0x40 SWAP1 KECCAK256 SSTORE JUMPDEST PUSH1 0x0 DUP2 DUP2 MSTORE PUSH1 0x13 PUSH1 0x20 SWAP1 DUP2 MSTORE PUSH1 0x40 DUP1 DUP4 KECCAK256 CALLER DUP5 MSTORE DUP3 MSTORE DUP1 DUP4 KECCAK256 DUP1 SLOAD PUSH1 0xFF NOT AND PUSH1 0x1 OR SWAP1 SSTORE DUP4 DUP4 MSTORE PUSH1 0x12 SWAP1 SWAP2 MSTORE DUP2 KECCAK256 DUP1 SLOAD SWAP2 PUSH2 0xAFC DUP4 PUSH2 0x1F12 JUMP JUMPDEST SWAP1 SWAP2 SSTORE POP POP PUSH1 0x0 DUP2 DUP2 MSTORE PUSH1 0x12 PUSH1 0x20 SWAP1 DUP2 MSTORE PUSH1 0x40 SWAP2 DUP3 SWAP1 KECCAK256 SLOAD SWAP2 MLOAD SWAP2 DUP3 MSTORE CALLER SWAP2 DUP4 SWAP2 PUSH32 0x67E1828BEE8AA442008E492AAC52DF6C528A83A89ADC973B8AEEF8544C95053D SWAP2 ADD PUSH1 0x40 MLOAD DUP1 SWAP2 SUB SWAP1 LOG3 PUSH1 0x0 DUP2 DUP2 MSTORE PUSH1 0x12 PUSH1 0x20 MSTORE PUSH1 0x40 SWAP1 KECCAK256 SLOAD PUSH1 0x2 GT PUSH2 0xC2E JUMPI PUSH12 0x19D971E4FE8401E74000000 DUP3 PUSH2 0xB75 PUSH1 0x2 SLOAD SWAP1 JUMP JUMPDEST PUSH2 0xB7F SWAP2 SWAP1 PUSH2 0x1F65 JUMP JUMPDEST GT ISZERO PUSH2 0xB9E JUMPI PUSH1 0x40 MLOAD PUSH4 0x10A2ED5 PUSH1 0xE7 SHL DUP2 MSTORE PUSH1 0x4 ADD PUSH1 0x40 MLOAD DUP1 SWAP2 SUB SWAP1 REVERT JUMPDEST PUSH2 0xBA7 DUP4 PUSH2 0x16FB JUMP JUMPDEST PUSH1 0x0 DUP2 DUP2 MSTORE PUSH1 0x11 PUSH1 0x20 MSTORE PUSH1 0x40 SWAP1 KECCAK256 DUP1 SLOAD PUSH1 0xFF NOT AND PUSH1 0x1 OR SWAP1 SSTORE PUSH2 0xBCA DUP4 DUP4 PUSH2 0x17E0 JUMP JUMPDEST PUSH1 0x0 DUP2 DUP2 MSTORE PUSH1 0xE PUSH1 0x20 MSTORE PUSH1 0x40 SWAP1 KECCAK256 SLOAD PUSH2 0xBE6 SWAP1 DUP5 SWAP1 DUP5 SWAP1 PUSH2 0x1816 JUMP JUMPDEST PUSH1 0x40 DUP1 MLOAD DUP4 DUP2 MSTORE PUSH2 0x2710 PUSH1 0x20 DUP3 ADD MSTORE DUP3 SWAP2 PUSH1 0x1 PUSH1 0x1 PUSH1 0xA0 SHL SUB DUP7 AND SWAP2 PUSH32 0xA905402D89CA15A3D3F8ABB9FC7BAB85E6C95752DF87312DCE2ECB65AF4E2435 SWAP2 ADD PUSH1 0x40 MLOAD DUP1 SWAP2 SUB SWAP1 LOG3 JUMPDEST PUSH2 0x797 PUSH1 0x1 PUSH1 0x0 DUP1 MLOAD PUSH1 0x20 PUSH2 0x204A DUP4 CODECOPY DUP2 MLOAD SWAP2 MSTORE SSTORE JUMP JUMPDEST PUSH2 0xC4D PUSH2 0x15E3 JUMP JUMPDEST PUSH2 0x87C PUSH2 0x18DF JUMP JUMPDEST PUSH2 0xC5D PUSH2 0x15E3 JUMP JUMPDEST PUSH1 0x1 PUSH1 0x1 PUSH1 0xA0 SHL SUB DUP2 AND PUSH2 0xC84 JUMPI PUSH1 0x40 MLOAD PUSH4 0x6315DB11 PUSH1 0xE0 SHL DUP2 MSTORE PUSH1 0x4 ADD PUSH1 0x40 MLOAD DUP1 SWAP2 SUB SWAP1 REVERT JUMPDEST PUSH1 0xD DUP1 SLOAD PUSH1 0x1 PUSH1 0x1 PUSH1 0xA0 SHL SUB DUP4 DUP2 AND PUSH1 0x1 PUSH1 0x1 PUSH1 0xA0 SHL SUB NOT DUP4 AND DUP2 OR SWAP1 SWAP4 SSTORE PUSH1 0x40 MLOAD SWAP2 AND SWAP2 SWAP1 DUP3 SWAP1 PUSH32 0x819C589634ABCCA9E9978F4DA3F8A184DDAF6D0010DD8ADBE08757A5EB684C08 SWAP1 PUSH1 0x0 SWAP1 LOG3 POP POP JUMP JUMPDEST PUSH1 0x60 PUSH1 0x4 DUP1 SLOAD PUSH2 0x7AB SWAP1 PUSH2 0x1F2B JUMP JUMPDEST PUSH2 0xCED PUSH2 0x15E3 JUMP JUMPDEST PUSH1 0x1 PUSH1 0x1 PUSH1 0xA0 SHL SUB DUP2 AND PUSH2 0xD14 JUMPI PUSH1 0x40 MLOAD PUSH4 0x6315DB11 PUSH1 0xE0 SHL DUP2 MSTORE PUSH1 0x4 ADD PUSH1 0x40 MLOAD DUP1 SWAP2 SUB SWAP1 REVERT JUMPDEST PUSH1 0xF DUP1 SLOAD PUSH1 0x1 PUSH1 0x1 PUSH1 0xA0 SHL SUB DUP4 DUP2 AND PUSH1 0x1 PUSH1 0x1 PUSH1 0xA0 SHL SUB NOT DUP4 AND DUP2 OR SWAP1 SWAP4 SSTORE PUSH1 0x40 MLOAD SWAP2 AND SWAP2 SWAP1 DUP3 SWAP1 PUSH32 0xF335FDEC5C467DFDC8BCA7991B97CB3BC62C88C8467DEDCE3044BAFF0527CAD6 SWAP1 PUSH1 0x0 SWAP1 LOG3 POP POP JUMP JUMPDEST PUSH1 0x0 CALLER PUSH2 0x83C DUP2 DUP6 DUP6 PUSH2 0x1584 JUMP JUMPDEST PUSH2 0xD7C PUSH2 0x16B4 JUMP JUMPDEST PUSH2 0xD84 PUSH2 0x16D0 JUMP JUMPDEST CALLER PUSH1 0x0 SWAP1 DUP2 MSTORE PUSH1 0xB PUSH1 0x20 MSTORE PUSH1 0x40 SWAP1 KECCAK256 SLOAD PUSH1 0xFF AND PUSH2 0xDB4 JUMPI PUSH1 0x40 MLOAD PUSH4 0xDB8D1FB7 PUSH1 0xE0 SHL DUP2 MSTORE PUSH1 0x4 ADD PUSH1 0x40 MLOAD DUP1 SWAP2 SUB SWAP1 REVERT JUMPDEST PUSH1 0x1 PUSH1 0x1 PUSH1 0xA0 SHL SUB DUP7 AND PUSH2 0xDDB JUMPI PUSH1 0x40 MLOAD PUSH4 0x6315DB11 PUSH1 0xE0 SHL DUP2 MSTORE PUSH1 0x4 ADD PUSH1 0x40 MLOAD DUP1 SWAP2 SUB SWAP1 REVERT JUMPDEST PUSH10 0xA968163F0A57B400000 DUP6 GT ISZERO PUSH2 0xE06 JUMPI PUSH1 0x40 MLOAD PUSH4 0x1E3674EF PUSH1 0xE1 SHL DUP2 MSTORE PUSH1 0x4 ADD PUSH1 0x40 MLOAD DUP1 SWAP2 SUB SWAP1 REVERT JUMPDEST PUSH12 0x19D971E4FE8401E74000000 DUP6 PUSH2 0xE1D PUSH1 0x2 SLOAD SWAP1 JUMP JUMPDEST PUSH2 0xE27 SWAP2 SWAP1 PUSH2 0x1F65 JUMP JUMPDEST GT ISZERO PUSH2 0xE46 JUMPI PUSH1 0x40 MLOAD PUSH4 0x10A2ED5 PUSH1 0xE7 SHL DUP2 MSTORE PUSH1 0x4 ADD PUSH1 0x40 MLOAD DUP1 SWAP2 SUB SWAP1 REVERT JUMPDEST PUSH1 0x0 DUP5 DUP2 MSTORE PUSH1 0x11 PUSH1 0x20 MSTORE PUSH1 0x40 SWAP1 KECCAK256 SLOAD PUSH1 0xFF AND ISZERO PUSH2 0xE76 JUMPI PUSH1 0x40 MLOAD PUSH4 0x8DB60275 PUSH1 0xE0 SHL DUP2 MSTORE PUSH1 0x4 ADD PUSH1 0x40 MLOAD DUP1 SWAP2 SUB SWAP1 REVERT JUMPDEST PUSH2 0xE80 DUP5 DUP3 PUSH2 0x1922 JUMP JUMPDEST PUSH2 0xE89 DUP7 PUSH2 0x16FB JUMP JUMPDEST PUSH1 0xF SLOAD PUSH1 0x1 PUSH1 0x1 PUSH1 0xA0 SHL SUB AND ISZERO PUSH2 0xF4F JUMPI PUSH1 0x40 DUP1 MLOAD DUP1 DUP3 ADD DUP3 MSTORE DUP6 DUP2 MSTORE PUSH1 0x20 DUP2 ADD DUP6 SWAP1 MSTORE PUSH1 0xF SLOAD DUP3 MLOAD PUSH4 0x7AE4EB4F PUSH1 0xE1 SHL DUP2 MSTORE SWAP2 SWAP3 PUSH1 0x0 SWAP3 PUSH1 0x1 PUSH1 0x1 PUSH1 0xA0 SHL SUB SWAP1 SWAP3 AND SWAP2 PUSH4 0xF5C9D69E SWAP2 PUSH2 0xEEB SWAP2 DUP9 SWAP2 DUP3 ADD SWAP1 PUSH1 0xC0 DUP4 ADD SWAP1 DUP9 SWAP1 PUSH1 0x4 ADD PUSH2 0x1F78 JUMP JUMPDEST PUSH1 0x20 PUSH1 0x40 MLOAD DUP1 DUP4 SUB DUP2 DUP7 GAS STATICCALL ISZERO DUP1 ISZERO PUSH2 0xF08 JUMPI RETURNDATASIZE PUSH1 0x0 DUP1 RETURNDATACOPY RETURNDATASIZE PUSH1 0x0 REVERT JUMPDEST POP POP POP POP PUSH1 0x40 MLOAD RETURNDATASIZE PUSH1 0x1F NOT PUSH1 0x1F DUP3 ADD AND DUP3 ADD DUP1 PUSH1 0x40 MSTORE POP DUP2 ADD SWAP1 PUSH2 0xF2C SWAP2 SWAP1 PUSH2 0x1FE6 JUMP JUMPDEST SWAP1 POP DUP1 PUSH2 0xF4C JUMPI PUSH1 0x40 MLOAD PUSH4 0xC301DF29 PUSH1 0xE0 SHL DUP2 MSTORE PUSH1 0x4 ADD PUSH1 0x40 MLOAD DUP1 SWAP2 SUB SWAP1 REVERT JUMPDEST POP POP JUMPDEST PUSH1 0x0 DUP5 DUP2 MSTORE PUSH1 0x11 PUSH1 0x20 MSTORE PUSH1 0x40 SWAP1 KECCAK256 DUP1 SLOAD PUSH1 0xFF NOT AND PUSH1 0x1 OR SWAP1 SSTORE PUSH2 0xF72 DUP7 DUP7 PUSH2 0x17E0 JUMP JUMPDEST PUSH2 0xF88 DUP7 DUP7 PUSH2 0xF83 PUSH2 0x3E8 DUP3 PUSH2 0x1EF0 JUMP JUMPDEST PUSH2 0x1816 JUMP JUMPDEST PUSH1 0x40 DUP1 MLOAD DUP7 DUP2 MSTORE PUSH1 0x20 DUP2 ADD DUP4 SWAP1 MSTORE DUP6 SWAP2 PUSH1 0x1 PUSH1 0x1 PUSH1 0xA0 SHL SUB DUP10 AND SWAP2 PUSH32 0xA905402D89CA15A3D3F8ABB9FC7BAB85E6C95752DF87312DCE2ECB65AF4E2435 SWAP2 ADD PUSH1 0x40 MLOAD DUP1 SWAP2 SUB SWAP1 LOG3 PUSH2 0xFE5 PUSH1 0x1 PUSH1 0x0 DUP1 MLOAD PUSH1 0x20 PUSH2 0x204A DUP4 CODECOPY DUP2 MLOAD SWAP2 MSTORE SSTORE JUMP JUMPDEST POP POP POP POP POP POP JUMP JUMPDEST PUSH2 0xFF5 PUSH2 0x15E3 JUMP JUMPDEST PUSH1 0x1 PUSH1 0x1 PUSH1 0xA0 SHL SUB DUP2 AND PUSH2 0x101C JUMPI PUSH1 0x40 MLOAD PUSH4 0x6315DB11 PUSH1 0xE0 SHL DUP2 MSTORE PUSH1 0x4 ADD PUSH1 0x40 MLOAD DUP1 SWAP2 SUB SWAP1 REVERT JUMPDEST PUSH1 0x1 PUSH1 0x1 PUSH1 0xA0 SHL SUB DUP2 AND PUSH1 0x0 SWAP1 DUP2 MSTORE PUSH1 0xB PUSH1 0x20 MSTORE PUSH1 0x40 SWAP1 KECCAK256 SLOAD PUSH1 0xFF AND PUSH2 0x888 JUMPI PUSH1 0x1 PUSH1 0x1 PUSH1 0xA0 SHL SUB DUP2 AND PUSH1 0x0 SWAP1 DUP2 MSTORE PUSH1 0xB PUSH1 0x20 SWAP1 DUP2 MSTORE PUSH1 0x40 DUP1 DUP4 KECCAK256 DUP1 SLOAD PUSH1 0x1 PUSH1 0xFF NOT SWAP2 DUP3 AND DUP2 OR SWAP1 SWAP3 SSTORE PUSH1 0x10 SWAP1 SWAP4 MSTORE SWAP1 DUP4 KECCAK256 DUP1 SLOAD SWAP1 SWAP3 AND OR SWAP1 SSTORE PUSH1 0xC DUP1 SLOAD SWAP2 PUSH2 0x1084 DUP4 PUSH2 0x1F12 JUMP JUMPDEST SWAP1 SWAP2 SSTORE POP POP PUSH1 0x40 MLOAD PUSH1 0x1 PUSH1 0x1 PUSH1 0xA0 SHL SUB DUP3 AND SWAP1 PUSH31 0x47706786C922D17B39285DC59D696BAFEA72C0B003D3841AE1202076F4C2E4 SWAP1 PUSH1 0x0 SWAP1 LOG2 POP JUMP JUMPDEST PUSH2 0x10C7 PUSH2 0x15E3 JUMP JUMPDEST PUSH1 0x6 DUP1 SLOAD PUSH1 0x1 PUSH1 0x1 PUSH1 0xA0 SHL SUB DUP4 AND PUSH1 0x1 PUSH1 0x1 PUSH1 0xA0 SHL SUB NOT SWAP1 SWAP2 AND DUP2 OR SWAP1 SWAP2 SSTORE PUSH2 0x10F8 PUSH1 0x5 SLOAD PUSH1 0x1 PUSH1 0x1 PUSH1 0xA0 SHL SUB AND SWAP1 JUMP JUMPDEST PUSH1 0x1 PUSH1 0x1 PUSH1 0xA0 SHL SUB AND PUSH32 0x38D16B8CAC22D99FC7C124B9CD0DE2D3FA1FAEF420BFE791D8C362D765E22700 PUSH1 0x40 MLOAD PUSH1 0x40 MLOAD DUP1 SWAP2 SUB SWAP1 LOG3 POP JUMP JUMPDEST PUSH2 0x1138 PUSH2 0x16B4 JUMP JUMPDEST PUSH2 0x1140 PUSH2 0x16D0 JUMP JUMPDEST CALLER PUSH1 0x0 SWAP1 DUP2 MSTORE PUSH1 0xB PUSH1 0x20 MSTORE PUSH1 0x40 SWAP1 KECCAK256 SLOAD PUSH1 0xFF AND PUSH2 0x1170 JUMPI PUSH1 0x40 MLOAD PUSH4 0xDB8D1FB7 PUSH1 0xE0 SHL DUP2 MSTORE PUSH1 0x4 ADD PUSH1 0x40 MLOAD DUP1 SWAP2 SUB SWAP1 REVERT JUMPDEST PUSH1 0x1 PUSH1 0x1 PUSH1 0xA0 SHL SUB DUP5 AND PUSH2 0x1197 JUMPI PUSH1 0x40 MLOAD PUSH4 0x6315DB11 PUSH1 0xE0 SHL DUP2 MSTORE PUSH1 0x4 ADD PUSH1 0x40 MLOAD DUP1 SWAP2 SUB SWAP1 REVERT JUMPDEST PUSH10 0xA968163F0A57B400000 DUP4 GT ISZERO PUSH2 0x11C2 JUMPI PUSH1 0x40 MLOAD PUSH4 0x1E3674EF PUSH1 0xE1 SHL DUP2 MSTORE PUSH1 0x4 ADD PUSH1 0x40 MLOAD DUP1 SWAP2 SUB SWAP1 REVERT JUMPDEST PUSH12 0x19D971E4FE8401E74000000 DUP4 PUSH2 0x11D9 PUSH1 0x2 SLOAD SWAP1 JUMP JUMPDEST PUSH2 0x11E3 SWAP2 SWAP1 PUSH2 0x1F65 JUMP JUMPDEST GT ISZERO PUSH2 0x1202 JUMPI PUSH1 0x40 MLOAD PUSH4 0x10A2ED5 PUSH1 0xE7 SHL DUP2 MSTORE PUSH1 0x4 ADD PUSH1 0x40 MLOAD DUP1 SWAP2 SUB SWAP1 REVERT JUMPDEST PUSH1 0x0 DUP3 DUP2 MSTORE PUSH1 0x11 PUSH1 0x20 MSTORE PUSH1 0x40 SWAP1 KECCAK256 SLOAD PUSH1 0xFF AND ISZERO PUSH2 0x1232 JUMPI PUSH1 0x40 MLOAD PUSH4 0x8DB60275 PUSH1 0xE0 SHL DUP2 MSTORE PUSH1 0x4 ADD PUSH1 0x40 MLOAD DUP1 SWAP2 SUB SWAP1 REVERT JUMPDEST PUSH2 0x123C DUP3 DUP3 PUSH2 0x1922 JUMP JUMPDEST PUSH2 0x1245 DUP5 PUSH2 0x16FB JUMP JUMPDEST PUSH1 0x0 DUP3 DUP2 MSTORE PUSH1 0x11 PUSH1 0x20 MSTORE PUSH1 0x40 SWAP1 KECCAK256 DUP1 SLOAD PUSH1 0xFF NOT AND PUSH1 0x1 OR SWAP1 SSTORE PUSH2 0x1268 DUP5 DUP5 PUSH2 0x17E0 JUMP JUMPDEST PUSH1 0x0 PUSH2 0x1276 PUSH2 0x3E8 DUP6 PUSH2 0x1EF0 JUMP JUMPDEST SWAP1 POP PUSH2 0x1283 DUP6 DUP6 DUP4 PUSH2 0x1816 JUMP JUMPDEST PUSH1 0x40 DUP1 MLOAD DUP6 DUP2 MSTORE PUSH1 0x20 DUP2 ADD DUP5 SWAP1 MSTORE DUP5 SWAP2 PUSH1 0x1 PUSH1 0x1 PUSH1 0xA0 SHL SUB DUP9 AND SWAP2 PUSH32 0xA905402D89CA15A3D3F8ABB9FC7BAB85E6C95752DF87312DCE2ECB65AF4E2435 SWAP2 ADD PUSH1 0x40 MLOAD DUP1 SWAP2 SUB SWAP1 LOG3 POP PUSH2 0x12E1 PUSH1 0x1 PUSH1 0x0 DUP1 MLOAD PUSH1 0x20 PUSH2 0x204A DUP4 CODECOPY DUP2 MLOAD SWAP2 MSTORE SSTORE JUMP JUMPDEST POP POP POP POP JUMP JUMPDEST PUSH2 0x12EF PUSH2 0x15E3 JUMP JUMPDEST PUSH1 0x1 PUSH1 0x1 PUSH1 0xA0 SHL SUB DUP2 AND PUSH1 0x0 SWAP1 DUP2 MSTORE PUSH1 0xB PUSH1 0x20 MSTORE PUSH1 0x40 SWAP1 KECCAK256 SLOAD PUSH1 0xFF AND ISZERO PUSH2 0x888 JUMPI PUSH1 0x1 PUSH1 0x1 PUSH1 0xA0 SHL SUB DUP2 AND PUSH1 0x0 SWAP1 DUP2 MSTORE PUSH1 0xB PUSH1 0x20 SWAP1 DUP2 MSTORE PUSH1 0x40 DUP1 DUP4 KECCAK256 DUP1 SLOAD PUSH1 0xFF NOT SWAP1 DUP2 AND SWAP1 SWAP2 SSTORE PUSH1 0x10 SWAP1 SWAP3 MSTORE DUP3 KECCAK256 DUP1 SLOAD SWAP1 SWAP2 AND SWAP1 SSTORE PUSH1 0xC DUP1 SLOAD SWAP2 PUSH2 0x1352 DUP4 PUSH2 0x2008 JUMP JUMPDEST SWAP1 SWAP2 SSTORE POP POP PUSH1 0x40 MLOAD PUSH1 0x1 PUSH1 0x1 PUSH1 0xA0 SHL SUB DUP3 AND SWAP1 PUSH32 0x9C8E7D83025BEF8A04C664B2F753F64B8814BDB7E27291D7E50935F18CC3C712 SWAP1 PUSH1 0x0 SWAP1 LOG2 POP JUMP JUMPDEST CALLER PUSH1 0x0 SWAP1 DUP2 MSTORE PUSH1 0xB PUSH1 0x20 MSTORE PUSH1 0x40 SWAP1 KECCAK256 SLOAD PUSH1 0xFF AND PUSH2 0x13BE JUMPI PUSH1 0x40 MLOAD PUSH4 0xDB8D1FB7 PUSH1 0xE0 SHL DUP2 MSTORE PUSH1 0x4 ADD PUSH1 0x40 MLOAD DUP1 SWAP2 SUB SWAP1 REVERT JUMPDEST PUSH1 0x0 PUSH2 0x13CC PUSH2 0xE10 TIMESTAMP PUSH2 0x1EF0 JUMP JUMPDEST PUSH1 0x40 MLOAD PUSH5 0x7061757365 PUSH1 0xD8 SHL PUSH1 0x20 DUP3 ADD MSTORE PUSH1 0x25 DUP2 ADD SWAP2 SWAP1 SWAP2 MSTORE PUSH1 0x45 ADD PUSH1 0x40 DUP1 MLOAD PUSH1 0x1F NOT DUP2 DUP5 SUB ADD DUP2 MSTORE SWAP2 DUP2 MSTORE DUP2 MLOAD PUSH1 0x20 SWAP3 DUP4 ADD KECCAK256 PUSH1 0x0 DUP2 DUP2 MSTORE PUSH1 0xA SWAP1 SWAP4 MSTORE SWAP1 DUP3 KECCAK256 PUSH1 0x2 DUP2 ADD SLOAD SWAP2 SWAP4 POP SWAP2 SUB PUSH2 0x144D JUMPI TIMESTAMP PUSH1 0x2 DUP3 ADD SSTORE PUSH1 0x40 MLOAD DUP3 SWAP1 PUSH32 0x111DEFAE6C79C7FC3BDA191BF3EF31B1449467973A03F018D7326E782D5D5466 SWAP1 PUSH1 0x0 SWAP1 LOG2 JUMPDEST CALLER PUSH1 0x0 SWAP1 DUP2 MSTORE PUSH1 0x4 DUP3 ADD PUSH1 0x20 MSTORE PUSH1 0x40 SWAP1 KECCAK256 SLOAD PUSH1 0xFF AND PUSH2 0x1499 JUMPI CALLER PUSH1 0x0 SWAP1 DUP2 MSTORE PUSH1 0x4 DUP3 ADD PUSH1 0x20 MSTORE PUSH1 0x40 DUP2 KECCAK256 DUP1 SLOAD PUSH1 0xFF NOT AND PUSH1 0x1 SWAP1 DUP2 OR SWAP1 SWAP2 SSTORE DUP3 ADD DUP1 SLOAD SWAP2 PUSH2 0x1493 DUP4 PUSH2 0x1F12 JUMP JUMPDEST SWAP2 SWAP1 POP SSTORE POP JUMPDEST PUSH1 0x2 DUP2 PUSH1 0x1 ADD SLOAD LT ISZERO DUP1 ISZERO PUSH2 0x14B3 JUMPI POP PUSH1 0x3 DUP2 ADD SLOAD PUSH1 0xFF AND ISZERO JUMPDEST ISZERO PUSH2 0x935 JUMPI PUSH1 0x3 DUP2 ADD DUP1 SLOAD PUSH1 0xFF NOT AND PUSH1 0x1 OR SWAP1 SSTORE PUSH2 0x14CF PUSH2 0x18DF JUMP JUMPDEST PUSH1 0x40 MLOAD DUP3 SWAP1 PUSH32 0xEF761D944D8275728EEA44FEC662AA15179C4C40DB60B218D7A39CD7CF7CEE78 SWAP1 PUSH1 0x0 SWAP1 LOG2 POP POP JUMP JUMPDEST PUSH2 0x797 DUP4 DUP4 DUP4 PUSH1 0x1 PUSH2 0x1965 JUMP JUMPDEST PUSH1 0x1 PUSH1 0x1 PUSH1 0xA0 SHL SUB DUP4 DUP2 AND PUSH1 0x0 SWAP1 DUP2 MSTORE PUSH1 0x1 PUSH1 0x20 SWAP1 DUP2 MSTORE PUSH1 0x40 DUP1 DUP4 KECCAK256 SWAP4 DUP7 AND DUP4 MSTORE SWAP3 SWAP1 MSTORE KECCAK256 SLOAD PUSH1 0x0 NOT DUP2 LT ISZERO PUSH2 0x12E1 JUMPI DUP2 DUP2 LT ISZERO PUSH2 0x1575 JUMPI PUSH1 0x40 MLOAD PUSH4 0x7DC7A0D9 PUSH1 0xE1 SHL DUP2 MSTORE PUSH1 0x1 PUSH1 0x1 PUSH1 0xA0 SHL SUB DUP5 AND PUSH1 0x4 DUP3 ADD MSTORE PUSH1 0x24 DUP2 ADD DUP3 SWAP1 MSTORE PUSH1 0x44 DUP2 ADD DUP4 SWAP1 MSTORE PUSH1 0x64 ADD PUSH2 0x90E JUMP JUMPDEST PUSH2 0x12E1 DUP5 DUP5 DUP5 DUP5 SUB PUSH1 0x0 PUSH2 0x1965 JUMP JUMPDEST PUSH1 0x1 PUSH1 0x1 PUSH1 0xA0 SHL SUB DUP4 AND PUSH2 0x15AE JUMPI PUSH1 0x40 MLOAD PUSH4 0x4B637E8F PUSH1 0xE1 SHL DUP2 MSTORE PUSH1 0x0 PUSH1 0x4 DUP3 ADD MSTORE PUSH1 0x24 ADD PUSH2 0x90E JUMP JUMPDEST PUSH1 0x1 PUSH1 0x1 PUSH1 0xA0 SHL SUB DUP3 AND PUSH2 0x15D8 JUMPI PUSH1 0x40 MLOAD PUSH4 0xEC442F05 PUSH1 0xE0 SHL DUP2 MSTORE PUSH1 0x0 PUSH1 0x4 DUP3 ADD MSTORE PUSH1 0x24 ADD PUSH2 0x90E JUMP JUMPDEST PUSH2 0x797 DUP4 DUP4 DUP4 PUSH2 0x1A3A JUMP JUMPDEST PUSH1 0x5 SLOAD PUSH1 0x1 PUSH1 0x1 PUSH1 0xA0 SHL SUB AND CALLER EQ PUSH2 0x87C JUMPI PUSH1 0x40 MLOAD PUSH4 0x118CDAA7 PUSH1 0xE0 SHL DUP2 MSTORE CALLER PUSH1 0x4 DUP3 ADD MSTORE PUSH1 0x24 ADD PUSH2 0x90E JUMP JUMPDEST PUSH2 0x1618 PUSH2 0x1AF3 JUMP JUMPDEST PUSH1 0x6 DUP1 SLOAD PUSH1 0xFF PUSH1 0xA0 SHL NOT AND SWAP1 SSTORE PUSH32 0x5DB9EE0A495BF2E6FF9C91A7834C1BA4FDD244A5E8AA4E537BD38AEAE4B073AA CALLER JUMPDEST PUSH1 0x40 MLOAD PUSH1 0x1 PUSH1 0x1 PUSH1 0xA0 SHL SUB SWAP1 SWAP2 AND DUP2 MSTORE PUSH1 0x20 ADD PUSH1 0x40 MLOAD DUP1 SWAP2 SUB SWAP1 LOG1 JUMP JUMPDEST PUSH1 0x1 PUSH1 0x1 PUSH1 0xA0 SHL SUB DUP3 AND PUSH2 0x168F JUMPI PUSH1 0x40 MLOAD PUSH4 0x4B637E8F PUSH1 0xE1 SHL DUP2 MSTORE PUSH1 0x0 PUSH1 0x4 DUP3 ADD MSTORE PUSH1 0x24 ADD PUSH2 0x90E JUMP JUMPDEST PUSH2 0x935 DUP3 PUSH1 0x0 DUP4 PUSH2 0x1A3A JUMP JUMPDEST PUSH1 0x6 DUP1 SLOAD PUSH1 0x1 PUSH1 0x1 PUSH1 0xA0 SHL SUB NOT AND SWAP1 SSTORE PUSH2 0x888 DUP2 PUSH2 0x1B1D JUMP JUMPDEST PUSH2 0x16BC PUSH2 0x1B6F JUMP JUMPDEST PUSH1 0x2 PUSH1 0x0 DUP1 MLOAD PUSH1 0x20 PUSH2 0x204A DUP4 CODECOPY DUP2 MLOAD SWAP2 MSTORE SSTORE JUMP JUMPDEST PUSH1 0x6 SLOAD PUSH1 0x1 PUSH1 0xA0 SHL SWAP1 DIV PUSH1 0xFF AND ISZERO PUSH2 0x87C JUMPI PUSH1 0x40 MLOAD PUSH4 0xD93C0665 PUSH1 0xE0 SHL DUP2 MSTORE PUSH1 0x4 ADD PUSH1 0x40 MLOAD DUP1 SWAP2 SUB SWAP1 REVERT JUMPDEST PUSH1 0x0 PUSH2 0x170A PUSH3 0x15180 TIMESTAMP PUSH2 0x1EF0 JUMP JUMPDEST PUSH1 0x1 PUSH1 0x1 PUSH1 0xA0 SHL SUB DUP4 AND PUSH1 0x0 SWAP1 DUP2 MSTORE PUSH1 0x7 PUSH1 0x20 SWAP1 DUP2 MSTORE PUSH1 0x40 DUP1 DUP4 KECCAK256 DUP5 DUP5 MSTORE SWAP1 SWAP2 MSTORE SWAP1 KECCAK256 SLOAD SWAP1 SWAP2 POP PUSH1 0xA DUP2 LT PUSH2 0x17A7 JUMPI DUP3 PUSH1 0x1 PUSH1 0x1 PUSH1 0xA0 SHL SUB AND PUSH32 0xD4669018EC120023A55A64C4EB585368D50758F9E4A417E0D4B1CE900FB38A14 DUP3 PUSH1 0x40 MLOAD PUSH2 0x1774 SWAP2 DUP2 MSTORE PUSH1 0x20 ADD SWAP1 JUMP JUMPDEST PUSH1 0x40 MLOAD DUP1 SWAP2 SUB SWAP1 LOG2 PUSH1 0x40 MLOAD PUSH4 0xA7382E9B PUSH1 0xE0 SHL DUP2 MSTORE PUSH1 0x1 PUSH1 0x1 PUSH1 0xA0 SHL SUB DUP5 AND PUSH1 0x4 DUP3 ADD MSTORE PUSH1 0x24 DUP2 ADD DUP3 SWAP1 MSTORE PUSH1 0x44 ADD PUSH2 0x90E JUMP JUMPDEST PUSH1 0x1 PUSH1 0x1 PUSH1 0xA0 SHL SUB DUP4 AND PUSH1 0x0 SWAP1 DUP2 MSTORE PUSH1 0x7 PUSH1 0x20 SWAP1 DUP2 MSTORE PUSH1 0x40 DUP1 DUP4 KECCAK256 DUP6 DUP5 MSTORE SWAP1 SWAP2 MSTORE DUP2 KECCAK256 DUP1 SLOAD SWAP2 PUSH2 0x17D6 DUP4 PUSH2 0x1F12 JUMP JUMPDEST SWAP2 SWAP1 POP SSTORE POP POP POP POP JUMP JUMPDEST PUSH1 0x1 PUSH1 0x1 PUSH1 0xA0 SHL SUB DUP3 AND PUSH2 0x180A JUMPI PUSH1 0x40 MLOAD PUSH4 0xEC442F05 PUSH1 0xE0 SHL DUP2 MSTORE PUSH1 0x0 PUSH1 0x4 DUP3 ADD MSTORE PUSH1 0x24 ADD PUSH2 0x90E JUMP JUMPDEST PUSH2 0x935 PUSH1 0x0 DUP4 DUP4 PUSH2 0x1A3A JUMP JUMPDEST PUSH1 0xD SLOAD PUSH1 0x1 PUSH1 0x1 PUSH1 0xA0 SHL SUB AND PUSH2 0x182B JUMPI POP POP POP JUMP JUMPDEST PUSH1 0xD SLOAD PUSH1 0x40 MLOAD PUSH4 0xB0CF6F1 PUSH1 0xE3 SHL DUP2 MSTORE PUSH1 0x1 PUSH1 0x1 PUSH1 0xA0 SHL SUB DUP6 DUP2 AND PUSH1 0x4 DUP4 ADD MSTORE PUSH1 0x24 DUP3 ADD DUP6 SWAP1 MSTORE PUSH1 0x44 DUP3 ADD DUP5 SWAP1 MSTORE SWAP1 SWAP2 AND SWAP1 PUSH4 0x5867B788 SWAP1 PUSH1 0x64 ADD PUSH1 0x0 PUSH1 0x40 MLOAD DUP1 DUP4 SUB DUP2 PUSH1 0x0 DUP8 DUP1 EXTCODESIZE ISZERO DUP1 ISZERO PUSH2 0x1880 JUMPI PUSH1 0x0 DUP1 REVERT JUMPDEST POP GAS CALL SWAP3 POP POP POP DUP1 ISZERO PUSH2 0x1891 JUMPI POP PUSH1 0x1 JUMPDEST ISZERO PUSH2 0x797 JUMPI PUSH1 0x40 DUP1 MLOAD DUP4 DUP2 MSTORE PUSH1 0x20 DUP2 ADD DUP4 SWAP1 MSTORE PUSH1 0x1 PUSH1 0x1 PUSH1 0xA0 SHL SUB DUP6 AND SWAP2 PUSH32 0xDB671E26A6DDFEAA0BBE304BA420FFF1E33DFC440699975BD67954574C5EABCE SWAP2 ADD PUSH1 0x40 MLOAD DUP1 SWAP2 SUB SWAP1 LOG2 POP POP POP JUMP JUMPDEST PUSH2 0x18E7 PUSH2 0x16D0 JUMP JUMPDEST PUSH1 0x6 DUP1 SLOAD PUSH1 0xFF PUSH1 0xA0 SHL NOT AND PUSH1 0x1 PUSH1 0xA0 SHL OR SWAP1 SSTORE PUSH32 0x62E78CEA01BEE320CD4E420270B5EA74000D11B0C9F74754EBDBFC544B05A258 PUSH2 0x1648 CALLER SWAP1 JUMP JUMPDEST PUSH1 0x8 SLOAD DUP2 LT ISZERO PUSH2 0x1953 JUMPI PUSH1 0x8 SLOAD PUSH1 0x40 MLOAD PUSH4 0x159C9265 PUSH1 0xE2 SHL DUP2 MSTORE PUSH2 0x90E SWAP2 DUP4 SWAP2 PUSH1 0x4 ADD SWAP2 DUP3 MSTORE PUSH1 0x20 DUP3 ADD MSTORE PUSH1 0x40 ADD SWAP1 JUMP JUMPDEST PUSH1 0x0 SWAP2 DUP3 MSTORE PUSH1 0x9 PUSH1 0x20 MSTORE PUSH1 0x40 SWAP1 SWAP2 KECCAK256 SSTORE JUMP JUMPDEST PUSH1 0x1 PUSH1 0x1 PUSH1 0xA0 SHL SUB DUP5 AND PUSH2 0x198F JUMPI PUSH1 0x40 MLOAD PUSH4 0xE602DF05 PUSH1 0xE0 SHL DUP2 MSTORE PUSH1 0x0 PUSH1 0x4 DUP3 ADD MSTORE PUSH1 0x24 ADD PUSH2 0x90E JUMP JUMPDEST PUSH1 0x1 PUSH1 0x1 PUSH1 0xA0 SHL SUB DUP4 AND PUSH2 0x19B9 JUMPI PUSH1 0x40 MLOAD PUSH4 0x4A1406B1 PUSH1 0xE1 SHL DUP2 MSTORE PUSH1 0x0 PUSH1 0x4 DUP3 ADD MSTORE PUSH1 0x24 ADD PUSH2 0x90E JUMP JUMPDEST PUSH1 0x1 PUSH1 0x1 PUSH1 0xA0 SHL SUB DUP1 DUP6 AND PUSH1 0x0 SWAP1 DUP2 MSTORE PUSH1 0x1 PUSH1 0x20 SWAP1 DUP2 MSTORE PUSH1 0x40 DUP1 DUP4 KECCAK256 SWAP4 DUP8 AND DUP4 MSTORE SWAP3 SWAP1 MSTORE KECCAK256 DUP3 SWAP1 SSTORE DUP1 ISZERO PUSH2 0x12E1 JUMPI DUP3 PUSH1 0x1 PUSH1 0x1 PUSH1 0xA0 SHL SUB AND DUP5 PUSH1 0x1 PUSH1 0x1 PUSH1 0xA0 SHL SUB AND PUSH32 0x8C5BE1E5EBEC7D5BD14F71427D1E84F3DD0314C0F7B2291E5B200AC8C7C3B925 DUP5 PUSH1 0x40 MLOAD PUSH2 0x1A2C SWAP2 DUP2 MSTORE PUSH1 0x20 ADD SWAP1 JUMP JUMPDEST PUSH1 0x40 MLOAD DUP1 SWAP2 SUB SWAP1 LOG3 POP POP POP POP JUMP JUMPDEST PUSH1 0x1 PUSH1 0x1 PUSH1 0xA0 SHL SUB DUP4 AND ISZERO DUP1 PUSH2 0x1A57 JUMPI POP PUSH1 0x1 PUSH1 0x1 PUSH1 0xA0 SHL SUB DUP3 AND ISZERO JUMPDEST DUP1 PUSH2 0x1A7A JUMPI POP PUSH1 0x1 PUSH1 0x1 PUSH1 0xA0 SHL SUB DUP4 AND PUSH1 0x0 SWAP1 DUP2 MSTORE PUSH1 0x10 PUSH1 0x20 MSTORE PUSH1 0x40 SWAP1 KECCAK256 SLOAD PUSH1 0xFF AND JUMPDEST DUP1 PUSH2 0x1A9D JUMPI POP PUSH1 0x1 PUSH1 0x1 PUSH1 0xA0 SHL SUB DUP3 AND PUSH1 0x0 SWAP1 DUP2 MSTORE PUSH1 0x10 PUSH1 0x20 MSTORE PUSH1 0x40 SWAP1 KECCAK256 SLOAD PUSH1 0xFF AND JUMPDEST ISZERO PUSH2 0x1AAD JUMPI PUSH2 0x797 DUP4 DUP4 DUP4 PUSH2 0x1B9F JUMP JUMPDEST PUSH1 0x0 PUSH2 0x2710 PUSH2 0x1ABD PUSH1 0x64 DUP5 PUSH2 0x201F JUMP JUMPDEST PUSH2 0x1AC7 SWAP2 SWAP1 PUSH2 0x1EF0 JUMP JUMPDEST SWAP1 POP PUSH1 0x0 PUSH2 0x1AD5 DUP3 DUP5 PUSH2 0x2036 JUMP JUMPDEST SWAP1 POP PUSH2 0x1AE1 DUP6 DUP4 PUSH2 0x1665 JUMP JUMPDEST PUSH2 0x1AEC DUP6 DUP6 DUP4 PUSH2 0x1B9F JUMP JUMPDEST POP POP POP POP POP JUMP JUMPDEST PUSH1 0x6 SLOAD PUSH1 0x1 PUSH1 0xA0 SHL SWAP1 DIV PUSH1 0xFF AND PUSH2 0x87C JUMPI PUSH1 0x40 MLOAD PUSH4 0x8DFC202B PUSH1 0xE0 SHL DUP2 MSTORE PUSH1 0x4 ADD PUSH1 0x40 MLOAD DUP1 SWAP2 SUB SWAP1 REVERT JUMPDEST PUSH1 0x5 DUP1 SLOAD PUSH1 0x1 PUSH1 0x1 PUSH1 0xA0 SHL SUB DUP4 DUP2 AND PUSH1 0x1 PUSH1 0x1 PUSH1 0xA0 SHL SUB NOT DUP4 AND DUP2 OR SWAP1 SWAP4 SSTORE PUSH1 0x40 MLOAD SWAP2 AND SWAP2 SWAP1 DUP3 SWAP1 PUSH32 0x8BE0079C531659141344CD1FD0A4F28419497F9722A3DAAFE3B4186F6B6457E0 SWAP1 PUSH1 0x0 SWAP1 LOG3 POP POP JUMP JUMPDEST PUSH1 0x0 DUP1 MLOAD PUSH1 0x20 PUSH2 0x204A DUP4 CODECOPY DUP2 MLOAD SWAP2 MSTORE SLOAD PUSH1 0x2 SUB PUSH2 0x87C JUMPI PUSH1 0x40 MLOAD PUSH4 0x3EE5AEB5 PUSH1 0xE0 SHL DUP2 MSTORE PUSH1 0x4 ADD PUSH1 0x40 MLOAD DUP1 SWAP2 SUB SWAP1 REVERT JUMPDEST PUSH1 0x1 PUSH1 0x1 PUSH1 0xA0 SHL SUB DUP4 AND PUSH2 0x1BCA JUMPI DUP1 PUSH1 0x2 PUSH1 0x0 DUP3 DUP3 SLOAD PUSH2 0x1BBF SWAP2 SWAP1 PUSH2 0x1F65 JUMP JUMPDEST SWAP1 SWAP2 SSTORE POP PUSH2 0x1C3C SWAP1 POP JUMP JUMPDEST PUSH1 0x1 PUSH1 0x1 PUSH1 0xA0 SHL SUB DUP4 AND PUSH1 0x0 SWAP1 DUP2 MSTORE PUSH1 0x20 DUP2 SWAP1 MSTORE PUSH1 0x40 SWAP1 KECCAK256 SLOAD DUP2 DUP2 LT ISZERO PUSH2 0x1C1D JUMPI PUSH1 0x40 MLOAD PUSH4 0x391434E3 PUSH1 0xE2 SHL DUP2 MSTORE PUSH1 0x1 PUSH1 0x1 PUSH1 0xA0 SHL SUB DUP6 AND PUSH1 0x4 DUP3 ADD MSTORE PUSH1 0x24 DUP2 ADD DUP3 SWAP1 MSTORE PUSH1 0x44 DUP2 ADD DUP4 SWAP1 MSTORE PUSH1 0x64 ADD PUSH2 0x90E JUMP JUMPDEST PUSH1 0x1 PUSH1 0x1 PUSH1 0xA0 SHL SUB DUP5 AND PUSH1 0x0 SWAP1 DUP2 MSTORE PUSH1 0x20 DUP2 SWAP1 MSTORE PUSH1 0x40 SWAP1 KECCAK256 SWAP1 DUP3 SWAP1 SUB SWAP1 SSTORE JUMPDEST PUSH1 0x1 PUSH1 0x1 PUSH1 0xA0 SHL SUB DUP3 AND PUSH2 0x1C58 JUMPI PUSH1 0x2 DUP1 SLOAD DUP3 SWAP1 SUB SWAP1 SSTORE PUSH2 0x1C77 JUMP JUMPDEST PUSH1 0x1 PUSH1 0x1 PUSH1 0xA0 SHL SUB DUP3 AND PUSH1 0x0 SWAP1 DUP2 MSTORE PUSH1 0x20 DUP2 SWAP1 MSTORE PUSH1 0x40 SWAP1 KECCAK256 DUP1 SLOAD DUP3 ADD SWAP1 SSTORE JUMPDEST DUP2 PUSH1 0x1 PUSH1 0x1 PUSH1 0xA0 SHL SUB AND DUP4 PUSH1 0x1 PUSH1 0x1 PUSH1 0xA0 SHL SUB AND PUSH32 0xDDF252AD1BE2C89B69C2B068FC378DAA952BA7F163C4A11628F55A4DF523B3EF DUP4 PUSH1 0x40 MLOAD PUSH2 0x1CBC SWAP2 DUP2 MSTORE PUSH1 0x20 ADD SWAP1 JUMP JUMPDEST PUSH1 0x40 MLOAD DUP1 SWAP2 SUB SWAP1 LOG3 POP POP POP JUMP JUMPDEST PUSH1 0x0 PUSH1 0x20 DUP3 DUP5 SUB SLT ISZERO PUSH2 0x1CDB JUMPI PUSH1 0x0 DUP1 REVERT JUMPDEST POP CALLDATALOAD SWAP2 SWAP1 POP JUMP JUMPDEST PUSH1 0x0 PUSH1 0x20 DUP1 DUP4 MSTORE DUP4 MLOAD DUP1 DUP3 DUP6 ADD MSTORE PUSH1 0x0 JUMPDEST DUP2 DUP2 LT ISZERO PUSH2 0x1D0F JUMPI DUP6 DUP2 ADD DUP4 ADD MLOAD DUP6 DUP3 ADD PUSH1 0x40 ADD MSTORE DUP3 ADD PUSH2 0x1CF3 JUMP JUMPDEST POP PUSH1 0x0 PUSH1 0x40 DUP3 DUP7 ADD ADD MSTORE PUSH1 0x40 PUSH1 0x1F NOT PUSH1 0x1F DUP4 ADD AND DUP6 ADD ADD SWAP3 POP POP POP SWAP3 SWAP2 POP POP JUMP JUMPDEST DUP1 CALLDATALOAD PUSH1 0x1 PUSH1 0x1 PUSH1 0xA0 SHL SUB DUP2 AND DUP2 EQ PUSH2 0x1D47 JUMPI PUSH1 0x0 DUP1 REVERT JUMPDEST SWAP2 SWAP1 POP JUMP JUMPDEST PUSH1 0x0 DUP1 PUSH1 0x40 DUP4 DUP6 SUB SLT ISZERO PUSH2 0x1D5F JUMPI PUSH1 0x0 DUP1 REVERT JUMPDEST PUSH2 0x1D68 DUP4 PUSH2 0x1D30 JUMP JUMPDEST SWAP5 PUSH1 0x20 SWAP4 SWAP1 SWAP4 ADD CALLDATALOAD SWAP4 POP POP POP JUMP JUMPDEST PUSH1 0x0 DUP1 PUSH1 0x0 PUSH1 0x60 DUP5 DUP7 SUB SLT ISZERO PUSH2 0x1D8B JUMPI PUSH1 0x0 DUP1 REVERT JUMPDEST PUSH2 0x1D94 DUP5 PUSH2 0x1D30 JUMP JUMPDEST SWAP3 POP PUSH2 0x1DA2 PUSH1 0x20 DUP6 ADD PUSH2 0x1D30 JUMP JUMPDEST SWAP2 POP PUSH1 0x40 DUP5 ADD CALLDATALOAD SWAP1 POP SWAP3 POP SWAP3 POP SWAP3 JUMP JUMPDEST PUSH1 0x0 PUSH1 0x20 DUP3 DUP5 SUB SLT ISZERO PUSH2 0x1DC4 JUMPI PUSH1 0x0 DUP1 REVERT JUMPDEST PUSH2 0x1DCD DUP3 PUSH2 0x1D30 JUMP JUMPDEST SWAP4 SWAP3 POP POP POP JUMP JUMPDEST PUSH1 0x0 DUP1 PUSH1 0x0 PUSH1 0x60 DUP5 DUP7 SUB SLT ISZERO PUSH2 0x1DE9 JUMPI PUSH1 0x0 DUP1 REVERT JUMPDEST PUSH2 0x1DF2 DUP5 PUSH2 0x1D30 JUMP JUMPDEST SWAP6 PUSH1 0x20 DUP6 ADD CALLDATALOAD SWAP6 POP PUSH1 0x40 SWAP1 SWAP5 ADD CALLDATALOAD SWAP4 SWAP3 POP POP POP JUMP JUMPDEST PUSH1 0x0 DUP1 PUSH1 0x0 DUP1 PUSH1 0x0 DUP1 DUP7 DUP9 SUB PUSH2 0x1A0 DUP2 SLT ISZERO PUSH2 0x1E22 JUMPI PUSH1 0x0 DUP1 REVERT JUMPDEST PUSH2 0x1E2B DUP9 PUSH2 0x1D30 JUMP JUMPDEST SWAP7 POP PUSH1 0x20 DUP9 ADD CALLDATALOAD SWAP6 POP PUSH1 0x40 DUP9 ADD CALLDATALOAD SWAP5 POP PUSH1 0x60 DUP9 ADD CALLDATALOAD SWAP4 POP PUSH2 0x100 PUSH1 0x7F NOT DUP3 ADD SLT ISZERO PUSH2 0x1E55 JUMPI PUSH1 0x0 DUP1 REVERT JUMPDEST POP PUSH1 0x80 DUP8 ADD SWAP2 POP PUSH2 0x180 DUP8 ADD CALLDATALOAD SWAP1 POP SWAP3 SWAP6 POP SWAP3 SWAP6 POP SWAP3 SWAP6 JUMP JUMPDEST PUSH1 0x0 DUP1 PUSH1 0x40 DUP4 DUP6 SUB SLT ISZERO PUSH2 0x1E81 JUMPI PUSH1 0x0 DUP1 REVERT JUMPDEST PUSH2 0x1E8A DUP4 PUSH2 0x1D30 JUMP JUMPDEST SWAP2 POP PUSH2 0x1E98 PUSH1 0x20 DUP5 ADD PUSH2 0x1D30 JUMP JUMPDEST SWAP1 POP SWAP3 POP SWAP3 SWAP1 POP JUMP JUMPDEST PUSH1 0x0 DUP1 PUSH1 0x0 DUP1 PUSH1 0x80 DUP6 DUP8 SUB SLT ISZERO PUSH2 0x1EB7 JUMPI PUSH1 0x0 DUP1 REVERT JUMPDEST PUSH2 0x1EC0 DUP6 PUSH2 0x1D30 JUMP JUMPDEST SWAP7 PUSH1 0x20 DUP7 ADD CALLDATALOAD SWAP7 POP PUSH1 0x40 DUP7 ADD CALLDATALOAD SWAP6 PUSH1 0x60 ADD CALLDATALOAD SWAP5 POP SWAP3 POP POP POP JUMP JUMPDEST PUSH4 0x4E487B71 PUSH1 0xE0 SHL PUSH1 0x0 MSTORE PUSH1 0x11 PUSH1 0x4 MSTORE PUSH1 0x24 PUSH1 0x0 REVERT JUMPDEST PUSH1 0x0 DUP3 PUSH2 0x1F0D JUMPI PUSH4 0x4E487B71 PUSH1 0xE0 SHL PUSH1 0x0 MSTORE PUSH1 0x12 PUSH1 0x4 MSTORE PUSH1 0x24 PUSH1 0x0 REVERT JUMPDEST POP DIV SWAP1 JUMP JUMPDEST PUSH1 0x0 PUSH1 0x1 DUP3 ADD PUSH2 0x1F24 JUMPI PUSH2 0x1F24 PUSH2 0x1EDA JUMP JUMPDEST POP PUSH1 0x1 ADD SWAP1 JUMP JUMPDEST PUSH1 0x1 DUP2 DUP2 SHR SWAP1 DUP3 AND DUP1 PUSH2 0x1F3F JUMPI PUSH1 0x7F DUP3 AND SWAP2 POP JUMPDEST PUSH1 0x20 DUP3 LT DUP2 SUB PUSH2 0x1F5F JUMPI PUSH4 0x4E487B71 PUSH1 0xE0 SHL PUSH1 0x0 MSTORE PUSH1 0x22 PUSH1 0x4 MSTORE PUSH1 0x24 PUSH1 0x0 REVERT JUMPDEST POP SWAP2 SWAP1 POP JUMP JUMPDEST DUP1 DUP3 ADD DUP1 DUP3 GT ISZERO PUSH2 0x842 JUMPI PUSH2 0x842 PUSH2 0x1EDA JUMP JUMPDEST PUSH2 0x140 DUP2 ADD PUSH1 0x40 DUP1 DUP8 DUP5 CALLDATACOPY DUP1 DUP4 ADD DUP7 PUSH1 0x0 JUMPDEST PUSH1 0x2 DUP2 LT ISZERO PUSH2 0x1FA7 JUMPI DUP4 DUP3 DUP5 CALLDATACOPY SWAP2 DUP4 ADD SWAP2 SWAP1 DUP4 ADD SWAP1 PUSH1 0x1 ADD PUSH2 0x1F8A JUMP JUMPDEST POP POP POP DUP1 DUP6 PUSH1 0xC0 DUP6 ADD CALLDATACOPY POP PUSH2 0x100 DUP3 ADD DUP4 PUSH1 0x0 JUMPDEST PUSH1 0x2 DUP2 LT ISZERO PUSH2 0x1FDA JUMPI DUP2 MLOAD DUP4 MSTORE PUSH1 0x20 SWAP3 DUP4 ADD SWAP3 SWAP1 SWAP2 ADD SWAP1 PUSH1 0x1 ADD PUSH2 0x1FBB JUMP JUMPDEST POP POP POP SWAP6 SWAP5 POP POP POP POP POP JUMP JUMPDEST PUSH1 0x0 PUSH1 0x20 DUP3 DUP5 SUB SLT ISZERO PUSH2 0x1FF8 JUMPI PUSH1 0x0 DUP1 REVERT JUMPDEST DUP2 MLOAD DUP1 ISZERO ISZERO DUP2 EQ PUSH2 0x1DCD JUMPI PUSH1 0x0 DUP1 REVERT JUMPDEST PUSH1 0x0 DUP2 PUSH2 0x2017 JUMPI PUSH2 0x2017 PUSH2 0x1EDA JUMP JUMPDEST POP PUSH1 0x0 NOT ADD SWAP1 JUMP JUMPDEST DUP1 DUP3 MUL DUP2 ISZERO DUP3 DUP3 DIV DUP5 EQ OR PUSH2 0x842 JUMPI PUSH2 0x842 PUSH2 0x1EDA JUMP JUMPDEST DUP2 DUP2 SUB DUP2 DUP2 GT ISZERO PUSH2 0x842 JUMPI PUSH2 0x842 PUSH2 0x1EDA JUMP INVALID SWAP12 PUSH24 0x9B17422D0DF92223018B32B4D1FA46E071723D6817E2486D STOP EXTCODESIZE 0xEC 0xC5 PUSH0 STOP LOG2 PUSH5 0x6970667358 0x22 SLT KECCAK256 0xF8 DUP7 0x4F ADDRESS DUP7 0xE6 0xCB GASPRICE RETURNDATASIZE PUSH13 0xA6F12CD0D1AEC36A933CA6BA1E DUP9 0x25 0xC0 0xEA 0xAE 0x1E MSTORE 0xD0 0x2E PUSH5 0x736F6C6343 STOP ADDMOD EQ STOP CALLER "},"methodIdentifiers":{"APPROVAL_TIMEOUT()":"f3683428","BPS_DENOMINATOR()":"e1a45218","BURN_TAX_BPS()":"77cf2c74","DAY_IN_SECONDS()":"5fdc6281","MAX_MINTS_PER_DAY()":"08de7af4","MAX_PER_MINT()":"09d42b30","MAX_SUPPLY()":"32cb6b0c","MIN_CONFIDENCE_BPS()":"8aa67b75","MULTISIG_THRESHOLD()":"21fe5314","REQUIRED_APPROVALS()":"599c5533","acceptOwnership()":"79ba5097","actionCO2NanoGrams(bytes32)":"bd7e729e","actionConfidenceScore(bytes32)":"16d3c4a1","addOracle(address)":"df5dd1a5","allowance(address,address)":"dd62ed3e","approve(address,uint256)":"095ea7b3","approveMint(address,uint256,bytes32)":"7ad05083","authorizedOracles(address)":"61c992a3","balanceOf(address)":"70a08231","burn(uint256)":"42966c68","burnFrom(address,uint256)":"79cc6790","decimals()":"313ce567","getDailyMintCount(address)":"5636dec1","minConfidenceBps()":"ce3604e9","mintEcoRewardWithZkProof(address,uint256,bytes32,bytes32,(uint256[2],uint256[2][2],uint256[2]),uint256)":"c182a0f2","mintFromAI(address,uint256,bytes32,uint256)":"f854909a","name()":"06fdde03","oracleCount()":"613d8fcc","owner()":"8da5cb5b","pause()":"8456cb59","paused()":"5c975abb","pendingOwner()":"e30c3978","proposeMinConfidenceUpdate(uint256)":"067e3ac4","proposePause()":"fffa080a","quantumLockAddress()":"1fdc461c","removeOracle(address)":"fdc85fc4","renounceOwnership()":"715018a6","setQuantumLock(address)":"8dec2929","setZkVerifier(address)":"96913528","symbol()":"95d89b41","totalSupply()":"18160ddd","transfer(address,uint256)":"a9059cbb","transferFrom(address,address,uint256)":"23b872dd","transferOwnership(address)":"f2fde38b","unpause()":"3f4ba83a","zkVerifierAddress()":"fcee2eb2"}}}}}