{
  "_format": "hh-sol-artifact-1",
  "contractName": "QuantumLock2050V2",
  "sourceName": "contracts/QuantumLock2050.sol",
  "abi": [
    {
      "inputs": [
        {
          "internalType": "address",
          "name": "_ecoCoinContract",
          "type": "address"
        },
        {
          "internalType": "address",
          "name": "_daoTreasury",
          "type": "address"
        },
        {
          "internalType": "address[]",
          "name": "_signers",
          "type": "address[]"
        }
      ],
      "stateMutability": "nonpayable",
      "type": "constructor"
    },
    {
      "inputs": [],
      "name": "AlreadyApproved",
      "type": "error"
    },
    {
      "inputs": [],
      "name": "AlreadyClaimed",
      "type": "error"
    },
    {
      "inputs": [],
      "name": "EmergencyPaused",
      "type": "error"
    },
    {
      "inputs": [],
      "name": "FallbackNotReady",
      "type": "error"
    },
    {
      "inputs": [],
      "name": "NotEcoCoinContract",
      "type": "error"
    },
    {
      "inputs": [],
      "name": "NotMultisig",
      "type": "error"
    },
    {
      "inputs": [],
      "name": "NotOwner",
      "type": "error"
    },
    {
      "inputs": [],
      "name": "NotTopHolder",
      "type": "error"
    },
    {
      "inputs": [],
      "name": "RotationOverdue",
      "type": "error"
    },
    {
      "inputs": [
        {
          "internalType": "uint256",
          "name": "unlockTime",
          "type": "uint256"
        },
        {
          "internalType": "uint256",
          "name": "currentTime",
          "type": "uint256"
        }
      ],
      "name": "StillLocked",
      "type": "error"
    },
    {
      "inputs": [],
      "name": "TransferFailed",
      "type": "error"
    },
    {
      "inputs": [],
      "name": "ZeroAddress",
      "type": "error"
    },
    {
      "anonymous": false,
      "inputs": [
        {
          "indexed": true,
          "internalType": "address",
          "name": "user",
          "type": "address"
        },
        {
          "indexed": false,
          "internalType": "uint256",
          "name": "amount",
          "type": "uint256"
        },
        {
          "indexed": false,
          "internalType": "uint256",
          "name": "co2",
          "type": "uint256"
        }
      ],
      "name": "ContributionReceived",
      "type": "event"
    },
    {
      "anonymous": false,
      "inputs": [
        {
          "indexed": true,
          "internalType": "address",
          "name": "oldAddr",
          "type": "address"
        },
        {
          "indexed": true,
          "internalType": "address",
          "name": "newAddr",
          "type": "address"
        }
      ],
      "name": "EcoCoinUpdated",
      "type": "event"
    },
    {
      "anonymous": false,
      "inputs": [
        {
          "indexed": false,
          "internalType": "bool",
          "name": "paused",
          "type": "bool"
        }
      ],
      "name": "EmergencyPauseSet",
      "type": "event"
    },
    {
      "anonymous": false,
      "inputs": [
        {
          "indexed": true,
          "internalType": "address",
          "name": "dao",
          "type": "address"
        },
        {
          "indexed": false,
          "internalType": "uint256",
          "name": "amount",
          "type": "uint256"
        }
      ],
      "name": "FallbackTriggered",
      "type": "event"
    },
    {
      "anonymous": false,
      "inputs": [
        {
          "indexed": true,
          "internalType": "address",
          "name": "winner",
          "type": "address"
        },
        {
          "indexed": false,
          "internalType": "uint256",
          "name": "amount",
          "type": "uint256"
        }
      ],
      "name": "FundUnlocked",
      "type": "event"
    },
    {
      "anonymous": false,
      "inputs": [
        {
          "indexed": true,
          "internalType": "bytes32",
          "name": "newRoot",
          "type": "bytes32"
        }
      ],
      "name": "MerkleRootUpdated",
      "type": "event"
    },
    {
      "anonymous": false,
      "inputs": [
        {
          "indexed": true,
          "internalType": "bytes32",
          "name": "actionId",
          "type": "bytes32"
        }
      ],
      "name": "MultisigActionExecuted",
      "type": "event"
    },
    {
      "anonymous": false,
      "inputs": [
        {
          "indexed": true,
          "internalType": "bytes32",
          "name": "actionId",
          "type": "bytes32"
        }
      ],
      "name": "MultisigActionProposed",
      "type": "event"
    },
    {
      "anonymous": false,
      "inputs": [
        {
          "indexed": true,
          "internalType": "address",
          "name": "user",
          "type": "address"
        },
        {
          "indexed": false,
          "internalType": "uint256",
          "name": "score",
          "type": "uint256"
        },
        {
          "indexed": false,
          "internalType": "bool",
          "name": "isTop",
          "type": "bool"
        }
      ],
      "name": "ProofUpdated",
      "type": "event"
    },
    {
      "anonymous": false,
      "inputs": [
        {
          "indexed": true,
          "internalType": "address",
          "name": "oldSigner",
          "type": "address"
        },
        {
          "indexed": true,
          "internalType": "address",
          "name": "newSigner",
          "type": "address"
        }
      ],
      "name": "SignerRotated",
      "type": "event"
    },
    {
      "anonymous": false,
      "inputs": [
        {
          "indexed": true,
          "internalType": "address",
          "name": "user",
          "type": "address"
        },
        {
          "indexed": false,
          "internalType": "string",
          "name": "ipfsHash",
          "type": "string"
        }
      ],
      "name": "TestamentStored",
      "type": "event"
    },
    {
      "anonymous": false,
      "inputs": [
        {
          "indexed": false,
          "internalType": "string",
          "name": "message",
          "type": "string"
        }
      ],
      "name": "TimeCapsuleMessage",
      "type": "event"
    },
    {
      "inputs": [],
      "name": "BPS_DENOMINATOR",
      "outputs": [
        {
          "internalType": "uint256",
          "name": "",
          "type": "uint256"
        }
      ],
      "stateMutability": "view",
      "type": "function"
    },
    {
      "inputs": [],
      "name": "ENDOWMENT_RATE_BPS",
      "outputs": [
        {
          "internalType": "uint256",
          "name": "",
          "type": "uint256"
        }
      ],
      "stateMutability": "view",
      "type": "function"
    },
    {
      "inputs": [],
      "name": "FALLBACK_DELAY",
      "outputs": [
        {
          "internalType": "uint256",
          "name": "",
          "type": "uint256"
        }
      ],
      "stateMutability": "view",
      "type": "function"
    },
    {
      "inputs": [],
      "name": "MULTISIG_THRESHOLD",
      "outputs": [
        {
          "internalType": "uint256",
          "name": "",
          "type": "uint256"
        }
      ],
      "stateMutability": "view",
      "type": "function"
    },
    {
      "inputs": [],
      "name": "ROTATION_PERIOD",
      "outputs": [
        {
          "internalType": "uint256",
          "name": "",
          "type": "uint256"
        }
      ],
      "stateMutability": "view",
      "type": "function"
    },
    {
      "inputs": [],
      "name": "UNLOCK_TIMESTAMP",
      "outputs": [
        {
          "internalType": "uint256",
          "name": "",
          "type": "uint256"
        }
      ],
      "stateMutability": "view",
      "type": "function"
    },
    {
      "inputs": [],
      "name": "claimFallbackToDAO",
      "outputs": [],
      "stateMutability": "nonpayable",
      "type": "function"
    },
    {
      "inputs": [],
      "name": "claimed",
      "outputs": [
        {
          "internalType": "bool",
          "name": "",
          "type": "bool"
        }
      ],
      "stateMutability": "view",
      "type": "function"
    },
    {
      "inputs": [],
      "name": "currentTopHolder",
      "outputs": [
        {
          "internalType": "address",
          "name": "",
          "type": "address"
        }
      ],
      "stateMutability": "view",
      "type": "function"
    },
    {
      "inputs": [],
      "name": "currentTopScore",
      "outputs": [
        {
          "internalType": "uint256",
          "name": "",
          "type": "uint256"
        }
      ],
      "stateMutability": "view",
      "type": "function"
    },
    {
      "inputs": [],
      "name": "daoTreasury",
      "outputs": [
        {
          "internalType": "address",
          "name": "",
          "type": "address"
        }
      ],
      "stateMutability": "view",
      "type": "function"
    },
    {
      "inputs": [],
      "name": "ecoCoinContract",
      "outputs": [
        {
          "internalType": "address",
          "name": "",
          "type": "address"
        }
      ],
      "stateMutability": "view",
      "type": "function"
    },
    {
      "inputs": [],
      "name": "emergencyPaused",
      "outputs": [
        {
          "internalType": "bool",
          "name": "",
          "type": "bool"
        }
      ],
      "stateMutability": "view",
      "type": "function"
    },
    {
      "inputs": [],
      "name": "getFundStatus",
      "outputs": [
        {
          "internalType": "bool",
          "name": "locked",
          "type": "bool"
        },
        {
          "internalType": "uint256",
          "name": "secondsRemaining",
          "type": "uint256"
        },
        {
          "internalType": "uint256",
          "name": "accumulated",
          "type": "uint256"
        },
        {
          "internalType": "address",
          "name": "topHolder",
          "type": "address"
        },
        {
          "internalType": "uint256",
          "name": "topScore",
          "type": "uint256"
        },
        {
          "internalType": "bool",
          "name": "isClaimed",
          "type": "bool"
        },
        {
          "internalType": "bool",
          "name": "paused",
          "type": "bool"
        }
      ],
      "stateMutability": "view",
      "type": "function"
    },
    {
      "inputs": [
        {
          "internalType": "address",
          "name": "user",
          "type": "address"
        }
      ],
      "name": "getTestament",
      "outputs": [
        {
          "internalType": "string",
          "name": "",
          "type": "string"
        }
      ],
      "stateMutability": "view",
      "type": "function"
    },
    {
      "inputs": [],
      "name": "lastSignerRotation",
      "outputs": [
        {
          "internalType": "uint256",
          "name": "",
          "type": "uint256"
        }
      ],
      "stateMutability": "view",
      "type": "function"
    },
    {
      "inputs": [],
      "name": "merkleRoot",
      "outputs": [
        {
          "internalType": "bytes32",
          "name": "",
          "type": "bytes32"
        }
      ],
      "stateMutability": "view",
      "type": "function"
    },
    {
      "inputs": [
        {
          "internalType": "bytes32",
          "name": "",
          "type": "bytes32"
        }
      ],
      "name": "merkleScores",
      "outputs": [
        {
          "internalType": "uint256",
          "name": "",
          "type": "uint256"
        }
      ],
      "stateMutability": "view",
      "type": "function"
    },
    {
      "inputs": [
        {
          "internalType": "address",
          "name": "",
          "type": "address"
        }
      ],
      "name": "multisigSigners",
      "outputs": [
        {
          "internalType": "bool",
          "name": "",
          "type": "bool"
        }
      ],
      "stateMutability": "view",
      "type": "function"
    },
    {
      "inputs": [
        {
          "internalType": "address",
          "name": "",
          "type": "address"
        }
      ],
      "name": "proofOfPlanetScore",
      "outputs": [
        {
          "internalType": "uint256",
          "name": "",
          "type": "uint256"
        }
      ],
      "stateMutability": "view",
      "type": "function"
    },
    {
      "inputs": [
        {
          "internalType": "address",
          "name": "newAddr",
          "type": "address"
        }
      ],
      "name": "proposeEcoCoinUpdate",
      "outputs": [],
      "stateMutability": "nonpayable",
      "type": "function"
    },
    {
      "inputs": [
        {
          "internalType": "bool",
          "name": "pauseState",
          "type": "bool"
        }
      ],
      "name": "proposePause",
      "outputs": [],
      "stateMutability": "nonpayable",
      "type": "function"
    },
    {
      "inputs": [
        {
          "internalType": "address",
          "name": "oldSigner",
          "type": "address"
        },
        {
          "internalType": "address",
          "name": "newSigner",
          "type": "address"
        }
      ],
      "name": "proposeSignerRotation",
      "outputs": [],
      "stateMutability": "nonpayable",
      "type": "function"
    },
    {
      "inputs": [
        {
          "internalType": "address",
          "name": "user",
          "type": "address"
        },
        {
          "internalType": "uint256",
          "name": "mintAmount",
          "type": "uint256"
        },
        {
          "internalType": "uint256",
          "name": "co2NanoGrams",
          "type": "uint256"
        }
      ],
      "name": "recordContribution",
      "outputs": [],
      "stateMutability": "nonpayable",
      "type": "function"
    },
    {
      "inputs": [],
      "name": "signerCount",
      "outputs": [
        {
          "internalType": "uint256",
          "name": "",
          "type": "uint256"
        }
      ],
      "stateMutability": "view",
      "type": "function"
    },
    {
      "inputs": [
        {
          "internalType": "string",
          "name": "ipfsHash",
          "type": "string"
        }
      ],
      "name": "storeTestament",
      "outputs": [],
      "stateMutability": "nonpayable",
      "type": "function"
    },
    {
      "inputs": [
        {
          "internalType": "bytes32",
          "name": "newRoot",
          "type": "bytes32"
        }
      ],
      "name": "submitBatchMerkleUpdate",
      "outputs": [],
      "stateMutability": "nonpayable",
      "type": "function"
    },
    {
      "inputs": [
        {
          "internalType": "address",
          "name": "",
          "type": "address"
        }
      ],
      "name": "testament",
      "outputs": [
        {
          "internalType": "string",
          "name": "",
          "type": "string"
        }
      ],
      "stateMutability": "view",
      "type": "function"
    },
    {
      "inputs": [],
      "name": "totalAccumulated",
      "outputs": [
        {
          "internalType": "uint256",
          "name": "",
          "type": "uint256"
        }
      ],
      "stateMutability": "view",
      "type": "function"
    },
    {
      "inputs": [],
      "name": "unlockEndowment",
      "outputs": [],
      "stateMutability": "nonpayable",
      "type": "function"
    },
    {
      "stateMutability": "payable",
      "type": "receive"
    }
  ],
  "bytecode": "0x60806040523480156200001157600080fd5b5060405162001c7d38038062001c7d83398101604081905262000034916200028e565b6001600160a01b0383166200005c5760405163d92e233d60e01b815260040160405180910390fd5b6001600160a01b038216620000845760405163d92e233d60e01b815260040160405180910390fd5b600080546001600160a01b038086166001600160a01b03199283161783556001805491861691909216179055426002555b81518110156200013a57600160036000848481518110620000da57620000da62000388565b6020908102919091018101516001600160a01b031682528101919091526040016000908120805460ff19169215159290921790915560048054916200011f836200039e565b9190505550808062000131906200039e565b915050620000b5565b507f84bab708d340bec5771017fbd5077e22ad1faedce0becb5855a401a0fba1f13f6040516200024a90602080825260ad908201527f546f2077686f65766572207265616473207468697320696e20323035303a205460408201527f6869732066756e64207761732063726561746564204a756e6520332c2032303260608201527f362c2066726f6d204879646572616261642c2050616b697374616e2c2062792060808201527f70656f706c652077686f2062656c69657665642074686520706c616e6574207760a08201527f617320776f72746820736176696e672e20557365207468697320776973656c7960c08201526c1710169022b1b7ac101918191b60991b60e08201526101000190565b60405180910390a1505050620003c6565b80516001600160a01b03811681146200027357600080fd5b919050565b634e487b7160e01b600052604160045260246000fd5b600080600060608486031215620002a457600080fd5b620002af846200025b565b92506020620002c08186016200025b565b60408601519093506001600160401b0380821115620002de57600080fd5b818701915087601f830112620002f357600080fd5b81518181111562000308576200030862000278565b8060051b604051601f19603f8301168101818110858211171562000330576200033062000278565b60405291825284820192508381018501918a8311156200034f57600080fd5b938501935b82851015620003785762000368856200025b565b8452938501939285019262000354565b8096505050505050509250925092565b634e487b7160e01b600052603260045260246000fd5b600060018201620003bf57634e487b7160e01b600052601160045260246000fd5b5060010190565b6118a780620003d66000396000f3fe6080604052600436106101d15760003560e01c806378365947116100f75780639e4a4f4511610095578063e4f2396e11610064578063e4f2396e1461055f578063e834a83414610574578063eac7a91214610595578063ecd52b8f146105b557600080fd5b80639e4a4f45146104cc578063b3369ee3146104f9578063b451939814610519578063e1a452181461054957600080fd5b80637ea6f6b1116100d15780637ea6f6b11461045c5780638c49188e146104895780639494f08e1461049f5780639e02cf4e146104b457600080fd5b8063783659471461041157806379022a9f146104265780637ca548c61461044657600080fd5b80633fc884a01161016f57806360380f371161013e57806360380f3714610399578063604f78b3146103b15780636f02e14d146103d15780637618d0a7146103f157600080fd5b80633fc884a01461032b5780634107d9cb1461034b5780635053882d146103615780635867b7881461037957600080fd5b80631af08c8b116101ab5780631af08c8b1461029457806321fe5314146102c157806327c830a9146102e45780632eb4a7ab1461031557600080fd5b8063036b07be146101dd57806307eac9bc146101ff57806312f0900d1461025c57600080fd5b366101d857005b600080fd5b3480156101e957600080fd5b506101fd6101f836600461148a565b6105cb565b005b34801561020b57600080fd5b5061021461081a565b6040805197151588526020880196909652948601939093526001600160a01b0390911660608501526080840152151560a0830152151560c082015260e0015b60405180910390f35b34801561026857600080fd5b5060095461027c906001600160a01b031681565b6040516001600160a01b039091168152602001610253565b3480156102a057600080fd5b506102b46102af3660046114bd565b610880565b60405161025391906114df565b3480156102cd57600080fd5b506102d6600281565b604051908152602001610253565b3480156102f057600080fd5b5060015461030590600160a01b900460ff1681565b6040519015158152602001610253565b34801561032157600080fd5b506102d660055481565b34801561033757600080fd5b506101fd61034636600461152d565b61092c565b34801561035757600080fd5b506102d6600b5481565b34801561036d57600080fd5b506102d66301e1338081565b34801561038557600080fd5b506101fd610394366004611546565b61098f565b3480156103a557600080fd5b506102d6630966018081565b3480156103bd57600080fd5b5060005461027c906001600160a01b031681565b3480156103dd57600080fd5b506101fd6103ec36600461158a565b610b59565b3480156103fd57600080fd5b506102b461040c3660046114bd565b610d54565b34801561041d57600080fd5b506102d6606481565b34801561043257600080fd5b5060015461027c906001600160a01b031681565b34801561045257600080fd5b506102d660045481565b34801561046857600080fd5b506102d661047736600461152d565b60066020526000908152604090205481565b34801561049557600080fd5b506102d660025481565b3480156104ab57600080fd5b506101fd610dee565b3480156104c057600080fd5b506102d663967a760081565b3480156104d857600080fd5b506102d66104e73660046114bd565b60086020526000908152604090205481565b34801561050557600080fd5b506101fd6105143660046115a7565b61100a565b34801561052557600080fd5b506103056105343660046114bd565b60036020526000908152604090205460ff1681565b34801561055557600080fd5b506102d661271081565b34801561056b57600080fd5b506101fd611060565b34801561058057600080fd5b5060015461030590600160a81b900460ff1681565b3480156105a157600080fd5b506101fd6105b03660046114bd565b611246565b3480156105c157600080fd5b506102d6600a5481565b3360009081526003602052604090205460ff166105fb5760405163f05e412b60e01b815260040160405180910390fd5b6001600160a01b0381166106225760405163d92e233d60e01b815260040160405180910390fd5b604080516b3937ba30ba32a9b4b3b732b960a11b60208201526bffffffffffffffffffffffff19606085811b8216602c84015284901b169181019190915260009060540160408051601f1981840301815291815281516020928301206000818152600790935291208054919250906106ef576b3937ba30ba32a9b4b3b732b960a11b81556001810180546001600160a01b0319166001600160a01b03851617905560405182907f442028aa0ec92b8477673454981b085a3622874341daf7690ef3c50873d2bb7690600090a25b33600090815260048201602052604090205460ff16156107225760405163080fc0bd60e11b815260040160405180910390fd5b3360009081526004820160205260408120805460ff191660011790556002820180549161074e8361162f565b9190505550600281600201541015801561076d5750600381015460ff16155b156108145760038181018054600160ff1991821681179092556001600160a01b038781166000818152602095909552604080862080548516905591881680865282862080549094169094179092554260025551919290917f6296f2c03e939addc50f67bbb5731c01fd0fa8f5bb6e94466c4dc09428dbdf3b9190a360405182907f85a11298766e89ccc6bb592df541cfe372391ba594943297b873670ee7adba6990600090a25b50505050565b63967a760042106000808080808086610834576000610842565b6108424263967a7600611648565b600b54600954600a546001549a9b939a9299506001600160a01b039091169750955060ff600160a81b820481169550600160a01b9091041692509050565b6001600160a01b0381166000908152600c602052604090208054606091906108a790611661565b80601f01602080910402602001604051908101604052809291908181526020018280546108d390611661565b80156109205780601f106108f557610100808354040283529160200191610920565b820191906000526020600020905b81548152906001019060200180831161090357829003601f168201915b50505050509050919050565b3360009081526003602052604090205460ff1661095c5760405163f05e412b60e01b815260040160405180910390fd5b600581905560405181907f90004c04698bc3322499a575ed3752dd4abf33e0a7294c06a787a0fe01bea94190600090a250565b6000546001600160a01b031633146109ba5760405163ae24af1960e01b815260040160405180910390fd5b600154600160a01b900460ff16156109e557604051634cb3183d60e01b815260040160405180910390fd5b60006127106109f560648561169b565b6109ff91906116b2565b905080600b6000828254610a1391906116d4565b90915550506001600160a01b03841660009081526008602052604081208054849290610a409084906116d4565b90915550506001600160a01b038416600090815260086020526040902054600a54811115610ac957600a819055600980546001600160a01b0319166001600160a01b03871690811790915560408051838152600160208201527f5d4b6c791a04d921ac0f009e489a5e03c7d34e261503e6a813c36a4d3b9dee68910160405180910390a2610b0e565b60408051828152600060208201526001600160a01b038716917f5d4b6c791a04d921ac0f009e489a5e03c7d34e261503e6a813c36a4d3b9dee68910160405180910390a25b60408051838152602081018590526001600160a01b038716917fd2dff949d20e874cc6ba1dcefb840fb8cf6000a4197bfb69accfea5a32443ff5910160405180910390a25050505050565b3360009081526003602052604090205460ff16610b895760405163f05e412b60e01b815260040160405180910390fd5b600081610b9962015180426116b2565b60405164706175736560d81b602082015291151560f81b6025830152602682015260460160408051601f198184030181529181528151602092830120600081815260079093529120805491925090610c3b5764706175736560d81b815560018101805460ff60a01b1916600160a01b8515150217905560405182907f442028aa0ec92b8477673454981b085a3622874341daf7690ef3c50873d2bb7690600090a25b33600090815260048201602052604090205460ff1615610c6e5760405163080fc0bd60e11b815260040160405180910390fd5b3360009081526004820160205260408120805460ff1916600117905560028201805491610c9a8361162f565b91905055506002816002015410158015610cb95750600381015460ff16155b15610d4f5760038101805460ff191660019081179091558054841515600160a01b0260ff60a01b199091161790556040517fc8b290589fc182b8da42313f406cbe272a988911356e5dfcf9d3afccfac6a8f290610d1b90851515815260200190565b60405180910390a160405182907f85a11298766e89ccc6bb592df541cfe372391ba594943297b873670ee7adba6990600090a25b505050565b600c6020526000908152604090208054610d6d90611661565b80601f0160208091040260200160405190810160405280929190818152602001828054610d9990611661565b8015610de65780601f10610dbb57610100808354040283529160200191610de6565b820191906000526020600020905b815481529060010190602001808311610dc957829003601f168201915b505050505081565b600154600160a01b900460ff1615610e1957604051634cb3183d60e01b815260040160405180910390fd5b63967a7600421015610e4e5760405163104d109160e21b815263967a7600600482015242602482015260440160405180910390fd5b600154600160a81b900460ff1615610e7957604051630c8d9eab60e31b815260040160405180910390fd5b6009546001600160a01b03163314610ea4576040516319e59e1560e01b815260040160405180910390fd5b6001805460ff60a81b1916600160a81b179055600080546040516370a0823160e01b81523060048201526001600160a01b03909116906370a0823190602401602060405180830381865afa158015610f00573d6000803e3d6000fd5b505050506040513d601f19601f82011682018060405250810190610f2491906116e7565b6000805460095460405163a9059cbb60e01b81526001600160a01b03918216600482015260248101859052939450919291169063a9059cbb906044016020604051808303816000875af1158015610f7f573d6000803e3d6000fd5b505050506040513d601f19601f82011682018060405250810190610fa39190611700565b905080610fc3576040516312171d8360e31b815260040160405180910390fd5b6009546040518381526001600160a01b03909116907f6036c8845a1aca1c46801da186b2b6700781fa9ff7579fb65bbbd860e46f3161906020015b60405180910390a25050565b336000908152600c60205260409020611024828483611781565b50336001600160a01b03167f4aa99b0b6b09aa19287a59a5e49cfa24c15a8852f419a985c37dca5b3151fb108383604051610ffe929190611842565b600154600160a01b900460ff161561108b57604051634cb3183d60e01b815260040160405180910390fd5b61109d6301e1338063967a76006116d4565b4210156110bd576040516311d4a86160e01b815260040160405180910390fd5b600154600160a81b900460ff16156110e857604051630c8d9eab60e31b815260040160405180910390fd5b6001805460ff60a81b1916600160a81b179055600080546040516370a0823160e01b81523060048201526001600160a01b03909116906370a0823190602401602060405180830381865afa158015611144573d6000803e3d6000fd5b505050506040513d601f19601f8201168201806040525081019061116891906116e7565b6000805460015460405163a9059cbb60e01b81526001600160a01b03918216600482015260248101859052939450919291169063a9059cbb906044016020604051808303816000875af11580156111c3573d6000803e3d6000fd5b505050506040513d601f19601f820116820180604052508101906111e79190611700565b905080611207576040516312171d8360e31b815260040160405180910390fd5b6001546040518381526001600160a01b03909116907f88f0557776a847895e33e08fed583a81cbf92cfd35b7e6b2eceb494b15fe199b90602001610ffe565b3360009081526003602052604090205460ff166112765760405163f05e412b60e01b815260040160405180910390fd5b6001600160a01b03811661129d5760405163d92e233d60e01b815260040160405180910390fd5b6040516c3ab83230ba32a2b1b7a1b7b4b760991b60208201526bffffffffffffffffffffffff19606083901b16602d82015260009060410160408051601f19818403018152918152815160209283012060008181526007909352912080549192509061135f576c3ab83230ba32a2b1b7a1b7b4b760991b81556001810180546001600160a01b0319166001600160a01b03851617905560405182907f442028aa0ec92b8477673454981b085a3622874341daf7690ef3c50873d2bb7690600090a25b33600090815260048201602052604090205460ff16156113925760405163080fc0bd60e11b815260040160405180910390fd5b3360009081526004820160205260408120805460ff19166001179055600282018054916113be8361162f565b919050555060028160020154101580156113dd5750600381015460ff16155b15610d4f5760038101805460ff19166001179055600080546001600160a01b038581166001600160a01b0319831681178455604051919092169283917fafcdccb5636c715ec2156062c110d1a2651687372ae2723f3e0502d59af6ddbd9190a360405183907f85a11298766e89ccc6bb592df541cfe372391ba594943297b873670ee7adba6990600090a250505050565b80356001600160a01b038116811461148557600080fd5b919050565b6000806040838503121561149d57600080fd5b6114a68361146e565b91506114b46020840161146e565b90509250929050565b6000602082840312156114cf57600080fd5b6114d88261146e565b9392505050565b600060208083528351808285015260005b8181101561150c578581018301518582016040015282016114f0565b506000604082860101526040601f19601f8301168501019250505092915050565b60006020828403121561153f57600080fd5b5035919050565b60008060006060848603121561155b57600080fd5b6115648461146e565b95602085013595506040909401359392505050565b801515811461158757600080fd5b50565b60006020828403121561159c57600080fd5b81356114d881611579565b600080602083850312156115ba57600080fd5b823567ffffffffffffffff808211156115d257600080fd5b818501915085601f8301126115e657600080fd5b8135818111156115f557600080fd5b86602082850101111561160757600080fd5b60209290920196919550909350505050565b634e487b7160e01b600052601160045260246000fd5b60006001820161164157611641611619565b5060010190565b8181038181111561165b5761165b611619565b92915050565b600181811c9082168061167557607f821691505b60208210810361169557634e487b7160e01b600052602260045260246000fd5b50919050565b808202811582820484141761165b5761165b611619565b6000826116cf57634e487b7160e01b600052601260045260246000fd5b500490565b8082018082111561165b5761165b611619565b6000602082840312156116f957600080fd5b5051919050565b60006020828403121561171257600080fd5b81516114d881611579565b634e487b7160e01b600052604160045260246000fd5b601f821115610d4f57600081815260208120601f850160051c8101602086101561175a5750805b601f850160051c820191505b8181101561177957828155600101611766565b505050505050565b67ffffffffffffffff8311156117995761179961171d565b6117ad836117a78354611661565b83611733565b6000601f8411600181146117e157600085156117c95750838201355b600019600387901b1c1916600186901b17835561183b565b600083815260209020601f19861690835b8281101561181257868501358255602094850194600190920191016117f2565b508682101561182f5760001960f88860031b161c19848701351681555b505060018560011b0183555b5050505050565b60208152816020820152818360408301376000818301604090810191909152601f909201601f1916010191905056fea2646970667358221220d6a3b9f3f7d7fb09ec0f39dd7ce25000fdc5645f661a1add1507bc61836fe63e64736f6c63430008140033",
  "linkReferences": {},
  "deployedLinkReferences": {}
}