{
  "_format": "hh-sol-artifact-1",
  "contractName": "QuantumLock2050",
  "sourceName": "contracts/QuantumLock2050.sol",
  "abi": [
    {
      "inputs": [
        {
          "internalType": "address",
          "name": "_ecoCoinContract",
          "type": "address"
        }
      ],
      "stateMutability": "nonpayable",
      "type": "constructor"
    },
    {
      "inputs": [],
      "name": "AlreadyClaimed",
      "type": "error"
    },
    {
      "inputs": [],
      "name": "NotEcoCoinContract",
      "type": "error"
    },
    {
      "inputs": [],
      "name": "NotTopHolder",
      "type": "error"
    },
    {
      "inputs": [
        {
          "internalType": "uint256",
          "name": "unlockTime",
          "type": "uint256"
        },
        {
          "internalType": "uint256",
          "name": "currentTime",
          "type": "uint256"
        }
      ],
      "name": "StillLocked",
      "type": "error"
    },
    {
      "inputs": [],
      "name": "TransferFailed",
      "type": "error"
    },
    {
      "inputs": [],
      "name": "ZeroAddress",
      "type": "error"
    },
    {
      "anonymous": false,
      "inputs": [
        {
          "indexed": true,
          "internalType": "address",
          "name": "from",
          "type": "address"
        },
        {
          "indexed": false,
          "internalType": "uint256",
          "name": "amount",
          "type": "uint256"
        },
        {
          "indexed": false,
          "internalType": "uint256",
          "name": "totalAccumulated",
          "type": "uint256"
        }
      ],
      "name": "EndowmentReceived",
      "type": "event"
    },
    {
      "anonymous": false,
      "inputs": [
        {
          "indexed": true,
          "internalType": "address",
          "name": "winner",
          "type": "address"
        },
        {
          "indexed": false,
          "internalType": "uint256",
          "name": "amount",
          "type": "uint256"
        },
        {
          "indexed": false,
          "internalType": "uint256",
          "name": "unlockedAt",
          "type": "uint256"
        }
      ],
      "name": "FundUnlocked",
      "type": "event"
    },
    {
      "anonymous": false,
      "inputs": [
        {
          "indexed": true,
          "internalType": "address",
          "name": "user",
          "type": "address"
        },
        {
          "indexed": false,
          "internalType": "uint256",
          "name": "newScore",
          "type": "uint256"
        },
        {
          "indexed": false,
          "internalType": "bool",
          "name": "isNewTopHolder",
          "type": "bool"
        }
      ],
      "name": "ProofOfPlanetUpdated",
      "type": "event"
    },
    {
      "anonymous": false,
      "inputs": [
        {
          "indexed": false,
          "internalType": "string",
          "name": "message",
          "type": "string"
        }
      ],
      "name": "TimeCapsuleMessage",
      "type": "event"
    },
    {
      "inputs": [],
      "name": "BPS_DENOMINATOR",
      "outputs": [
        {
          "internalType": "uint256",
          "name": "",
          "type": "uint256"
        }
      ],
      "stateMutability": "view",
      "type": "function"
    },
    {
      "inputs": [],
      "name": "ENDOWMENT_RATE_BPS",
      "outputs": [
        {
          "internalType": "uint256",
          "name": "",
          "type": "uint256"
        }
      ],
      "stateMutability": "view",
      "type": "function"
    },
    {
      "inputs": [],
      "name": "UNLOCK_TIMESTAMP",
      "outputs": [
        {
          "internalType": "uint256",
          "name": "",
          "type": "uint256"
        }
      ],
      "stateMutability": "view",
      "type": "function"
    },
    {
      "inputs": [],
      "name": "claimed",
      "outputs": [
        {
          "internalType": "bool",
          "name": "",
          "type": "bool"
        }
      ],
      "stateMutability": "view",
      "type": "function"
    },
    {
      "inputs": [],
      "name": "currentTopHolder",
      "outputs": [
        {
          "internalType": "address",
          "name": "",
          "type": "address"
        }
      ],
      "stateMutability": "view",
      "type": "function"
    },
    {
      "inputs": [],
      "name": "currentTopScore",
      "outputs": [
        {
          "internalType": "uint256",
          "name": "",
          "type": "uint256"
        }
      ],
      "stateMutability": "view",
      "type": "function"
    },
    {
      "inputs": [],
      "name": "ecoCoinContract",
      "outputs": [
        {
          "internalType": "address",
          "name": "",
          "type": "address"
        }
      ],
      "stateMutability": "view",
      "type": "function"
    },
    {
      "inputs": [],
      "name": "getFundStatus",
      "outputs": [
        {
          "internalType": "bool",
          "name": "locked",
          "type": "bool"
        },
        {
          "internalType": "uint256",
          "name": "secondsRemaining",
          "type": "uint256"
        },
        {
          "internalType": "uint256",
          "name": "accumulated",
          "type": "uint256"
        },
        {
          "internalType": "address",
          "name": "topHolder",
          "type": "address"
        },
        {
          "internalType": "uint256",
          "name": "topScore",
          "type": "uint256"
        },
        {
          "internalType": "bool",
          "name": "isClaimed",
          "type": "bool"
        }
      ],
      "stateMutability": "view",
      "type": "function"
    },
    {
      "inputs": [],
      "name": "getTimeRemaining",
      "outputs": [
        {
          "internalType": "uint256",
          "name": "",
          "type": "uint256"
        }
      ],
      "stateMutability": "view",
      "type": "function"
    },
    {
      "inputs": [],
      "name": "getTopHolder",
      "outputs": [
        {
          "internalType": "address",
          "name": "",
          "type": "address"
        },
        {
          "internalType": "uint256",
          "name": "",
          "type": "uint256"
        }
      ],
      "stateMutability": "view",
      "type": "function"
    },
    {
      "inputs": [],
      "name": "getUnlockDate",
      "outputs": [
        {
          "internalType": "string",
          "name": "",
          "type": "string"
        }
      ],
      "stateMutability": "pure",
      "type": "function"
    },
    {
      "inputs": [],
      "name": "isLocked",
      "outputs": [
        {
          "internalType": "bool",
          "name": "",
          "type": "bool"
        }
      ],
      "stateMutability": "view",
      "type": "function"
    },
    {
      "inputs": [],
      "name": "owner",
      "outputs": [
        {
          "internalType": "address",
          "name": "",
          "type": "address"
        }
      ],
      "stateMutability": "view",
      "type": "function"
    },
    {
      "inputs": [
        {
          "internalType": "address",
          "name": "",
          "type": "address"
        }
      ],
      "name": "proofOfPlanetScore",
      "outputs": [
        {
          "internalType": "uint256",
          "name": "",
          "type": "uint256"
        }
      ],
      "stateMutability": "view",
      "type": "function"
    },
    {
      "inputs": [
        {
          "internalType": "address",
          "name": "user",
          "type": "address"
        },
        {
          "internalType": "uint256",
          "name": "mintAmount",
          "type": "uint256"
        },
        {
          "internalType": "uint256",
          "name": "co2NanoGrams",
          "type": "uint256"
        }
      ],
      "name": "recordContribution",
      "outputs": [],
      "stateMutability": "nonpayable",
      "type": "function"
    },
    {
      "inputs": [],
      "name": "totalAccumulated",
      "outputs": [
        {
          "internalType": "uint256",
          "name": "",
          "type": "uint256"
        }
      ],
      "stateMutability": "view",
      "type": "function"
    },
    {
      "inputs": [],
      "name": "unlockEndowment",
      "outputs": [],
      "stateMutability": "nonpayable",
      "type": "function"
    },
    {
      "stateMutability": "payable",
      "type": "receive"
    }
  ],
  "bytecode": "0x60a060405234801561001057600080fd5b50604051610bb9380380610bb983398101604081905261002f916101b9565b6001600160a01b0381166100565760405163d92e233d60e01b815260040160405180910390fd5b6001600160a01b038116608052600080546001600160a01b031916331790556040517f84bab708d340bec5771017fbd5077e22ad1faedce0becb5855a401a0fba1f13f906101ab90602080825260cd908201527f546f2077686f65766572207265616473207468697320696e20323035303a205460408201527f6869732066756e64207761732063726561746564206f6e204d61792033312c2060608201527f323032362c2062792070656f706c652077686f2062656c69657665642074686560808201527f20706c616e65742077617320776f72746820736176696e672e2045766572792060a08201527f6672616374696f6e206f662045434f58206865726520726570726573656e747360c08201527f2061207265616c20616374696f6e2e20557365207468697320776973656c792e60e08201526c10169022b1b7ac16101918191b60991b6101008201526101200190565b60405180910390a1506101e9565b6000602082840312156101cb57600080fd5b81516001600160a01b03811681146101e257600080fd5b9392505050565b6080516109a0610219600039600081816101f20152818161041d0152818161065b01526106f501526109a06000f3fe6080604052600436106101025760003560e01c80639494f08e11610095578063c594c91611610064578063c594c9161461030b578063dac6270d14610357578063e1a452181461036c578063e834a83414610382578063ecd52b8f146103a357600080fd5b80639494f08e1461028c5780639e02cf4e146102a15780639e4a4f45146102b9578063a4e2d634146102e657600080fd5b8063604f78b3116100d1578063604f78b3146101e0578063783659471461021457806385e8865a146102295780638da5cb5b1461026c57600080fd5b806307eac9bc1461010e57806312f0900d146101625780634107d9cb1461019a5780635867b788146101be57600080fd5b3661010957005b600080fd5b34801561011a57600080fd5b506101236103b9565b6040805196151587526020870195909552938501929092526001600160a01b031660608401526080830152151560a082015260c0015b60405180910390f35b34801561016e57600080fd5b50600254610182906001600160a01b031681565b6040516001600160a01b039091168152602001610159565b3480156101a657600080fd5b506101b060045481565b604051908152602001610159565b3480156101ca57600080fd5b506101de6101d9366004610811565b610412565b005b3480156101ec57600080fd5b506101827f000000000000000000000000000000000000000000000000000000000000000081565b34801561022057600080fd5b506101b0606481565b34801561023557600080fd5b5061024d6002546003546001600160a01b0390911691565b604080516001600160a01b039093168352602083019190915201610159565b34801561027857600080fd5b50600054610182906001600160a01b031681565b34801561029857600080fd5b506101de6105a0565b3480156102ad57600080fd5b506101b063967a760081565b3480156102c557600080fd5b506101b06102d4366004610844565b60016020526000908152604090205481565b3480156102f257600080fd5b5063967a760042105b6040519015158152602001610159565b34801561031757600080fd5b50604080518082018252601c81527f4a616e7561727920312c20323035302030303a30303a30302055544300000000602082015290516101599190610866565b34801561036357600080fd5b506101b06107cf565b34801561037857600080fd5b506101b061271081565b34801561038e57600080fd5b506000546102fb90600160a01b900460ff1681565b3480156103af57600080fd5b506101b060035481565b63967a76004210600080808080856103d25760006103e0565b6103e04263967a76006108ca565b600454600254600354600054999a93999298506001600160a01b0390911696509450600160a01b900460ff1692509050565b336001600160a01b037f0000000000000000000000000000000000000000000000000000000000000000161461045b5760405163ae24af1960e01b815260040160405180910390fd5b600061271061046b6064856108e3565b61047591906108fa565b90508060046000828254610489919061091c565b90915550506001600160a01b038416600090815260016020526040812080548492906104b690849061091c565b90915550506001600160a01b03841660009081526001602052604081205460035490919082111561050557506003819055600280546001600160a01b0319166001600160a01b03871617905560015b856001600160a01b03167f3eb1bee204720f4f9f80763bb8d745d9895ebaf66b7ebca03348da76a26ba22b8460045460405161054b929190918252602082015260400190565b60405180910390a26040805183815282151560208201526001600160a01b038816917f15edfb85674432073d141a290940360359808ddb6617d3106459124f57a48509910160405180910390a2505050505050565b63967a76004210156105d55760405163104d109160e21b815263967a7600600482015242602482015260440160405180910390fd5b600054600160a01b900460ff161561060057604051630c8d9eab60e31b815260040160405180910390fd5b6002546001600160a01b0316331461062b576040516319e59e1560e01b815260040160405180910390fd5b6000805460ff60a01b1916600160a01b1781556040516370a0823160e01b81523060048201526001600160a01b037f000000000000000000000000000000000000000000000000000000000000000016906370a0823190602401602060405180830381865afa1580156106a2573d6000803e3d6000fd5b505050506040513d601f19601f820116820180604052508101906106c6919061092f565b60025460405163a9059cbb60e01b81526001600160a01b039182166004820152602481018390529192506000917f00000000000000000000000000000000000000000000000000000000000000009091169063a9059cbb906044016020604051808303816000875af1158015610740573d6000803e3d6000fd5b505050506040513d601f19601f820116820180604052508101906107649190610948565b905080610784576040516312171d8360e31b815260040160405180910390fd5b600254604080518481524260208201526001600160a01b03909216917f5c73a8e48188652f2f66ba53f675f11e0d00b7cc7a821167b642c4bf63b4c093910160405180910390a25050565b600063967a760042106107e25750600090565b6107f04263967a76006108ca565b905090565b80356001600160a01b038116811461080c57600080fd5b919050565b60008060006060848603121561082657600080fd5b61082f846107f5565b95602085013595506040909401359392505050565b60006020828403121561085657600080fd5b61085f826107f5565b9392505050565b600060208083528351808285015260005b8181101561089357858101830151858201604001528201610877565b506000604082860101526040601f19601f8301168501019250505092915050565b634e487b7160e01b600052601160045260246000fd5b818103818111156108dd576108dd6108b4565b92915050565b80820281158282048414176108dd576108dd6108b4565b60008261091757634e487b7160e01b600052601260045260246000fd5b500490565b808201808211156108dd576108dd6108b4565b60006020828403121561094157600080fd5b5051919050565b60006020828403121561095a57600080fd5b8151801515811461085f57600080fdfea26469706673582212204f8236476ed6a88bb99f0c3c16caca68ad02f8c0736428738424130b3c69b73664736f6c63430008140033",
  "linkReferences": {},
  "deployedLinkReferences": {}
}