{
  "_format": "hh-sol-artifact-1",
  "contractName": "EcoXPaymaster",
  "sourceName": "contracts/EcoXPaymaster.sol",
  "abi": [
    {
      "inputs": [
        {
          "internalType": "address",
          "name": "_entryPoint",
          "type": "address"
        },
        {
          "internalType": "address",
          "name": "_ecoCoinContract",
          "type": "address"
        }
      ],
      "stateMutability": "nonpayable",
      "type": "constructor"
    },
    {
      "inputs": [],
      "name": "InsufficientDeposit",
      "type": "error"
    },
    {
      "inputs": [],
      "name": "NotEntryPoint",
      "type": "error"
    },
    {
      "inputs": [],
      "name": "NotOwner",
      "type": "error"
    },
    {
      "inputs": [],
      "name": "UnauthorizedTarget",
      "type": "error"
    },
    {
      "inputs": [],
      "name": "ZeroAddress",
      "type": "error"
    },
    {
      "anonymous": false,
      "inputs": [
        {
          "indexed": false,
          "internalType": "uint256",
          "name": "amount",
          "type": "uint256"
        }
      ],
      "name": "DepositAdded",
      "type": "event"
    },
    {
      "anonymous": false,
      "inputs": [
        {
          "indexed": true,
          "internalType": "address",
          "name": "contractAddr",
          "type": "address"
        }
      ],
      "name": "EcoCoinContractSet",
      "type": "event"
    },
    {
      "anonymous": false,
      "inputs": [
        {
          "indexed": true,
          "internalType": "address",
          "name": "user",
          "type": "address"
        },
        {
          "indexed": false,
          "internalType": "bytes4",
          "name": "selector",
          "type": "bytes4"
        },
        {
          "indexed": false,
          "internalType": "uint256",
          "name": "gasUsed",
          "type": "uint256"
        }
      ],
      "name": "GasSponsored",
      "type": "event"
    },
    {
      "inputs": [],
      "name": "APPROVE_MINT_SELECTOR",
      "outputs": [
        {
          "internalType": "bytes4",
          "name": "",
          "type": "bytes4"
        }
      ],
      "stateMutability": "view",
      "type": "function"
    },
    {
      "inputs": [],
      "name": "MAX_GAS_SPONSORED",
      "outputs": [
        {
          "internalType": "uint256",
          "name": "",
          "type": "uint256"
        }
      ],
      "stateMutability": "view",
      "type": "function"
    },
    {
      "inputs": [],
      "name": "MINT_FROM_AI_SELECTOR",
      "outputs": [
        {
          "internalType": "bytes4",
          "name": "",
          "type": "bytes4"
        }
      ],
      "stateMutability": "view",
      "type": "function"
    },
    {
      "inputs": [],
      "name": "MIN_DEPOSIT",
      "outputs": [
        {
          "internalType": "uint256",
          "name": "",
          "type": "uint256"
        }
      ],
      "stateMutability": "view",
      "type": "function"
    },
    {
      "inputs": [],
      "name": "ZK_MINT_SELECTOR",
      "outputs": [
        {
          "internalType": "bytes4",
          "name": "",
          "type": "bytes4"
        }
      ],
      "stateMutability": "view",
      "type": "function"
    },
    {
      "inputs": [],
      "name": "deposit",
      "outputs": [],
      "stateMutability": "payable",
      "type": "function"
    },
    {
      "inputs": [],
      "name": "ecoCoinContract",
      "outputs": [
        {
          "internalType": "address",
          "name": "",
          "type": "address"
        }
      ],
      "stateMutability": "view",
      "type": "function"
    },
    {
      "inputs": [],
      "name": "entryPoint",
      "outputs": [
        {
          "internalType": "address",
          "name": "",
          "type": "address"
        }
      ],
      "stateMutability": "view",
      "type": "function"
    },
    {
      "inputs": [],
      "name": "getDeposit",
      "outputs": [
        {
          "internalType": "uint256",
          "name": "",
          "type": "uint256"
        }
      ],
      "stateMutability": "view",
      "type": "function"
    },
    {
      "inputs": [],
      "name": "owner",
      "outputs": [
        {
          "internalType": "address",
          "name": "",
          "type": "address"
        }
      ],
      "stateMutability": "view",
      "type": "function"
    },
    {
      "inputs": [
        {
          "internalType": "enum PostOpMode",
          "name": "",
          "type": "uint8"
        },
        {
          "internalType": "bytes",
          "name": "context",
          "type": "bytes"
        },
        {
          "internalType": "uint256",
          "name": "actualGasCost",
          "type": "uint256"
        }
      ],
      "name": "postOp",
      "outputs": [],
      "stateMutability": "nonpayable",
      "type": "function"
    },
    {
      "inputs": [
        {
          "internalType": "address",
          "name": "_contract",
          "type": "address"
        }
      ],
      "name": "setEcoCoinContract",
      "outputs": [],
      "stateMutability": "nonpayable",
      "type": "function"
    },
    {
      "inputs": [
        {
          "components": [
            {
              "internalType": "address",
              "name": "sender",
              "type": "address"
            },
            {
              "internalType": "uint256",
              "name": "nonce",
              "type": "uint256"
            },
            {
              "internalType": "bytes",
              "name": "initCode",
              "type": "bytes"
            },
            {
              "internalType": "bytes",
              "name": "callData",
              "type": "bytes"
            },
            {
              "internalType": "uint256",
              "name": "callGasLimit",
              "type": "uint256"
            },
            {
              "internalType": "uint256",
              "name": "verificationGasLimit",
              "type": "uint256"
            },
            {
              "internalType": "uint256",
              "name": "preVerificationGas",
              "type": "uint256"
            },
            {
              "internalType": "uint256",
              "name": "maxFeePerGas",
              "type": "uint256"
            },
            {
              "internalType": "uint256",
              "name": "maxPriorityFeePerGas",
              "type": "uint256"
            },
            {
              "internalType": "bytes",
              "name": "paymasterAndData",
              "type": "bytes"
            },
            {
              "internalType": "bytes",
              "name": "signature",
              "type": "bytes"
            }
          ],
          "internalType": "struct UserOperation",
          "name": "userOp",
          "type": "tuple"
        },
        {
          "internalType": "bytes32",
          "name": "",
          "type": "bytes32"
        },
        {
          "internalType": "uint256",
          "name": "maxCost",
          "type": "uint256"
        }
      ],
      "name": "validatePaymasterUserOp",
      "outputs": [
        {
          "internalType": "bytes",
          "name": "context",
          "type": "bytes"
        },
        {
          "internalType": "uint256",
          "name": "validationData",
          "type": "uint256"
        }
      ],
      "stateMutability": "nonpayable",
      "type": "function"
    },
    {
      "inputs": [
        {
          "internalType": "uint256",
          "name": "amount",
          "type": "uint256"
        }
      ],
      "name": "withdraw",
      "outputs": [],
      "stateMutability": "nonpayable",
      "type": "function"
    },
    {
      "stateMutability": "payable",
      "type": "receive"
    }
  ],
  "bytecode": "0x60a060405234801561001057600080fd5b50604051610dcd380380610dcd83398101604081905261002f916100ce565b6001600160a01b0382166100565760405163d92e233d60e01b815260040160405180910390fd5b6001600160a01b03811661007d5760405163d92e233d60e01b815260040160405180910390fd5b600080546001600160a01b031990811633179091556001600160a01b0392831660805260018054929093169116179055610101565b80516001600160a01b03811681146100c957600080fd5b919050565b600080604083850312156100e157600080fd5b6100ea836100b2565b91506100f8602084016100b2565b90509250929050565b608051610c8761014660003960008181610273015281816103740152818161047c0152818161053d01528181610616015281816106c6015261071c0152610c876000f3fe6080604052600436106100e15760003560e01c8063a9a234091161007f578063c399ec8811610059578063c399ec88146102ba578063d0e30db0146102cf578063e1e158a5146102d7578063f465c77e146102f257600080fd5b8063a9a2340914610241578063b0d691fe14610261578063bb59ce101461029557600080fd5b80636e446362116100bb5780636e446362146101995780636f3dc0a4146101cd5780638da5cb5b146101ed5780639358dd431461020d57600080fd5b80632e1a7d4d146100ed57806357b7816f1461010f578063604f78b31461016157600080fd5b366100e857005b600080fd5b3480156100f957600080fd5b5061010d610108366004610978565b610320565b005b34801561011b57600080fd5b506101437f0f9bafe3835285cad112d74f57614e6036a457b33fcb7c96f7f097819711dd1181565b6040516001600160e01b031990911681526020015b60405180910390f35b34801561016d57600080fd5b50600154610181906001600160a01b031681565b6040516001600160a01b039091168152602001610158565b3480156101a557600080fd5b506101437fe43e8556f68ca298f109df6ff61ddbfdbfce1a31e516b3c4918f4d1a95f99bcf81565b3480156101d957600080fd5b5061010d6101e83660046109a9565b6103d5565b3480156101f957600080fd5b50600054610181906001600160a01b031681565b34801561021957600080fd5b506101437f7ad05083550af4704e345dd2d4e28df5ee638296699e6dfc38683b56f3d83aec81565b34801561024d57600080fd5b5061010d61025c3660046109cd565b610471565b34801561026d57600080fd5b506101817f000000000000000000000000000000000000000000000000000000000000000081565b3480156102a157600080fd5b506102ac620493e081565b604051908152602001610158565b3480156102c657600080fd5b506102ac610525565b61010d6105b5565b3480156102e357600080fd5b506102ac662386f26fc1000081565b3480156102fe57600080fd5b5061031261030d366004610a5c565b6106b7565b604051610158929190610ab0565b6000546001600160a01b0316331461034b576040516330cd747160e01b815260040160405180910390fd5b60005460405163040b850f60e31b81526001600160a01b039182166004820152602481018390527f00000000000000000000000000000000000000000000000000000000000000009091169063205c287890604401600060405180830381600087803b1580156103ba57600080fd5b505af11580156103ce573d6000803e3d6000fd5b5050505050565b6000546001600160a01b03163314610400576040516330cd747160e01b815260040160405180910390fd5b6001600160a01b0381166104275760405163d92e233d60e01b815260040160405180910390fd5b600180546001600160a01b0319166001600160a01b0383169081179091556040517ff202d4560319b1ae8bae937e6aa739724d4259492a1ab5e9f56af2158c07613e90600090a250565b336001600160a01b037f000000000000000000000000000000000000000000000000000000000000000016146104ba57604051636b31ba1560e11b815260040160405180910390fd5b6000806104c984860186610b05565b604080516001600160e01b031983168152602081018790529294509092506001600160a01b038416917f13bb3886210f36f18bbdc25298b229df26a05f61167dbf1902ab3048903ee955910160405180910390a2505050505050565b6040516370a0823160e01b81523060048201526000907f00000000000000000000000000000000000000000000000000000000000000006001600160a01b0316906370a0823190602401602060405180830381865afa15801561058c573d6000803e3d6000fd5b505050506040513d601f19601f820116820180604052508101906105b09190610b4b565b905090565b6000546001600160a01b031633146105e0576040516330cd747160e01b815260040160405180910390fd5b346000036106015760405163070f6eed60e11b815260040160405180910390fd5b60405163b760faf960e01b81523060048201527f00000000000000000000000000000000000000000000000000000000000000006001600160a01b03169063b760faf99034906024016000604051808303818588803b15801561066357600080fd5b505af1158015610677573d6000803e3d6000fd5b50505050507fd748927f047364c929bb43fab136544d4e6cc771b6a24b8f37524e02b2b71056346040516106ad91815260200190565b60405180910390a1565b60606000336001600160a01b037f0000000000000000000000000000000000000000000000000000000000000000161461070457604051636b31ba1560e11b815260040160405180910390fd5b6040516370a0823160e01b81523060048201526000907f00000000000000000000000000000000000000000000000000000000000000006001600160a01b0316906370a0823190602401602060405180830381865afa15801561076b573d6000803e3d6000fd5b505050506040513d601f19601f8201168201806040525081019061078f9190610b4b565b90506107a2662386f26fc1000085610b64565b8110156107c3575050604080516020810190915260008152905060016108e6565b620493e0866080013511156107ec575050604080516020810190915260008152905060016108e6565b6000806108046107ff60608a018a610b8b565b6108ee565b60015491935091506001600160a01b03808416911614610837576040516385f92ca960e01b815260040160405180910390fd5b600061084282610bd2565b90506001600160e01b0319811663721f42ab60e11b1480159061087657506001600160e01b03198116637ad0508360e01b14155b801561089357506001600160e01b03198116630f9bafe360e01b14155b156108b1576040516385f92ca960e01b815260040160405180910390fd5b604080513360208201526001600160e01b03199290921682820152805180830382018152606090920190529450600093505050505b935093915050565b6000606060648310156109135750506040805160208101909152600080825290610971565b610921602460048587610c09565b61092a91610c33565b91506109398360648187610c09565b8080601f0160208091040260200160405190810160405280939291908181526020018383808284376000920191909152509293505050505b9250929050565b60006020828403121561098a57600080fd5b5035919050565b6001600160a01b03811681146109a657600080fd5b50565b6000602082840312156109bb57600080fd5b81356109c681610991565b9392505050565b600080600080606085870312156109e357600080fd5b8435600381106109f257600080fd5b9350602085013567ffffffffffffffff80821115610a0f57600080fd5b818701915087601f830112610a2357600080fd5b813581811115610a3257600080fd5b886020828501011115610a4457600080fd5b95986020929092019750949560400135945092505050565b600080600060608486031215610a7157600080fd5b833567ffffffffffffffff811115610a8857600080fd5b84016101608187031215610a9b57600080fd5b95602085013595506040909401359392505050565b604081526000835180604084015260005b81811015610ade5760208187018101516060868401015201610ac1565b506000606082850101526060601f19601f8301168401019150508260208301529392505050565b60008060408385031215610b1857600080fd5b8235610b2381610991565b915060208301356001600160e01b031981168114610b4057600080fd5b809150509250929050565b600060208284031215610b5d57600080fd5b5051919050565b80820180821115610b8557634e487b7160e01b600052601160045260246000fd5b92915050565b6000808335601e19843603018112610ba257600080fd5b83018035915067ffffffffffffffff821115610bbd57600080fd5b60200191503681900382131561097157600080fd5b805160208201516001600160e01b03198082169291906004831015610c015780818460040360031b1b83161693505b505050919050565b60008085851115610c1957600080fd5b83861115610c2657600080fd5b5050820193919092039150565b80356020831015610b8557600019602084900360031b1b169291505056fea26469706673582212209e1284ff39513a2693b7d19b432bb5cd44c45ec7b6b2777630ed6e1078f0ce0b64736f6c63430008140033",
  "linkReferences": {},
  "deployedLinkReferences": {}
}